{"abi":[{"type":"function","name":"ACTION_ADD_LIQUIDITY","inputs":[],"outputs":[{"name":"","type":"uint8","internalType":"uint8"}],"stateMutability":"view"},{"type":"function","name":"ACTION_REMOVE_LIQUIDITY","inputs":[],"outputs":[{"name":"","type":"uint8","internalType":"uint8"}],"stateMutability":"view"},{"type":"function","name":"ACTION_SWAP_0_TO_1","inputs":[],"outputs":[{"name":"","type":"uint8","internalType":"uint8"}],"stateMutability":"view"},{"type":"function","name":"ACTION_SWAP_1_TO_0","inputs":[],"outputs":[{"name":"","type":"uint8","internalType":"uint8"}],"stateMutability":"view"}],"bytecode":{"object":"0x6080806040523460175760a59081601c823930815050f35b5f80fdfe60808060405260043610156011575f80fd5b5f3560e01c90816304da79091460855750806323d62125146070578063838b6c6414605c5763dc377e08146043575f80fd5b5f366003190112605857602060405160018152f35b5f80fd5b5f36600319011260585760206040515f8152f35b5f366003190112605857602060405160028152f35b5f36600319011260585780600360209252f3fea164736f6c634300081b000a","linkReferences":{}},"methodIdentifiers":{"ACTION_ADD_LIQUIDITY()":"23d62125","ACTION_REMOVE_LIQUIDITY()":"04da7909","ACTION_SWAP_0_TO_1()":"838b6c64","ACTION_SWAP_1_TO_0()":"dc377e08"},"id":7}