{"abi":[{"type":"constructor","inputs":[{"name":"_hook","type":"address","internalType":"address"}],"stateMutability":"nonpayable"},{"type":"function","name":"availableLiquidity","inputs":[{"name":"token","type":"address","internalType":"Currency"}],"outputs":[{"name":"available","type":"uint256","internalType":"uint256"}],"stateMutability":"view"},{"type":"function","name":"depositLiquidity","inputs":[{"name":"token","type":"address","internalType":"Currency"},{"name":"amount","type":"uint256","internalType":"uint256"}],"outputs":[{"name":"actualAmount","type":"uint256","internalType":"uint256"}],"stateMutability":"nonpayable"},{"type":"function","name":"fund","inputs":[{"name":"token","type":"address","internalType":"Currency"},{"name":"amount","type":"uint256","internalType":"uint256"}],"outputs":[],"stateMutability":"nonpayable"},{"type":"function","name":"hook","inputs":[],"outputs":[{"name":"","type":"address","internalType":"address"}],"stateMutability":"view"},{"type":"function","name":"withdrawLiquidity","inputs":[{"name":"token","type":"address","internalType":"Currency"},{"name":"amount","type":"uint256","internalType":"uint256"}],"outputs":[{"name":"actualAmount","type":"uint256","internalType":"uint256"}],"stateMutability":"nonpayable"},{"type":"error","name":"InsufficientLiquidity","inputs":[]},{"type":"error","name":"SafeERC20FailedOperation","inputs":[{"name":"token","type":"address","internalType":"address"}]},{"type":"error","name":"Unauthorized","inputs":[]},{"type":"error","name":"ZeroAmount","inputs":[]}],"bytecode":{"object":"0x60a034607257601f61048238819003918201601f19168301916001600160401b03831184841017607657808492602094604052833981010312607257516001600160a01b03811681036072576080526040516103f7908161008b823960805181818160680152818160ea01526102120152f35b5f80fd5b634e487b7160e01b5f52604160045260245ffdfe6080806040526004361015610012575f80fd5b5f3560e01c90816306d47de9146101f757508063181f37c81461016257806339b41b4a146100cf5780637b1837de1461009b57637f5a7c7b14610053575f80fd5b34610097575f366003190112610097576040517f00000000000000000000000000000000000000000000000000000000000000006001600160a01b03168152602090f35b5f80fd5b34610097576040366003190112610097576100cd6100b76102ff565b60243590309033906001600160a01b031661034c565b005b34610097576040366003190112610097576100e86102ff565b7f000000000000000000000000000000000000000000000000000000000000000090602435906001600160a01b03831633036101545781156101455760209261013d91839130916001600160a01b031661034c565b604051908152f35b631f2a200560e01b5f5260045ffd5b6282b42960e81b5f5260045ffd5b3461009757602036600319011261009757602460206001600160a01b036101876102ff565b16604051928380926370a0823160e01b82523060048301525afa80156101ec575f906101b9575b602090604051908152f35b506020813d6020116101e4575b816101d360209383610315565b8101031261009757602090516101ae565b3d91506101c6565b6040513d5f823e3d90fd5b34610097576040366003190112610097576102106102ff565b7f00000000000000000000000000000000000000000000000000000000000000006001600160a01b0316916024359133849003610154578215610145576370a0823160e01b82523060048301526001600160a01b031690602081602481855afa80156101ec5783915f916102ca575b50106102bb5760209261013d916040519163a9059cbb60e01b868401526024830152836044830152604482526102b6606483610315565b610392565b63bb55fd2760e01b5f5260045ffd5b9150506020813d6020116102f7575b816102e660209383610315565b81010312610097578290518561027f565b3d91506102d9565b600435906001600160a01b038216820361009757565b601f909101601f19168101906001600160401b0382119082101761033857604052565b634e487b7160e01b5f52604160045260245ffd5b6040516323b872dd60e01b60208201526001600160a01b039283166024820152929091166044830152606480830193909352918152610390916102b6608483610315565b565b905f602091828151910182855af1156101ec575f513d6103e157506001600160a01b0381163b155b6103c15750565b635274afe760e01b5f9081526001600160a01b0391909116600452602490fd5b600114156103ba56fea164736f6c634300081b000a","linkReferences":{}},"methodIdentifiers":{"availableLiquidity(address)":"181f37c8","depositLiquidity(address,uint256)":"39b41b4a","fund(address,uint256)":"7b1837de","hook()":"7f5a7c7b","withdrawLiquidity(address,uint256)":"06d47de9"},"id":11}