{"abi":[{"type":"function","name":"PRECISION","inputs":[],"outputs":[{"name":"","type":"uint8","internalType":"uint8"}],"stateMutability":"view"},{"type":"function","name":"convertToUint","inputs":[{"name":"price","type":"int64","internalType":"int64"},{"name":"expo","type":"int32","internalType":"int32"},{"name":"targetDecimals","type":"uint8","internalType":"uint8"}],"outputs":[{"name":"","type":"uint256","internalType":"uint256"}],"stateMutability":"pure"},{"type":"function","name":"deriveCrossRate","inputs":[{"name":"price1","type":"int64","internalType":"int64"},{"name":"expo1","type":"int32","internalType":"int32"},{"name":"price2","type":"int64","internalType":"int64"},{"name":"expo2","type":"int32","internalType":"int32"},{"name":"targetExponent","type":"int32","internalType":"int32"}],"outputs":[{"name":"crossRate","type":"uint256","internalType":"uint256"}],"stateMutability":"pure"},{"type":"error","name":"CombinedPriceOverflow","inputs":[]},{"type":"error","name":"ExponentOverflow","inputs":[]},{"type":"error","name":"InvalidInputExpo","inputs":[]},{"type":"error","name":"NegativeInputPrice","inputs":[]}],"bytecode":{"object":"0x6080806040523460195761049a908161001e823930815050f35b5f80fdfe6080806040526004361015610012575f80fd5b5f3560e01c908163aaf5eb681461022657508063b55522b2146101f05763c88a190d1461003d575f80fd5b60a03660031901126101ec5761005161023a565b61005961024a565b90604435918260070b908184036101ec57606435908160030b8083036101ec57608435918260030b948584036101ec575f8760070b129081156101e2575b506101d35760030b9360fe1985129182156101c7575b5081156101bb575b506101ac576100c39161025a565b60030b9003637fffffff198112637fffffff82131761017e5760030b603a811380156101a1575b610192575f81131561012c576020926101249291610110906001600160401b031661032b565b6001600160401b03918216929091166103ee565b604051908152f35b6101479060ff81901d908101186001600160401b031661032b565b6001600160401b03909216808302928015908404909114171561017e57602091610179916001600160401b0316610342565b610124565b634e487b7160e01b5f52601160045260245ffd5b6325b0741360e21b5f5260045ffd5b5060391981126100ea565b630d468b4560e31b5f5260045ffd5b60fe191390505f6100b5565b60fe191391505f6100ad565b630136c22760e61b5f5260045ffd5b5f9150125f610097565b5f80fd5b60603660031901126101ec5761020461023a565b61020c61024a565b9060443560ff811681036101ec576020926101249261027a565b5f3660031901126101ec5780602460209252f35b600435908160070b82036101ec57565b602435908160030b82036101ec57565b9060030b9060030b0190637fffffff198212637fffffff83131761017e57565b91905f8360070b126101d35760fe198160030b126101ac5760ff6102a1921660030b61025a565b908160030b90603a82138015610320575b610192576001600160401b0316915f8213156103015763ffffffff915016604d811161017e57600a0a90818102918115918304141715806102f257150290565b630608859b60e31b5f5260045ffd5b508060ff1d80910118604d811161017e57600a0a9081156102f2570490565b5060391982126102b2565b6001600160401b0316604d811161017e57600a0a90565b5f1960018209918180841093039280840393146103ce57828111156103b7578060018309815f0382168092046002816003021880820260020302808202600203028082026002030280820260020302808202600203028091026002030293600183805f03040190848311900302920304170290565b634e487b715f52156003026011186020526024601cfd5b809250156103da570490565b634e487b7160e01b5f52601260045260245ffd5b90915f19838309928083029283808610950394808603951461047f57848311156104675790829109815f0382168092046002816003021880820260020302808202600203028082026002030280820260020302808202600203028091026002030293600183805f03040190848311900302920304170290565b82634e487b715f52156003026011186020526024601cfd5b5050809250156103da57049056fea164736f6c634300081b000a","linkReferences":{}},"methodIdentifiers":{"PRECISION()":"aaf5eb68","convertToUint(int64,int32,uint8)":"b55522b2","deriveCrossRate(int64,int32,int64,int32,int32)":"c88a190d"},"id":59}