{"abi":[{"type":"constructor","inputs":[{"name":"_manager","type":"address","internalType":"contract IPoolManager"}],"stateMutability":"nonpayable"},{"type":"function","name":"manager","inputs":[],"outputs":[{"name":"","type":"address","internalType":"contract IPoolManager"}],"stateMutability":"view"},{"type":"function","name":"modifyLiquidity","inputs":[{"name":"key","type":"tuple","internalType":"struct PoolKey","components":[{"name":"currency0","type":"address","internalType":"Currency"},{"name":"currency1","type":"address","internalType":"Currency"},{"name":"fee","type":"uint24","internalType":"uint24"},{"name":"tickSpacing","type":"int24","internalType":"int24"},{"name":"hooks","type":"address","internalType":"contract IHooks"}]},{"name":"params","type":"tuple","internalType":"struct ModifyLiquidityParams","components":[{"name":"tickLower","type":"int24","internalType":"int24"},{"name":"tickUpper","type":"int24","internalType":"int24"},{"name":"liquidityDelta","type":"int256","internalType":"int256"},{"name":"salt","type":"bytes32","internalType":"bytes32"}]},{"name":"hookData","type":"bytes","internalType":"bytes"},{"name":"settleUsingBurn","type":"bool","internalType":"bool"},{"name":"takeClaims","type":"bool","internalType":"bool"}],"outputs":[{"name":"delta","type":"int256","internalType":"BalanceDelta"}],"stateMutability":"payable"},{"type":"function","name":"modifyLiquidity","inputs":[{"name":"key","type":"tuple","internalType":"struct PoolKey","components":[{"name":"currency0","type":"address","internalType":"Currency"},{"name":"currency1","type":"address","internalType":"Currency"},{"name":"fee","type":"uint24","internalType":"uint24"},{"name":"tickSpacing","type":"int24","internalType":"int24"},{"name":"hooks","type":"address","internalType":"contract IHooks"}]},{"name":"params","type":"tuple","internalType":"struct ModifyLiquidityParams","components":[{"name":"tickLower","type":"int24","internalType":"int24"},{"name":"tickUpper","type":"int24","internalType":"int24"},{"name":"liquidityDelta","type":"int256","internalType":"int256"},{"name":"salt","type":"bytes32","internalType":"bytes32"}]},{"name":"hookData","type":"bytes","internalType":"bytes"}],"outputs":[{"name":"delta","type":"int256","internalType":"BalanceDelta"}],"stateMutability":"payable"},{"type":"function","name":"unlockCallback","inputs":[{"name":"rawData","type":"bytes","internalType":"bytes"}],"outputs":[{"name":"","type":"bytes","internalType":"bytes"}],"stateMutability":"nonpayable"}],"bytecode":{"object":"0x60a03461007e57601f61121038819003918201601f19168301916001600160401b038311848410176100825780849260209460405283398101031261007e57516001600160a01b038116810361007e57608052604051611179908161009782396080518181816095015281816106c7015281816107ca0152610ce90152f35b5f80fd5b634e487b7160e01b5f52604160045260245ffdfe60806040526004361015610011575f80fd5b5f3560e01c80630a5b11e4146107f9578063481c6a75146107b55780635a6bcfda146105b2576391dd734614610045575f80fd5b3461059b57602036600319011261059b576004356001600160401b03811161059b573660238201121561059b5760048101356001600160401b03811161059b578101602481019036821161059b577f0000000000000000000000000000000000000000000000000000000000000000926001600160a01b038416903382900361059b5760208184031261059b576024810135906001600160401b03821161059b5701906101a08284031261059b5760405191610100836108c3565b61010c6024820161094b565b835260a0601f19828603011261059b5760405193610129856108f2565b6101356044830161094b565b85526101436064830161094b565b6020860152608482013562ffffff8116810361059b57604086015261016a60a4830161095f565b606086015260c48201356001600160a01b038116810361059b5760809160249183880152602086019687528360e319910301011261059b57604051956101af8761090d565b6101bb60e4830161095f565b87526101ca610104830161095f565b6020880152610124820135604080890191909152610144830135606089015284019687526101648201356001600160401b03811161059b576102a496602461021492850101610a5d565b9160608501928352604061023f6101a46102316101848501610aa3565b936080890194855201610aa3565b9360a0870194855261026c60a08951208b51805160020b6060602083015160020b92015192309089610b6b565b50509561029a5f8c6102b88c519151955187519e8f9788968795632d35e7ed60e11b87526004870190610ad4565b60a4850190610b17565b610140610124840152610144830190610ab0565b03925af19687156105a7575f9761056f575b506102f060a08751208951805160020b6060602083015160020b92015192309087610b6b565b505086515186519192916103129130916001600160a01b039081169116610cda565b895160200151895191959350610337925030916001600160a01b039081169116610cda565b8c516040015190986001600160801b0316600f0b8181019493505f13801591851291821691151617905061055b576001600160801b0316600f0b03610519576040610400995101515f81125f146104d457505f821380156104cb575b61039c90610b40565b5f821280156104c2575b6103b09015610b40565b5f8212610492575b5f851261045d575b505f8113610432575b505f8313610404575b8686604051906020820152602081526103ec604082610928565b604051918291602083526020830190610ab0565b0390f35b9351602001519251905161042894901515936001600160a01b039283169216611011565b5f808080806103d2565b85515185518451610457939015159290916001600160a01b0390811691869116611011565b5f6103c9565b865160200151865161048c926001600160a01b03928316929091168561048289610b5b565b9251151593610dd7565b5f6103c0565b86515186516104bd916001600160a01b0390811691166104b185610b5b565b90868551151593610dd7565b6103b8565b505f85126103a6565b505f8513610393565b5f12156103b0575f82128015610510575b6104ee90610b40565b5f82138015610507575b6105029015610b40565b6103b0565b505f85136104f8565b505f85126104e5565b60405162461bcd60e51b815260206004820152601a6024820152791b1a5c5d5a591a5d1e4818da185b99d9481a5b98dbdc9c9958dd60321b6044820152606490fd5b634e487b7160e01b5f52601160045260245ffd5b9096506040813d60401161059f575b8161058b60409383610928565b8101031261059b5751955f6102ca565b5f80fd5b3d915061057e565b6040513d5f823e3d90fd5b61014036600319011261059b576105c83661096d565b6105d1366109f4565b61012435916001600160401b03831161059b576106a05f926105fa6106c2953690600401610a5d565b60405191610607836108c3565b33835260208301948552604083019081526060830191825261067f608084019287845261066a60a086019389855261065e604051998a986020808b015260018060a01b0390511660408a0152516060890190610ad4565b51610100870190610b17565b516101a06101808601526101e0850190610ab0565b915115156101a08401525115156101c083015203601f198101835282610928565b604051809381926348c8949160e01b8352602060048401526024830190610ab0565b0381837f00000000000000000000000000000000000000000000000000000000000000006001600160a01b03165af19081156105a7575f9161073c575b5060208180518101031261059b57602001514780610723575b602082604051908152f35b5f80808093335af1156107365781610718565b336110b6565b90503d805f833e61074d8183610928565b81019060208183031261059b578051906001600160401b03821161059b570181601f8201121561059b5780519061078382610a42565b926107916040519485610928565b8284526020838301011161059b57815f9260208093018386015e83010152816106ff565b3461059b575f36600319011261059b576040517f00000000000000000000000000000000000000000000000000000000000000006001600160a01b03168152602090f35b61018036600319011261059b5761080f3661096d565b610818366109f4565b610124356001600160401b03811161059b57610838903690600401610a5d565b91610144359283151580940361059b57610164359283151580940361059b576106c2945f9461067f6106a09461066a60405195610874876108c3565b3387526020870198895260408701908152606087019283526080870195865260a0870194855261065e604051998a986020808b015260018060a01b0390511660408a0152516060890190610ad4565b60c081019081106001600160401b038211176108de57604052565b634e487b7160e01b5f52604160045260245ffd5b60a081019081106001600160401b038211176108de57604052565b608081019081106001600160401b038211176108de57604052565b601f909101601f19168101906001600160401b038211908210176108de57604052565b35906001600160a01b038216820361059b57565b35908160020b820361059b57565b60a090600319011261059b5760405190610986826108f2565b816004356001600160a01b038116810361059b5781526024356001600160a01b038116810361059b57602082015260443562ffffff8116810361059b5760408201526064358060020b810361059b576060820152608435906001600160a01b038216820361059b5760800152565b60809060a319011261059b5760405190610a0d8261090d565b8160a4358060020b810361059b57815260c4358060020b810361059b57602082015260e4356040820152606061010435910152565b6001600160401b0381116108de57601f01601f191660200190565b81601f8201121561059b57803590610a7482610a42565b92610a826040519485610928565b8284526020838301011161059b57815f926020809301838601378301015290565b3590811515820361059b57565b805180835260209291819084018484015e5f828201840152601f01601f1916010190565b80516001600160a01b03908116835260208083015182169084015260408083015162ffffff169084015260608083015160020b9084015260809182015116910152565b60608091805160020b8452602081015160020b6020850152604081015160408501520151910152565b15610b4757565b634e487b7160e01b5f52600160045260245ffd5b600160ff1b811461055b575f0390565b94939290926040519460268601526006850152600384015282525f603a600c8401209281604082015281602082015252604051602081019182526006604082015260408152610bbb606082610928565b519020906006820180921161055b575f916040519060208201928352604082015260408152610beb606082610928565b519020604051631afeb18d60e11b815260048101919091526003602482015291829060449082906001600160a01b03165afa9081156105a7575f91610c40575b50602081015160408201516060909201519092565b90503d805f833e610c518183610928565b81019060208183031261059b578051906001600160401b03821161059b57019080601f8301121561059b578151916001600160401b0383116108de578260051b9060405193610ca36020840186610928565b845260208085019282010192831161059b57602001905b828210610cca575050505f610c2b565b8151815260209182019101610cba565b9290610ce6908461111f565b927f00000000000000000000000000000000000000000000000000000000000000006001600160a01b031690610d1c828261111f565b9360018060a01b03165f5260018060a01b0316602052602060405f2060246040518094819363789add5560e11b835260048301525afa9081156105a7575f91610d63575090565b90506020813d602011610d8a575b81610d7e60209383610928565b8101031261059b575190565b3d9150610d71565b9081602091031261059b5751801515810361059b5790565b9081602091031261059b575190565b604091949392606082019560018060a01b0316825260208201520152565b9291935f14610e3e576001600160a01b0316803b1561059b57604051637a94c56560e11b8152935f938593849286928492610e219290916001600160a01b03169060048501610db9565b03925af180156105a757610e325750565b5f610e3c91610928565b565b90916001600160a01b031680610eab5750604051630476982d60e21b81529250602091839160049183916001600160a01b03165af180156105a757610e805750565b610ea19060203d602011610ea4575b610e998183610928565b810190610daa565b50565b503d610e8f565b6001600160a01b0390911691823b1561059b57604051632961046560e21b8152600481018390525f9490858160248183895af180156105a757610ffc575b506001600160a01b031684308214610fa1576020929160649160405195869485936323b872dd60e01b8552600485015288602485015260448401525af18015610f9657916020918493610f69575b505b600460405180958193630476982d60e21b83525af1908115610f5d5750610e805750565b604051903d90823e3d90fd5b610f8890833d8511610f8f575b610f808183610928565b810190610d92565b505f610f37565b503d610f76565b6040513d85823e3d90fd5b9290506044602092604051948593849263a9059cbb60e01b845288600485015260248401525af18015610f9657916020918493610fdf575b50610f39565b610ff590833d8511610f8f57610f808183610928565b505f610fd9565b6110099195505f90610928565b5f935f610ee9565b9291935f1461105b576001600160a01b0316803b1561059b57604051630ab714fb60e11b8152935f938593849286928492610e219290916001600160a01b03169060048501610db9565b9092906001600160a01b0316803b1561059b57604051630b0d9c0960e01b81526001600160a01b03938416600482015291909216602482015260448101929092525f908290606490829084905af180156105a757610e325750565b6040516390bfb86560e01b81526001600160a01b0390911660048201525f602482018190526080604483015260a03d601f01601f191690810160648401523d6084840152903d9060a484013e808201600460a482015260c4633d2cec6f60e21b91015260e40190fd5b6001600160a01b03168061113257503190565b6040516370a0823160e01b81526001600160a01b039092166004830152602090829060249082905afa9081156105a7575f91610d6357509056fea164736f6c634300081b000a","linkReferences":{}},"methodIdentifiers":{"manager()":"481c6a75","modifyLiquidity((address,address,uint24,int24,address),(int24,int24,int256,bytes32),bytes)":"5a6bcfda","modifyLiquidity((address,address,uint24,int24,address),(int24,int24,int256,bytes32),bytes,bool,bool)":"0a5b11e4","unlockCallback(bytes)":"91dd7346"},"id":38}