{"abi":[{"type":"constructor","inputs":[{"name":"_collateralToken","type":"address","internalType":"contract IERC20"}],"stateMutability":"nonpayable"},{"type":"receive","stateMutability":"payable"},{"type":"function","name":"ANNUAL_RATE_BPS","inputs":[],"outputs":[{"name":"","type":"uint256","internalType":"uint256"}],"stateMutability":"view"},{"type":"function","name":"BPS_DENOM","inputs":[],"outputs":[{"name":"","type":"uint256","internalType":"uint256"}],"stateMutability":"view"},{"type":"function","name":"COLLATERAL_FACTOR","inputs":[],"outputs":[{"name":"","type":"uint256","internalType":"uint256"}],"stateMutability":"view"},{"type":"function","name":"YEAR_SECONDS","inputs":[],"outputs":[{"name":"","type":"uint256","internalType":"uint256"}],"stateMutability":"view"},{"type":"function","name":"acceptOwnership","inputs":[],"outputs":[],"stateMutability":"nonpayable"},{"type":"function","name":"borrow","inputs":[{"name":"collateralAssetPrice","type":"uint256","internalType":"uint256"},{"name":"borrowAssetPrice","type":"uint256","internalType":"uint256"}],"outputs":[],"stateMutability":"nonpayable"},{"type":"function","name":"borrows","inputs":[{"name":"","type":"address","internalType":"address"}],"outputs":[{"name":"borrowedEth","type":"uint256","internalType":"uint256"},{"name":"borrowedUsd","type":"uint256","internalType":"uint256"},{"name":"borrowTimestamp","type":"uint256","internalType":"uint256"},{"name":"active","type":"bool","internalType":"bool"}],"stateMutability":"view"},{"type":"function","name":"collateralToken","inputs":[],"outputs":[{"name":"","type":"address","internalType":"contract IERC20"}],"stateMutability":"view"},{"type":"function","name":"getAvailableBalance","inputs":[{"name":"token","type":"address","internalType":"contract IERC20"}],"outputs":[{"name":"","type":"uint256","internalType":"uint256"}],"stateMutability":"view"},{"type":"function","name":"getOutstandingDebt","inputs":[{"name":"user","type":"address","internalType":"address"}],"outputs":[{"name":"principal","type":"uint256","internalType":"uint256"},{"name":"interest","type":"uint256","internalType":"uint256"},{"name":"total","type":"uint256","internalType":"uint256"}],"stateMutability":"view"},{"type":"function","name":"owner","inputs":[],"outputs":[{"name":"","type":"address","internalType":"address"}],"stateMutability":"view"},{"type":"function","name":"pendingOwner","inputs":[],"outputs":[{"name":"","type":"address","internalType":"address"}],"stateMutability":"view"},{"type":"function","name":"renounceOwnership","inputs":[],"outputs":[],"stateMutability":"nonpayable"},{"type":"function","name":"repay","inputs":[{"name":"amount","type":"uint256","internalType":"uint256"}],"outputs":[],"stateMutability":"payable"},{"type":"function","name":"supply","inputs":[{"name":"token","type":"address","internalType":"contract IERC20"},{"name":"amount","type":"uint256","internalType":"uint256"}],"outputs":[],"stateMutability":"nonpayable"},{"type":"function","name":"transferOwnership","inputs":[{"name":"newOwner","type":"address","internalType":"address"}],"outputs":[],"stateMutability":"nonpayable"},{"type":"function","name":"withdraw","inputs":[{"name":"token","type":"address","internalType":"contract IERC20"},{"name":"amount","type":"uint256","internalType":"uint256"},{"name":"to","type":"address","internalType":"address"}],"outputs":[],"stateMutability":"nonpayable"},{"type":"function","name":"withdrawCollateral","inputs":[{"name":"amount","type":"uint256","internalType":"uint256"},{"name":"to","type":"address","internalType":"address"}],"outputs":[],"stateMutability":"nonpayable"},{"type":"function","name":"withdrawETH","inputs":[{"name":"amount","type":"uint256","internalType":"uint256"},{"name":"to","type":"address","internalType":"address payable"}],"outputs":[],"stateMutability":"nonpayable"},{"type":"event","name":"Borrow","inputs":[{"name":"user","type":"address","indexed":true,"internalType":"address"},{"name":"ethAmount","type":"uint256","indexed":false,"internalType":"uint256"},{"name":"usdValue","type":"uint256","indexed":false,"internalType":"uint256"}],"anonymous":false},{"type":"event","name":"CollateralWithdrawn","inputs":[{"name":"to","type":"address","indexed":true,"internalType":"address"},{"name":"amount","type":"uint256","indexed":false,"internalType":"uint256"}],"anonymous":false},{"type":"event","name":"ETHDeposited","inputs":[{"name":"from","type":"address","indexed":true,"internalType":"address"},{"name":"amount","type":"uint256","indexed":false,"internalType":"uint256"}],"anonymous":false},{"type":"event","name":"ETHWithdrawn","inputs":[{"name":"to","type":"address","indexed":true,"internalType":"address"},{"name":"amount","type":"uint256","indexed":false,"internalType":"uint256"}],"anonymous":false},{"type":"event","name":"OwnershipTransferStarted","inputs":[{"name":"previousOwner","type":"address","indexed":true,"internalType":"address"},{"name":"newOwner","type":"address","indexed":true,"internalType":"address"}],"anonymous":false},{"type":"event","name":"OwnershipTransferred","inputs":[{"name":"previousOwner","type":"address","indexed":true,"internalType":"address"},{"name":"newOwner","type":"address","indexed":true,"internalType":"address"}],"anonymous":false},{"type":"event","name":"Repay","inputs":[{"name":"user","type":"address","indexed":true,"internalType":"address"},{"name":"principal","type":"uint256","indexed":false,"internalType":"uint256"},{"name":"interest","type":"uint256","indexed":false,"internalType":"uint256"}],"anonymous":false},{"type":"event","name":"TokenSupplied","inputs":[{"name":"from","type":"address","indexed":true,"internalType":"address"},{"name":"token","type":"address","indexed":true,"internalType":"address"},{"name":"amount","type":"uint256","indexed":false,"internalType":"uint256"}],"anonymous":false},{"type":"error","name":"ActiveBorrow","inputs":[]},{"type":"error","name":"ExistingBorrow","inputs":[]},{"type":"error","name":"InsufficientLiquidity","inputs":[]},{"type":"error","name":"NoBorrow","inputs":[]},{"type":"error","name":"NoCollateral","inputs":[]},{"type":"error","name":"OwnableInvalidOwner","inputs":[{"name":"owner","type":"address","internalType":"address"}]},{"type":"error","name":"OwnableUnauthorizedAccount","inputs":[{"name":"account","type":"address","internalType":"address"}]},{"type":"error","name":"ReentrancyGuardReentrantCall","inputs":[]},{"type":"error","name":"SafeERC20FailedOperation","inputs":[{"name":"token","type":"address","internalType":"address"}]},{"type":"error","name":"TransferFailed","inputs":[]},{"type":"error","name":"ZeroAddress","inputs":[]},{"type":"error","name":"ZeroAmount","inputs":[]}],"bytecode":{"object":"0x60a03461010457601f610e0338819003918201601f19168301916001600160401b038311848410176101085780849260209460405283398101031261010457516001600160a01b038116908181036101045733156100f157600180546001600160a01b03199081169091555f805433928116831782556040519492916001600160a01b03909116907f8be0079c531659141344cd1fd0a4f28419497f9722a3daafe3b4186f6b6457e09080a36001600255156100e257608052610ce6908161011d823960805181818161028401528181610602015281816107f80152610a0b0152f35b63d92e233d60e01b5f5260045ffd5b631e4fbdf760e01b5f525f60045260245ffd5b5f80fd5b634e487b7160e01b5f52604160045260245ffdfe60806040526004361015610046575b3615610018575f80fd5b6040513481527f6c703791f399558807424f489ccd811c72b4ff0b74af547264fad7c646776df060203392a2005b5f3560e01c80630af504cc146109a25780630ecbcdab146107aa57806317aab2bd1461078e57806317f49e05146107725780631ea6cabc1461073c57806336118b52146106a5578063371fd8e61461057d57806354a5706f1461051e5780636637e38c1461050257806369328dec146104315780636c24a76f1461039c578063715018a61461034c57806379ba5097146102da5780638da5cb5b146102b3578063b2016bd41461026f578063b330db2814610251578063e30c397814610229578063f2b9fdb81461018f5763f2fde38b0361000e573461018b57602036600319011261018b57610134610a38565b61013c610baa565b600180546001600160a01b0319166001600160a01b039283169081179091555f8054919291909116907f38d16b8cac22d99fc7c124b9cd0de2d3fa1faef420bfe791d8c362d765e227009080a3005b5f80fd5b3461018b57604036600319011261018b576101a8610a38565b6024356101b3610bff565b801561021a576001600160a01b03821691821561020b57816101d89130903390610c1d565b6040519081527f5df8b54f38216384ee108b037a3a0e3b7d678f14f3e251d3604ce82b6e1e972560203392a36001600255005b63d92e233d60e01b5f5260045ffd5b631f2a200560e01b5f5260045ffd5b3461018b575f36600319011261018b576001546040516001600160a01b039091168152602090f35b3461018b575f36600319011261018b5760206040516301e133808152f35b3461018b575f36600319011261018b576040517f00000000000000000000000000000000000000000000000000000000000000006001600160a01b03168152602090f35b3461018b575f36600319011261018b575f546040516001600160a01b039091168152602090f35b3461018b575f36600319011261018b57600154336001600160a01b039091160361033957600180546001600160a01b03199081169091555f805433928116831782556001600160a01b0316905f516020610cba5f395f51905f529080a3005b63118cdaa760e01b5f523360045260245ffd5b3461018b575f36600319011261018b57610364610baa565b600180546001600160a01b03199081169091555f80549182168155906001600160a01b03165f516020610cba5f395f51905f528280a3005b3461018b57602036600319011261018b57602460206001600160a01b036103c1610a38565b16604051928380926370a0823160e01b82523060048301525afa8015610426575f906103f3575b602090604051908152f35b506020813d60201161041e575b8161040d60209383610a7d565b8101031261018b57602090516103e8565b3d9150610400565b6040513d5f823e3d90fd5b3461018b57606036600319011261018b5761044a610a38565b6024356044356001600160a01b03811680820361018b57610469610bff565b821561021a571561020b576040516370a0823160e01b81523060048201526020816024816001600160a01b0388165afa80156104265783915f916104cd575b50106104be576104b792610bbd565b6001600255005b63bb55fd2760e01b5f5260045ffd5b9150506020813d6020116104fa575b816104e960209383610a7d565b8101031261018b57829051856104a8565b3d91506104dc565b3461018b575f36600319011261018b5760206040516127108152f35b3461018b57602036600319011261018b576001600160a01b0361053f610a38565b165f526003602052608060405f2080549060018101549060ff6003600283015492015416916040519384526020840152604083015215156060820152f35b602036600319011261018b57600435610594610bff565b335f52600360205260405f209060ff600383015416156106965760016105be600284015442610af1565b9201908154926102588402908482046102581485151715610682576105ec64496cebb800916105f493610aa0565b048094610afe565b811061021a576106269030337f0000000000000000000000000000000000000000000000000000000000000000610c1d565b549060405191825260208201527f77c6871227e5d2dec8dadd5354f78453203e22e669cd0ec4c19d9a8c5edb31d060403392a2335f5260036020525f600360408220828155826001820155826002820155015560016002555f80f35b634e487b7160e01b5f52601160045260245ffd5b63ec8de8e160e01b5f5260045ffd5b3461018b57604036600319011261018b576024356001600160a01b038116906004359082900361018b576106d7610baa565b811561020b57801561021a578047106104be575f80808084865af16106fa610ab3565b501561072d5760207f94b2de810873337ed265c5f8cf98c9cffefa06b8607f9a2f1fbaebdfbcfbef1c91604051908152a2005b6312171d8360e31b5f5260045ffd5b3461018b57602036600319011261018b57606061075f61075a610a38565b610b0b565b9060405192835260208301526040820152f35b3461018b575f36600319011261018b5760206040516123288152f35b3461018b575f36600319011261018b5760206040516102588152f35b3461018b57604036600319011261018b576024356107c6610bff565b335f52600360205260ff600360405f20015416610993576040516370a0823160e01b81523060048201526020816024817f00000000000000000000000000000000000000000000000000000000000000006001600160a01b03165afa908115610426575f91610961575b5080156109525761084990620f42406004359104610aa0565b612328810290808204612328149015171561068257612710900490811561095257670de0b6b3a76400008202828104670de0b6b3a76400000361068257811561093e570490811561021a578147106104be576040516108a781610a4e565b8281526003602082019183835260408101428152606082019360018552335f528360205260405f2092518355516001830155516002820155019051151560ff801983541691161790555f80808085335af1610900610ab3565b501561072d5760405191825260208201527fe1979fe4c35e0cef342fef5668e2c8e7a7e9f5d5d1ca8fee0ac6c427fa4153af60403392a26001600255005b634e487b7160e01b5f52601260045260245ffd5b638dc8d9b360e01b5f5260045ffd5b90506020813d60201161098b575b8161097c60209383610a7d565b8101031261018b575182610830565b3d915061096f565b630b33b07560e11b5f5260045ffd5b3461018b57604036600319011261018b576024356001600160a01b038116906004359082810361018b576109d4610baa565b821561020b57811561021a5781610a2f7fc30fcfbcaac9e0deffa719714eaa82396ff506a0d0d0eebe170830177288715d936020937f0000000000000000000000000000000000000000000000000000000000000000610bbd565b604051908152a2005b600435906001600160a01b038216820361018b57565b608081019081106001600160401b03821117610a6957604052565b634e487b7160e01b5f52604160045260245ffd5b601f909101601f19168101906001600160401b03821190821017610a6957604052565b8181029291811591840414171561068257565b3d15610aec573d906001600160401b038211610a695760405191610ae1601f8201601f191660200184610a7d565b82523d5f602084013e565b606090565b9190820391821161068257565b9190820180921161068257565b60018060a01b03165f52600360205260405f209060405190610b2c82610a4e565b82548252600183015491602081019083825260ff6003600287015496876040850152015416159060608215910152610b9f57610b69839442610af1565b905190610258820291808304610258149015171561068257610b9464496cebb80091610b9c93610aa0565b048093610afe565b90565b505f92508291508190565b5f546001600160a01b0316330361033957565b60405163a9059cbb60e01b60208201526001600160a01b039092166024830152604480830193909352918152610bfd91610bf8606483610a7d565b610c61565b565b6002805414610c0e5760028055565b633ee5aeb560e01b5f5260045ffd5b6040516323b872dd60e01b60208201526001600160a01b039283166024820152929091166044830152606480830193909352918152610bfd91610bf8608483610a7d565b905f602091828151910182855af115610426575f513d610cb057506001600160a01b0381163b155b610c905750565b635274afe760e01b5f9081526001600160a01b0391909116600452602490fd5b60011415610c8956fe8be0079c531659141344cd1fd0a4f28419497f9722a3daafe3b4186f6b6457e0a164736f6c634300081b000a","linkReferences":{}},"methodIdentifiers":{"ANNUAL_RATE_BPS()":"17aab2bd","BPS_DENOM()":"6637e38c","COLLATERAL_FACTOR()":"17f49e05","YEAR_SECONDS()":"b330db28","acceptOwnership()":"79ba5097","borrow(uint256,uint256)":"0ecbcdab","borrows(address)":"54a5706f","collateralToken()":"b2016bd4","getAvailableBalance(address)":"6c24a76f","getOutstandingDebt(address)":"1ea6cabc","owner()":"8da5cb5b","pendingOwner()":"e30c3978","renounceOwnership()":"715018a6","repay(uint256)":"371fd8e6","supply(address,uint256)":"f2b9fdb8","transferOwnership(address)":"f2fde38b","withdraw(address,uint256,address)":"69328dec","withdrawCollateral(uint256,address)":"0af504cc","withdrawETH(uint256,address)":"36118b52"},"id":4}