{"abi":[{"type":"function","name":"confidentialProtocolId","inputs":[],"outputs":[{"name":"","type":"uint256","internalType":"uint256"}],"stateMutability":"view"},{"type":"function","name":"decrement","inputs":[{"name":"inputEuint32","type":"bytes32","internalType":"externalEuint32"},{"name":"inputProof","type":"bytes","internalType":"bytes"}],"outputs":[],"stateMutability":"nonpayable"},{"type":"function","name":"getCount","inputs":[],"outputs":[{"name":"","type":"bytes32","internalType":"euint32"}],"stateMutability":"view"},{"type":"function","name":"increment","inputs":[{"name":"inputEuint32","type":"bytes32","internalType":"externalEuint32"},{"name":"inputProof","type":"bytes","internalType":"bytes"}],"outputs":[],"stateMutability":"nonpayable"},{"type":"error","name":"ZamaProtocolUnsupported","inputs":[]}],"bytecode":{"object":"0x6080604052346101d257610011610209565b50466001036100ee57610022610209565b5061002b6101d6565b5f81525f60208201525f60408201525b80517f9e7b61f58c47dc699ac88507c4f5bb9f121c03808c5676a8078fe583e464970080546001600160a01b039283166001600160a01b03199182161790915560208301517f9e7b61f58c47dc699ac88507c4f5bb9f121c03808c5676a8078fe583e464970180549184169183169190911790556040928301517f9e7b61f58c47dc699ac88507c4f5bb9f121c03808c5676a8078fe583e464970280549190931691161790555161058190816102248239f35b4662aa36a70361015957610100610209565b506101096101d6565b73f0ffdc93b7e186bc2f8cb3daa75d86d1930a433d81527392c920834ec8941d2c77d188936e1f7a6f49c127602082015273be0e383937d564d7ff0bc3b46c51f0bf8d5c311a604082015261003b565b46617a69036101c35761016a610209565b506101736101d6565b7350157cffd6bbfa2dece204a89ec419c23ef5755d815273e3a9105a3a932253a70f126eb1e3b589c643dd24602082015273901f8942346f7ab3a01f6d7613119bca447bb030604082015261003b565b6373cac13b60e01b5f5260045ffd5b5f80fd5b60405190606082016001600160401b038111838210176101f557604052565b634e487b7160e01b5f52604160045260245ffd5b6102116101d6565b905f82525f60208301525f604083015256fe60806040526004361015610011575f80fd5b5f3560e01c80635941195d146101885780638927b03014610166578063a87d942c1461014a5763e055f8f914610045575f80fd5b34610111576100696100636100593661022b565b92919236916102b4565b906102f9565b5f549080821561013a575b15610128575b602090606460018060a01b035f5160206105355f395f51905f525416935f60405195869485936303056db360e31b8552600485015260248401528160448401525af1801561011d575f906100e5575b806100d7915f5530906104d4565b6100e35f5433906104d4565b005b506020813d602011610115575b816100ff6020938361027d565b81010312610111576100d790516100c9565b5f80fd5b3d91506100f2565b6040513d5f823e3d90fd5b506020610133610453565b905061007a565b9150610144610453565b91610074565b34610111575f3660031901126101115760205f54604051908152f35b34610111575f36600319011261011157602061018061040b565b604051908152f35b346101115761019c6100636100593661022b565b5f549080821561021b575b15610209575b602090606460018060a01b035f5160206105355f395f51905f525416935f604051958694859363022f65e760e31b8552600485015260248401528160448401525af1801561011d575f906100e557806100d7915f5530906104d4565b506020610214610453565b90506101ad565b9150610225610453565b916101a7565b604060031982011261011157600435916024356001600160401b0381116101115782602382011215610111576004810135926001600160401b0384116101115760248483010111610111576024019190565b601f909101601f19168101906001600160401b038211908210176102a057604052565b634e487b7160e01b5f52604160045260245ffd5b9192916001600160401b0382116102a057604051916102dd601f8201601f19166020018461027d565b829481845281830111610111578281602093845f960137010152565b602091829160018060a01b035f5160206105355f395f51905f525416905f60a460405180978196829563045fc19560e11b84526004840152336024840152608060448401528051918291826084860152018484015e818101830184905260046064830152601f01601f191681010301925af190811561011d575f916103d9575b505f5160206105555f395f51905f52546001600160a01b0316803b15610111575f6040518092630f8e573b60e21b82528183816103ba33896004840161043a565b03925af1801561011d576103cc575090565b5f6103d69161027d565b90565b90506020813d602011610403575b816103f46020938361027d565b8101031261011157515f610379565b3d91506103e7565b4660010361041857600190565b4662aa36a7036104285761271190565b617a694614610435575f90565b5f1990565b9081526001600160a01b03909116602082015260400190565b5f5160206105355f395f51905f5254604051639cd07acb60e01b81525f600480830182905260248301529091602091839160449183916001600160a01b03165af190811561011d575f916104a5575090565b90506020813d6020116104cc575b816104c06020938361027d565b81010312610111575190565b3d91506104b3565b5f5160206105555f395f51905f52546001600160a01b031691823b1561011157610517925f9283604051809681958294635ca4b5b160e11b84526004840161043a565b03925af1801561011d576105285750565b5f6105329161027d565b56fe9e7b61f58c47dc699ac88507c4f5bb9f121c03808c5676a8078fe583e46497019e7b61f58c47dc699ac88507c4f5bb9f121c03808c5676a8078fe583e4649700a164736f6c634300081b000a","linkReferences":{}},"methodIdentifiers":{"confidentialProtocolId()":"8927b030","decrement(bytes32,bytes)":"e055f8f9","getCount()":"a87d942c","increment(bytes32,bytes)":"5941195d"},"id":2}