{"abi":[{"type":"constructor","inputs":[{"name":"_validTimePeriod","type":"uint64","internalType":"uint64"},{"name":"_singleUpdateFeeInWei","type":"uint256","internalType":"uint256"}],"stateMutability":"nonpayable"},{"type":"function","name":"createPriceFeedUpdateData","inputs":[{"name":"id","type":"bytes32","internalType":"bytes32"},{"name":"price","type":"int64","internalType":"int64"},{"name":"conf","type":"uint64","internalType":"uint64"},{"name":"expo","type":"int32","internalType":"int32"},{"name":"emaPrice","type":"int64","internalType":"int64"},{"name":"emaConf","type":"uint64","internalType":"uint64"},{"name":"publishTime","type":"uint64","internalType":"uint64"},{"name":"prevPublishTime","type":"uint64","internalType":"uint64"}],"outputs":[{"name":"priceFeedData","type":"bytes","internalType":"bytes"}],"stateMutability":"pure"},{"type":"function","name":"createTwapPriceFeedUpdateData","inputs":[{"name":"id","type":"bytes32","internalType":"bytes32"},{"name":"startTime","type":"uint64","internalType":"uint64"},{"name":"endTime","type":"uint64","internalType":"uint64"},{"name":"price","type":"int64","internalType":"int64"},{"name":"conf","type":"uint64","internalType":"uint64"},{"name":"expo","type":"int32","internalType":"int32"},{"name":"downSlotsRatio","type":"uint32","internalType":"uint32"}],"outputs":[{"name":"twapData","type":"bytes","internalType":"bytes"}],"stateMutability":"pure"},{"type":"function","name":"getEmaPrice","inputs":[{"name":"id","type":"bytes32","internalType":"bytes32"}],"outputs":[{"name":"price","type":"tuple","internalType":"struct PythStructs.Price","components":[{"name":"price","type":"int64","internalType":"int64"},{"name":"conf","type":"uint64","internalType":"uint64"},{"name":"expo","type":"int32","internalType":"int32"},{"name":"publishTime","type":"uint256","internalType":"uint256"}]}],"stateMutability":"view"},{"type":"function","name":"getEmaPriceNoOlderThan","inputs":[{"name":"id","type":"bytes32","internalType":"bytes32"},{"name":"age","type":"uint256","internalType":"uint256"}],"outputs":[{"name":"price","type":"tuple","internalType":"struct PythStructs.Price","components":[{"name":"price","type":"int64","internalType":"int64"},{"name":"conf","type":"uint64","internalType":"uint64"},{"name":"expo","type":"int32","internalType":"int32"},{"name":"publishTime","type":"uint256","internalType":"uint256"}]}],"stateMutability":"view"},{"type":"function","name":"getEmaPriceUnsafe","inputs":[{"name":"id","type":"bytes32","internalType":"bytes32"}],"outputs":[{"name":"price","type":"tuple","internalType":"struct PythStructs.Price","components":[{"name":"price","type":"int64","internalType":"int64"},{"name":"conf","type":"uint64","internalType":"uint64"},{"name":"expo","type":"int32","internalType":"int32"},{"name":"publishTime","type":"uint256","internalType":"uint256"}]}],"stateMutability":"view"},{"type":"function","name":"getPrice","inputs":[{"name":"id","type":"bytes32","internalType":"bytes32"}],"outputs":[{"name":"price","type":"tuple","internalType":"struct PythStructs.Price","components":[{"name":"price","type":"int64","internalType":"int64"},{"name":"conf","type":"uint64","internalType":"uint64"},{"name":"expo","type":"int32","internalType":"int32"},{"name":"publishTime","type":"uint256","internalType":"uint256"}]}],"stateMutability":"view"},{"type":"function","name":"getPriceNoOlderThan","inputs":[{"name":"id","type":"bytes32","internalType":"bytes32"},{"name":"age","type":"uint256","internalType":"uint256"}],"outputs":[{"name":"price","type":"tuple","internalType":"struct PythStructs.Price","components":[{"name":"price","type":"int64","internalType":"int64"},{"name":"conf","type":"uint64","internalType":"uint64"},{"name":"expo","type":"int32","internalType":"int32"},{"name":"publishTime","type":"uint256","internalType":"uint256"}]}],"stateMutability":"view"},{"type":"function","name":"getPriceUnsafe","inputs":[{"name":"id","type":"bytes32","internalType":"bytes32"}],"outputs":[{"name":"price","type":"tuple","internalType":"struct PythStructs.Price","components":[{"name":"price","type":"int64","internalType":"int64"},{"name":"conf","type":"uint64","internalType":"uint64"},{"name":"expo","type":"int32","internalType":"int32"},{"name":"publishTime","type":"uint256","internalType":"uint256"}]}],"stateMutability":"view"},{"type":"function","name":"getTwapUpdateFee","inputs":[{"name":"updateData","type":"bytes[]","internalType":"bytes[]"}],"outputs":[{"name":"feeAmount","type":"uint256","internalType":"uint256"}],"stateMutability":"view"},{"type":"function","name":"getUpdateFee","inputs":[{"name":"updateData","type":"bytes[]","internalType":"bytes[]"}],"outputs":[{"name":"feeAmount","type":"uint256","internalType":"uint256"}],"stateMutability":"view"},{"type":"function","name":"getValidTimePeriod","inputs":[],"outputs":[{"name":"","type":"uint256","internalType":"uint256"}],"stateMutability":"view"},{"type":"function","name":"parsePriceFeedUpdates","inputs":[{"name":"updateData","type":"bytes[]","internalType":"bytes[]"},{"name":"priceIds","type":"bytes32[]","internalType":"bytes32[]"},{"name":"minPublishTime","type":"uint64","internalType":"uint64"},{"name":"maxPublishTime","type":"uint64","internalType":"uint64"}],"outputs":[{"name":"feeds","type":"tuple[]","internalType":"struct PythStructs.PriceFeed[]","components":[{"name":"id","type":"bytes32","internalType":"bytes32"},{"name":"price","type":"tuple","internalType":"struct PythStructs.Price","components":[{"name":"price","type":"int64","internalType":"int64"},{"name":"conf","type":"uint64","internalType":"uint64"},{"name":"expo","type":"int32","internalType":"int32"},{"name":"publishTime","type":"uint256","internalType":"uint256"}]},{"name":"emaPrice","type":"tuple","internalType":"struct PythStructs.Price","components":[{"name":"price","type":"int64","internalType":"int64"},{"name":"conf","type":"uint64","internalType":"uint64"},{"name":"expo","type":"int32","internalType":"int32"},{"name":"publishTime","type":"uint256","internalType":"uint256"}]}]}],"stateMutability":"payable"},{"type":"function","name":"parsePriceFeedUpdatesUnique","inputs":[{"name":"updateData","type":"bytes[]","internalType":"bytes[]"},{"name":"priceIds","type":"bytes32[]","internalType":"bytes32[]"},{"name":"minPublishTime","type":"uint64","internalType":"uint64"},{"name":"maxPublishTime","type":"uint64","internalType":"uint64"}],"outputs":[{"name":"feeds","type":"tuple[]","internalType":"struct PythStructs.PriceFeed[]","components":[{"name":"id","type":"bytes32","internalType":"bytes32"},{"name":"price","type":"tuple","internalType":"struct PythStructs.Price","components":[{"name":"price","type":"int64","internalType":"int64"},{"name":"conf","type":"uint64","internalType":"uint64"},{"name":"expo","type":"int32","internalType":"int32"},{"name":"publishTime","type":"uint256","internalType":"uint256"}]},{"name":"emaPrice","type":"tuple","internalType":"struct PythStructs.Price","components":[{"name":"price","type":"int64","internalType":"int64"},{"name":"conf","type":"uint64","internalType":"uint64"},{"name":"expo","type":"int32","internalType":"int32"},{"name":"publishTime","type":"uint256","internalType":"uint256"}]}]}],"stateMutability":"payable"},{"type":"function","name":"parsePriceFeedUpdatesWithConfig","inputs":[{"name":"updateData","type":"bytes[]","internalType":"bytes[]"},{"name":"priceIds","type":"bytes32[]","internalType":"bytes32[]"},{"name":"minAllowedPublishTime","type":"uint64","internalType":"uint64"},{"name":"maxAllowedPublishTime","type":"uint64","internalType":"uint64"},{"name":"checkUniqueness","type":"bool","internalType":"bool"},{"name":"checkUpdateDataIsMinimal","type":"bool","internalType":"bool"},{"name":"storeUpdatesIfFresh","type":"bool","internalType":"bool"}],"outputs":[{"name":"feeds","type":"tuple[]","internalType":"struct PythStructs.PriceFeed[]","components":[{"name":"id","type":"bytes32","internalType":"bytes32"},{"name":"price","type":"tuple","internalType":"struct PythStructs.Price","components":[{"name":"price","type":"int64","internalType":"int64"},{"name":"conf","type":"uint64","internalType":"uint64"},{"name":"expo","type":"int32","internalType":"int32"},{"name":"publishTime","type":"uint256","internalType":"uint256"}]},{"name":"emaPrice","type":"tuple","internalType":"struct PythStructs.Price","components":[{"name":"price","type":"int64","internalType":"int64"},{"name":"conf","type":"uint64","internalType":"uint64"},{"name":"expo","type":"int32","internalType":"int32"},{"name":"publishTime","type":"uint256","internalType":"uint256"}]}]},{"name":"slots","type":"uint64[]","internalType":"uint64[]"}],"stateMutability":"payable"},{"type":"function","name":"parseTwapPriceFeedUpdates","inputs":[{"name":"updateData","type":"bytes[]","internalType":"bytes[]"},{"name":"priceIds","type":"bytes32[]","internalType":"bytes32[]"}],"outputs":[{"name":"twapPriceFeeds","type":"tuple[]","internalType":"struct PythStructs.TwapPriceFeed[]","components":[{"name":"id","type":"bytes32","internalType":"bytes32"},{"name":"startTime","type":"uint64","internalType":"uint64"},{"name":"endTime","type":"uint64","internalType":"uint64"},{"name":"twap","type":"tuple","internalType":"struct PythStructs.Price","components":[{"name":"price","type":"int64","internalType":"int64"},{"name":"conf","type":"uint64","internalType":"uint64"},{"name":"expo","type":"int32","internalType":"int32"},{"name":"publishTime","type":"uint256","internalType":"uint256"}]},{"name":"downSlotsRatio","type":"uint32","internalType":"uint32"}]}],"stateMutability":"payable"},{"type":"function","name":"priceFeedExists","inputs":[{"name":"id","type":"bytes32","internalType":"bytes32"}],"outputs":[{"name":"","type":"bool","internalType":"bool"}],"stateMutability":"view"},{"type":"function","name":"queryPriceFeed","inputs":[{"name":"id","type":"bytes32","internalType":"bytes32"}],"outputs":[{"name":"priceFeed","type":"tuple","internalType":"struct PythStructs.PriceFeed","components":[{"name":"id","type":"bytes32","internalType":"bytes32"},{"name":"price","type":"tuple","internalType":"struct PythStructs.Price","components":[{"name":"price","type":"int64","internalType":"int64"},{"name":"conf","type":"uint64","internalType":"uint64"},{"name":"expo","type":"int32","internalType":"int32"},{"name":"publishTime","type":"uint256","internalType":"uint256"}]},{"name":"emaPrice","type":"tuple","internalType":"struct PythStructs.Price","components":[{"name":"price","type":"int64","internalType":"int64"},{"name":"conf","type":"uint64","internalType":"uint64"},{"name":"expo","type":"int32","internalType":"int32"},{"name":"publishTime","type":"uint256","internalType":"uint256"}]}]}],"stateMutability":"view"},{"type":"function","name":"updatePriceFeeds","inputs":[{"name":"updateData","type":"bytes[]","internalType":"bytes[]"}],"outputs":[],"stateMutability":"payable"},{"type":"function","name":"updatePriceFeedsIfNecessary","inputs":[{"name":"updateData","type":"bytes[]","internalType":"bytes[]"},{"name":"priceIds","type":"bytes32[]","internalType":"bytes32[]"},{"name":"publishTimes","type":"uint64[]","internalType":"uint64[]"}],"outputs":[],"stateMutability":"payable"},{"type":"event","name":"PriceFeedUpdate","inputs":[{"name":"id","type":"bytes32","indexed":true,"internalType":"bytes32"},{"name":"publishTime","type":"uint64","indexed":false,"internalType":"uint64"},{"name":"price","type":"int64","indexed":false,"internalType":"int64"},{"name":"conf","type":"uint64","indexed":false,"internalType":"uint64"}],"anonymous":false},{"type":"event","name":"TwapPriceFeedUpdate","inputs":[{"name":"id","type":"bytes32","indexed":true,"internalType":"bytes32"},{"name":"startTime","type":"uint64","indexed":false,"internalType":"uint64"},{"name":"endTime","type":"uint64","indexed":false,"internalType":"uint64"},{"name":"twapPrice","type":"int64","indexed":false,"internalType":"int64"},{"name":"twapConf","type":"uint64","indexed":false,"internalType":"uint64"},{"name":"downSlotsRatio","type":"uint32","indexed":false,"internalType":"uint32"}],"anonymous":false},{"type":"error","name":"InsufficientFee","inputs":[]},{"type":"error","name":"InvalidArgument","inputs":[]},{"type":"error","name":"InvalidTwapUpdateDataSet","inputs":[]},{"type":"error","name":"NoFreshUpdate","inputs":[]},{"type":"error","name":"PriceFeedNotFound","inputs":[]},{"type":"error","name":"PriceFeedNotFoundWithinRange","inputs":[]},{"type":"error","name":"StalePrice","inputs":[]}],"bytecode":{"object":"0x608034606757601f61175138819003918201601f19168301916001600160401b03831184841017606b57808492604094855283398101031260675780516001600160401b0381169190829003606757602001516001556002556040516116d190816100808239f35b5f80fd5b634e487b7160e01b5f52604160045260245ffdfe60806040526004361015610011575f80fd5b5f3560e01c806331d98b3f14610baa5780633a229d181461078e5780634716e9c51461060e5780635f674e35146104fb578063711a2e28146107755780639474f45b1461074c57806396834ad314610714578063a4ae35e0146106fb578063a6445b4b14610613578063accca7f91461060e578063b5dcc911146105d7578063b5ec0261146105a4578063b9256d281461052e578063caaf43f114610500578063d47eed45146104fb578063d9b81c3c146103ed578063e18910a3146103d0578063eb942158146101245763ef9e5e28146100ea575f80fd5b6020366003190112610120576004356001600160401b0381116101205761011861011e913690600401610c06565b90611511565b005b5f80fd5b6040366003190112610120576004356001600160401b0381116101205761014f903690600401610c06565b906024356001600160401b0381116101205761016f903690600401610c06565b92909161017c8282611339565b34106103c25761018b846111d4565b93610199604051958661118d565b808552601f196101a8826111d4565b015f5b8181106103865750505f5b81811061020e57856040518091602082016020835281518091526020604084019201905f5b8181106101e9575050500390f35b9193509160206101008261020060019488516110dc565b0194019101918493926101db565b610219818387611329565b35908415610372578335601e19853603018112156101205784019182356001600160401b03811161012057602084019080360382136101205784016020810191906101009086900312610120576040519061027382611157565b35815261028260408601610c4c565b91602082019283526101006102ad61029c60608901610c4c565b926040850193845260808901611259565b966060840197885201359563ffffffff87168703610120576080830196875284835103610363576001967fd8b7774079faf4ab389d4e48b46d54e2bb8b66dd0de0d718f61730a9f3c9297794610311888f60a09761030b83836112ef565b526112ef565b50888060401b0390511692888060401b03905116915163ffffffff815160070b9160208b8060401b0391015116925116926040519485526020850152604084015260608301526080820152a2016101b6565b630196224b60e41b5f5260045ffd5b634e487b7160e01b5f52603260045260245ffd5b60209060405161039581611157565b5f81525f838201525f60408201526103ab6111b0565b60608201525f608082015282828a010152016101ab565b62976f7560e21b5f5260045ffd5b34610120575f366003190112610120576020600254604051908152f35b3461012057610100366003190112610120576024358060070b80910361012057610415610c36565b6064358060030b809103610120576084358060070b8091036101205760a4356001600160401b03811694908590036101205760c4356001600160401b03811692908390036101205760e4356001600160401b0381169490859003610120576104f79684606080956104846111eb565b996004358b5260208b019182515260208251019060018060401b031690528460408251015251015260408701928351526020835101526040825101525101526104d4604051926020840190610c7e565b61014082015261014081526104eb6101608261118d565b604051918291826110b2565b0390f35b611059565b346101205760203660031901126101205761012061051f6004356114a9565b61052c6040518092610c7e565bf35b6060366003190112610120576004356001600160401b03811161012057610559903690600401610c06565b6024356001600160401b03811161012057610578903690600401610c06565b60443593916001600160401b0385116101205761059c61011e953690600401610c06565b9490936113b7565b346101205760203660031901126101205760206105cd6004355f525f60205260405f2054151590565b6040519015158152f35b34610120576020366003190112610120576105f06111b0565b506080610601600254600435611364565b61052c6040518092610bd4565b610ce7565b346101205760e0366003190112610120576024356001600160401b0381169081900361012057610641610c36565b90606435918260070b809303610120576084356001600160401b03811693908490036101205760a435918260030b8093036101205760c4359263ffffffff8416809403610120576104f7956040519361069985611128565b84526020840152604083015260018060401b0316806060830152604051936106c085611157565b600435855260208501526040840152606083015260808201526106ea6040519160208301906110dc565b61010081526104eb6101208261118d565b3461012057608061060161070e3661109c565b906113a9565b346101205760203660031901126101205761072d6111b0565b506080602061073d6004356114a9565b015161052c6040518092610bd4565b34610120576020366003190112610120576107656111b0565b506080604061073d6004356114a9565b346101205760806106016107883661109c565b90611364565b60e0366003190112610120576004356001600160401b038111610120576107b9903690600401610c06565b906024356001600160401b038111610120576107d9903690600401610c06565b926107e2610c36565b916064359460018060401b038616809603610120576084359485159586158091036101205761080f610c60565b50610818610c6f565b506108238583611339565b34106103c257610832836111d4565b97610840604051998a61118d565b838952601f1961084f856111d4565b015f5b818110610b92575050610864846111d4565b96610872604051988961118d565b84885261087e856111d4565b602089019990601f1901368b375f5b8681106108f2576108b08c8c8c6020604051948594604086526040860190610ca9565b918483038286015251918281520191905f5b8181106108d0575050500390f35b82516001600160401b03168452859450602093840193909201916001016108c2565b5f5b898110610931575b50610907818d6112ef565b515161091482898b611329565b35036109225760010161088d565b6345805f5d60e01b5f5260045ffd5b61093c818b89611218565b8192910161014083820312610120578c8f93808d6109d7888f818f966020610985838e61097a610120839f610973906060986112b1565b9c01610c4c565b9a61030b83836112ef565b5101510151976001600160401b0389169182916109a291906112ef565b526109ad838c6112ef565b51515f525f60205287600260405f20015410610a6b575b506109cf828b6112ef565b515193611329565b35146109ec575b5050505060019150016108f4565b6001600160401b03891683811115939091908b9085610a60575b505083610a39575b5050505f14610a1e5750506108fc565b610a2b5f916001946112ef565b51528d9150828f88816109de565b8893509091610a4d575b5050885f80610a0e565b6001600160401b03161090505f80610a43565b111593508a5f610a06565b610a75838c6112ef565b51610a80848d6112ef565b51515f9081526020818152604091829020835181558382015180516001830180548386015184880151608090811b63ffffffff60801b908116600160401b600160801b03938b1b84166001600160401b039788166001600160a01b0319968716171717909455606095860151600288015598880151805160038801805499830151838c0151909c1b9095169a90991b9091169790931695169490941794909417949094179091559101516004909101555f5160206116a55f395f51905f528b610b4985826112ef565b515192610b896020610b5b88856112ef565b5101515160070b92602080610b778a60018060401b03946112ef565b51015101511660405193849384611303565b0390a25f6109c4565b808b60208093610ba06111eb565b9201015201610852565b3461012057602036600319011261012057610bc36111b0565b5060806106016002546004356113a9565b805160070b82526020808201516001600160401b03169083015260408082015160030b90830152606090810151910152565b9181601f84011215610120578235916001600160401b038311610120576020808501948460051b01011161012057565b604435906001600160401b038216820361012057565b35906001600160401b038216820361012057565b60a43590811515820361012057565b60c43590811515820361012057565b9060a06040610ca79380518452610c9d60208201516020860190610bd4565b0151910190610bd4565b565b90602080835192838152019201905f5b818110610cc65750505090565b909192602061012082610cdc6001948851610c7e565b019401929101610cb9565b6080366003190112610120576004356001600160401b03811161012057610d12903690600401610c06565b906024356001600160401b03811161012057610d32903690600401610c06565b6044356001600160401b03811692919083810361012057506064356001600160401b03811694908581036101205750610d6b8682611339565b34106103c257610d7a826111d4565b94610d88604051968761118d565b828652601f19610d97846111d4565b015f5b818110611042575050610dac836111d4565b90610dba604051928361118d565b838252601f19610dc9856111d4565b013660208401375f5b848110610def57604051602080825281906104f79082018b610ca9565b5f5b898110610e1f575b50610e0481896112ef565b5151610e11828789611329565b350361092257600101610dd2565b610e30818b879b98999a949b611218565b81016101408282031261012057610120610e4d610e5492846112b1565b9201610c4c565b50610e5f8a886112ef565b5260606020610e6e8b896112ef565b51015101516001600160401b03811680610e888c886112ef565b52610e938b896112ef565b51515f525f60205281600260405f20015410610f2d575b50610eb58a886112ef565b5151610ec28b8a8c611329565b3514610ed8575b50949790969594600101610df1565b8381849a99989b9411159182610f22575b505080610f1a575b5f03610df957986001829a5f610f0d858d9a9b9d9c969c6112ef565b5152919a50989798610ec9565b506001610ef1565b11159050835f610ee9565b610f378b896112ef565b51610f428c8a6112ef565b51515f9081526020818152604091829020835181558382015180516001830180548386015184880151608090811b63ffffffff60801b908116600160401b600160801b03938b1b84166001600160401b039788166001600160a01b0319968716171717909455606095860151600288015598880151805160038801805499830151838c0151909c1b9095169a90991b9091169790931695169490941794909417949094179091559101516004909101555f5160206116a55f395f51905f528b61100b818b6112ef565b5151926110398b602080610b778161102388866112ef565b5101515160070b966001600160401b03946112ef565b0390a25f610eaa565b60209061104d6111eb565b82828b01015201610d9a565b34610120576020366003190112610120576004356001600160401b0381116101205761109461108e6020923690600401610c06565b90611339565b604051908152f35b6040906003190112610120576004359060243590565b602060409281835280519182918282860152018484015e5f828201840152601f01601f1916010190565b63ffffffff608060e0928051855260018060401b03602082015116602086015260018060401b03604082015116604086015261112060608201516060870190610bd4565b015116910152565b608081019081106001600160401b0382111761114357604052565b634e487b7160e01b5f52604160045260245ffd5b60a081019081106001600160401b0382111761114357604052565b606081019081106001600160401b0382111761114357604052565b601f909101601f19168101906001600160401b0382119082101761114357604052565b604051906111bd82611128565b5f6060838281528260208201528260408201520152565b6001600160401b0381116111435760051b60200190565b604051906111f882611172565b815f81526112046111b0565b602082015260406112136111b0565b910152565b91908110156103725760051b81013590601e19813603018212156101205701803591906001600160401b038311610120576020018236038113610120579190565b91908260809103126101205760405161127181611128565b809280358060070b810361012057825261128d60208201610c4c565b602083015260408101358060030b8103610120576040830152606090810135910152565b9190610120838203126101205760406112138151926112cf84611172565b60a08496803586526112e48360208301611259565b602087015201611259565b80518210156103725760209160051b010190565b6001600160401b03918216815260079290920b6020830152909116604082015260600190565b91908110156103725760051b0190565b506001548181029181830414901517156113505790565b634e487b7160e01b5f52601160045260245ffd5b6113816040916113726111b0565b5061137b6111b0565b506114a9565b015190611392606083015142611686565b1161139a5790565b630cd5fa0760e11b5f5260045ffd5b6113816020916113726111b0565b9293909385810361145d575f5b8181106113da57636f162bfd60e11b5f5260045ffd5b6113f96113e8828487611329565b355f525f60205260405f2054151590565b15801561141b575b61140d576001016113c4565b50505050610ca79250611511565b506060602061143461142e848689611329565b356114a9565b01510151611443828986611329565b356001600160401b03811691908290036101205710611401565b63a9cb9e0d60e01b5f5260045ffd5b9060405161147981611128565b60606001829480548060070b8552828060401b038160401c16602086015260801c60030b60408501520154910152565b6114b16111eb565b50805f525f60205260405f205415611502575f525f60205260405f206114fa6003604051926114df84611172565b805484526114ef6001820161146c565b60208501520161146c565b604082015290565b630295d7cd60e31b5f5260045ffd5b919061151d8184611339565b34106103c2575f5b8181106115325750509050565b61153d818386611218565b810191906101208184031261012057600192611558916112b1565b80515f525f602052600260405f200154602082019060608251015111611581575b505001611525565b5f5160206116a55f395f51905f529082515f525f60205260405f2061166f84519485835587830193519283519480549560208601968b60401b8c60801b03885160401b1690604088015160801b63ffffffff60801b16928d8060401b0316908d8060a01b031916171717905560046060808601938451600285015560406003850191015190815181548e60401b8f60801b03602085015160401b1690604085015160801b63ffffffff60801b169260018060401b03169060018060a01b03191617171790550151910155878060401b03905116915160070b92878060401b0390511660405193849384611303565b0390a25f80611579565b9190820391821161135057565b8181111561169b579061169891611679565b90565b6116989161167956fed06a6b7f4918494b3719217d1802786c1f5112a6c1d88fe2cfec00b4584f6aeca164736f6c634300081b000a","linkReferences":{}},"methodIdentifiers":{"createPriceFeedUpdateData(bytes32,int64,uint64,int32,int64,uint64,uint64,uint64)":"d9b81c3c","createTwapPriceFeedUpdateData(bytes32,uint64,uint64,int64,uint64,int32,uint32)":"a6445b4b","getEmaPrice(bytes32)":"b5dcc911","getEmaPriceNoOlderThan(bytes32,uint256)":"711a2e28","getEmaPriceUnsafe(bytes32)":"9474f45b","getPrice(bytes32)":"31d98b3f","getPriceNoOlderThan(bytes32,uint256)":"a4ae35e0","getPriceUnsafe(bytes32)":"96834ad3","getTwapUpdateFee(bytes[])":"5f674e35","getUpdateFee(bytes[])":"d47eed45","getValidTimePeriod()":"e18910a3","parsePriceFeedUpdates(bytes[],bytes32[],uint64,uint64)":"4716e9c5","parsePriceFeedUpdatesUnique(bytes[],bytes32[],uint64,uint64)":"accca7f9","parsePriceFeedUpdatesWithConfig(bytes[],bytes32[],uint64,uint64,bool,bool,bool)":"3a229d18","parseTwapPriceFeedUpdates(bytes[],bytes32[])":"eb942158","priceFeedExists(bytes32)":"b5ec0261","queryPriceFeed(bytes32)":"caaf43f1","updatePriceFeeds(bytes[])":"ef9e5e28","updatePriceFeedsIfNecessary(bytes[],bytes32[],uint64[])":"b9256d28"},"id":10}