{"abi":[{"type":"constructor","inputs":[{"name":"_poolManager","type":"address","internalType":"contract IPoolManager"},{"name":"_simpleLending","type":"address","internalType":"address"}],"stateMutability":"nonpayable"},{"type":"receive","stateMutability":"payable"},{"type":"function","name":"BPS_DENOMINATOR","inputs":[],"outputs":[{"name":"","type":"uint256","internalType":"uint256"}],"stateMutability":"view"},{"type":"function","name":"REBALANCE_PERCENTAGE_HIGH","inputs":[],"outputs":[{"name":"","type":"uint256","internalType":"uint256"}],"stateMutability":"view"},{"type":"function","name":"REBALANCE_PERCENTAGE_NORMAL","inputs":[],"outputs":[{"name":"","type":"uint256","internalType":"uint256"}],"stateMutability":"view"},{"type":"function","name":"TICK_LOWER_BOUND_BPS","inputs":[],"outputs":[{"name":"","type":"uint256","internalType":"uint256"}],"stateMutability":"view"},{"type":"function","name":"TICK_UPPER_BOUND_BPS","inputs":[],"outputs":[{"name":"","type":"uint256","internalType":"uint256"}],"stateMutability":"view"},{"type":"function","name":"acceptOwnership","inputs":[],"outputs":[],"stateMutability":"nonpayable"},{"type":"function","name":"executeRebalance","inputs":[{"name":"key","type":"tuple","internalType":"struct PoolKey","components":[{"name":"currency0","type":"address","internalType":"Currency"},{"name":"currency1","type":"address","internalType":"Currency"},{"name":"fee","type":"uint24","internalType":"uint24"},{"name":"tickSpacing","type":"int24","internalType":"int24"},{"name":"hooks","type":"address","internalType":"contract IHooks"}]},{"name":"poolId","type":"bytes32","internalType":"PoolId"},{"name":"","type":"uint256","internalType":"uint256"}],"outputs":[],"stateMutability":"nonpayable"},{"type":"function","name":"hook","inputs":[],"outputs":[{"name":"","type":"address","internalType":"address"}],"stateMutability":"view"},{"type":"function","name":"owner","inputs":[],"outputs":[{"name":"","type":"address","internalType":"address"}],"stateMutability":"view"},{"type":"function","name":"pendingOwner","inputs":[],"outputs":[{"name":"","type":"address","internalType":"address"}],"stateMutability":"view"},{"type":"function","name":"poolManager","inputs":[],"outputs":[{"name":"","type":"address","internalType":"contract IPoolManager"}],"stateMutability":"view"},{"type":"function","name":"renounceOwnership","inputs":[],"outputs":[],"stateMutability":"nonpayable"},{"type":"function","name":"setHook","inputs":[{"name":"_hook","type":"address","internalType":"address"}],"outputs":[],"stateMutability":"nonpayable"},{"type":"function","name":"simpleLending","inputs":[],"outputs":[{"name":"","type":"address","internalType":"contract ISimpleLending"}],"stateMutability":"view"},{"type":"function","name":"transferOwnership","inputs":[{"name":"newOwner","type":"address","internalType":"address"}],"outputs":[],"stateMutability":"nonpayable"},{"type":"event","name":"OwnershipTransferStarted","inputs":[{"name":"previousOwner","type":"address","indexed":true,"internalType":"address"},{"name":"newOwner","type":"address","indexed":true,"internalType":"address"}],"anonymous":false},{"type":"event","name":"OwnershipTransferred","inputs":[{"name":"previousOwner","type":"address","indexed":true,"internalType":"address"},{"name":"newOwner","type":"address","indexed":true,"internalType":"address"}],"anonymous":false},{"type":"event","name":"PoolStateRetrieved","inputs":[{"name":"sqrtPriceX96","type":"uint160","indexed":false,"internalType":"uint160"},{"name":"tick","type":"int24","indexed":false,"internalType":"int24"},{"name":"lpFee","type":"uint24","indexed":false,"internalType":"uint24"}],"anonymous":false},{"type":"event","name":"RebalanceExecuted","inputs":[{"name":"poolId","type":"bytes32","indexed":true,"internalType":"PoolId"},{"name":"action","type":"string","indexed":false,"internalType":"string"},{"name":"amount","type":"uint256","indexed":false,"internalType":"uint256"}],"anonymous":false},{"type":"error","name":"OnlyHook","inputs":[]},{"type":"error","name":"OwnableInvalidOwner","inputs":[{"name":"owner","type":"address","internalType":"address"}]},{"type":"error","name":"OwnableUnauthorizedAccount","inputs":[{"name":"account","type":"address","internalType":"address"}]},{"type":"error","name":"SafeERC20FailedOperation","inputs":[{"name":"token","type":"address","internalType":"address"}]}],"bytecode":{"object":"0x60c03461010557601f610d2d38819003918201601f19168301916001600160401b03831184841017610109578084926040948552833981010312610105578051906001600160a01b038216820361010557602001516001600160a01b038116908190036101055733156100f257600180546001600160a01b03199081169091555f805433928116831782556040519492916001600160a01b03909116907f8be0079c531659141344cd1fd0a4f28419497f9722a3daafe3b4186f6b6457e09080a360805260a052610c0f908161011e82396080518181816101bb01526103cd015260a05181818161034e01526104df0152f35b631e4fbdf760e01b5f525f60045260245ffd5b5f80fd5b634e487b7160e01b5f52604160045260245ffdfe608080604052600436101561001c575b50361561001a575f80fd5b005b5f905f3560e01c9081633b79f58714610abb575080633dfd387314610a77578063563a04eb1461037d5780636b3bf9cf14610338578063715018a6146102e657806379ba5097146102745780637f5a7c7b1461024b5780638da5cb5b14610224578063925bfbb514610207578063b116a6a2146101ea578063dc4c90d3146101a5578063e1a4521814610188578063e30c39781461015f578063f2fde38b146100e85763ff9cf5300361000f57346100e557806003193601126100e55760206040516129048152f35b80fd5b50346100e55760203660031901126100e5576004356001600160a01b0381169081900361015b57610117610b76565b600180546001600160a01b0319168217905581546001600160a01b03167f38d16b8cac22d99fc7c124b9cd0de2d3fa1faef420bfe791d8c362d765e227008380a380f35b5080fd5b50346100e557806003193601126100e5576001546040516001600160a01b039091168152602090f35b50346100e557806003193601126100e55760206040516127108152f35b50346100e557806003193601126100e5576040517f00000000000000000000000000000000000000000000000000000000000000006001600160a01b03168152602090f35b50346100e557806003193601126100e557602060405161251c8152f35b50346100e557806003193601126100e55760206040516109c48152f35b50346100e557806003193601126100e557546040516001600160a01b039091168152602090f35b50346100e557806003193601126100e5576002546040516001600160a01b039091168152602090f35b50346100e557806003193601126100e557600154336001600160a01b03909116036102d357600180546001600160a01b0319908116909155815433918116821783556001600160a01b03165f516020610be35f395f51905f528380a380f35b63118cdaa760e01b815233600452602490fd5b50346100e557806003193601126100e5576102ff610b76565b600180546001600160a01b03199081169091558154908116825581906001600160a01b03165f516020610be35f395f51905f528280a380f35b50346100e557806003193601126100e5576040517f00000000000000000000000000000000000000000000000000000000000000006001600160a01b03168152602090f35b503461093c57366003190160e0811261093c5760a01361093c5760025460a435906001600160a01b03163303610a68576103b681610b9c565b604051631e2eaeaf60e01b815260048101919091527f00000000000000000000000000000000000000000000000000000000000000006001600160a01b031690602081602481855afa908115610931575f91610a36575b5060d081901c62ffffff169160a082901c60020b916001600160a01b031661043485610b9c565b600381018091116106b957602090602460405180958193631e2eaeaf60e01b835260048301525afa801561093157610a03575b6104a891507f7f6c9d89c2aa1bedfa86601108a63aae0aa98a76c51be033745b959b6d9369546060604051838152856020820152866040820152a180610b2b565b670de0b6b3a7640000810290808204670de0b6b3a764000014901517156106b957604051632c805af560e21b815260c09190911c917f00000000000000000000000000000000000000000000000000000000000000006001600160a01b03169190602082600481865afa918215610931576024926020915f916109e6575b506040516370a0823160e01b81526004810186905293849182906001600160a01b03165afa918215610931575f926109b2575b5082319161251c82029180159281810461251c148417156106b95761271090049261290482029182046129041417156106b9576127109004906105a561059f8589610b5c565b87610b2b565b6105af8289610b5c565b91828211156107be5750906105c391610b69565b91851015806107b4575b156106cd57506101f4908181029181830414901517156106b95786936127106105f69204610b3e565b938085116106b1575b508084116106a9575b5082610616575b5050505080f35b803b1561015b57818391602460405180948193631b8fec7360e11b83528160048401525af1801561069e57610685575b505060805f516020610bc35f395f51905f529160405190604082526005604083015264524550415960d81b60608301526020820152a25f80828161060f565b8161068f91610ad5565b61069a57825f610646565b8280fd5b6040513d84823e3d90fd5b92505f610608565b93505f6105ff565b634e487b7160e01b5f52601160045260245ffd5b84116106dd575b50505050505080f35b6109c4908181029181830414901517156106b95786936127106107009204610b3e565b938085116107ac575b508084116107a4575b5082610720575b80806106d4565b803b1561015b57818391602460405180948193631b8fec7360e11b83528160048401525af1801561069e5761078f575b505060805f516020610bc35f395f51905f529160405190604082526005604083015264524550415960d81b60608301526020820152a25f808281610719565b8161079991610ad5565b61069a57825f610750565b92505f610712565b93505f610709565b50808511156105cd565b94508092508193919695961190816109a8575b506107e1575b5050505050505080f35b6107ea91610b69565b6109c48102908082046109c414901517156106b9576127109004938085116109a0575b50808411610998575b5082610825575b8080806107d7565b604051632c805af560e21b8152602081600481865afa908115610931575f91610969575b5060205f6040518281019063a9059cbb60e01b825286602482015287604482015260448152610879606482610ad5565b519082855af115610931575f513d61096057506001600160a01b0381163b155b6109405750813b1561093c575f91604483926040519485938492630ecbcdab60e01b845266038d7ea4c68000600485015260248401525af180156109315761091b575b5060805f516020610bc35f395f51905f529160405190604082526006604083015265424f52524f5760d01b60608301526020820152a25f80808061081d565b6109289193505f90610ad5565b5f9160806108dc565b6040513d5f823e3d90fd5b5f80fd5b635274afe760e01b5f9081526001600160a01b0391909116600452602490fd5b60011415610899565b61098b915060203d602011610991575b6109838183610ad5565b810190610b0c565b5f610849565b503d610979565b92505f610816565b93505f61080d565b905084105f6107d1565b9091506020813d6020116109de575b816109ce60209383610ad5565b8101031261093c5751905f610559565b3d91506109c1565b6109fd9150823d8411610991576109838183610ad5565b5f610526565b6020823d602011610a2e575b81610a1c60209383610ad5565b8101031261093c576104a89150610467565b3d9150610a0f565b90506020813d602011610a60575b81610a5160209383610ad5565b8101031261093c57515f61040d565b3d9150610a44565b635a91834f60e01b5f5260045ffd5b3461093c57602036600319011261093c576004356001600160a01b0381169081900361093c57610aa5610b76565b600280546001600160a01b031916919091179055005b3461093c575f36600319011261093c57806101f460209252f35b601f909101601f19168101906001600160401b03821190821017610af857604052565b634e487b7160e01b5f52604160045260245ffd5b9081602091031261093c57516001600160a01b038116810361093c5790565b818102929181159184041417156106b957565b8115610b48570490565b634e487b7160e01b5f52601260045260245ffd5b919082018092116106b957565b919082039182116106b957565b5f546001600160a01b03163303610b8957565b63118cdaa760e01b5f523360045260245ffd5b604051602081019182526006604082015260408152610bbc606082610ad5565b5190209056feb8251aa2e3ff6200accd59a1c4235f403a7f0687285fa5e3abe3795011fa7dfd8be0079c531659141344cd1fd0a4f28419497f9722a3daafe3b4186f6b6457e0a164736f6c634300081b000a","linkReferences":{}},"methodIdentifiers":{"BPS_DENOMINATOR()":"e1a45218","REBALANCE_PERCENTAGE_HIGH()":"925bfbb5","REBALANCE_PERCENTAGE_NORMAL()":"3b79f587","TICK_LOWER_BOUND_BPS()":"b116a6a2","TICK_UPPER_BOUND_BPS()":"ff9cf530","acceptOwnership()":"79ba5097","executeRebalance((address,address,uint24,int24,address),bytes32,uint256)":"563a04eb","hook()":"7f5a7c7b","owner()":"8da5cb5b","pendingOwner()":"e30c3978","poolManager()":"dc4c90d3","renounceOwnership()":"715018a6","setHook(address)":"3dfd3873","simpleLending()":"6b3bf9cf","transferOwnership(address)":"f2fde38b"},"id":1}