{"abi":[{"type":"constructor","inputs":[{"name":"_manager","type":"address","internalType":"contract IPoolManager"}],"stateMutability":"nonpayable"},{"type":"function","name":"manager","inputs":[],"outputs":[{"name":"","type":"address","internalType":"contract IPoolManager"}],"stateMutability":"view"},{"type":"function","name":"swap","inputs":[{"name":"key","type":"tuple","internalType":"struct PoolKey","components":[{"name":"currency0","type":"address","internalType":"Currency"},{"name":"currency1","type":"address","internalType":"Currency"},{"name":"fee","type":"uint24","internalType":"uint24"},{"name":"tickSpacing","type":"int24","internalType":"int24"},{"name":"hooks","type":"address","internalType":"contract IHooks"}]},{"name":"params","type":"tuple","internalType":"struct SwapParams","components":[{"name":"zeroForOne","type":"bool","internalType":"bool"},{"name":"amountSpecified","type":"int256","internalType":"int256"},{"name":"sqrtPriceLimitX96","type":"uint160","internalType":"uint160"}]},{"name":"testSettings","type":"tuple","internalType":"struct PoolSwapTest.TestSettings","components":[{"name":"takeClaims","type":"bool","internalType":"bool"},{"name":"settleUsingBurn","type":"bool","internalType":"bool"}]},{"name":"hookData","type":"bytes","internalType":"bytes"}],"outputs":[{"name":"delta","type":"int256","internalType":"BalanceDelta"}],"stateMutability":"payable"},{"type":"function","name":"unlockCallback","inputs":[{"name":"rawData","type":"bytes","internalType":"bytes"}],"outputs":[{"name":"","type":"bytes","internalType":"bytes"}],"stateMutability":"nonpayable"},{"type":"error","name":"NoSwapOccurred","inputs":[]}],"bytecode":{"object":"0x60a03461007e57601f6113e238819003918201601f19168301916001600160401b038311848410176100825780849260209460405283398101031261007e57516001600160a01b038116810361007e5760805260405161134b90816100978239608051818181608b0152818161086901528181610a940152610e730152f35b5f80fd5b634e487b7160e01b5f52604160045260245ffdfe60806040526004361015610011575f80fd5b5f3560e01c80632229d0b414610898578063481c6a7514610854576391dd73461461003a575f80fd5b346107b35760203660031901126107b3576004356001600160401b0381116107b357366023820112156107b35760048101356001600160401b0381116107b35781019060248201913683116107b3577f0000000000000000000000000000000000000000000000000000000000000000926001600160a01b03841692338490036107b3576020818403126107b3576024810135906001600160401b0382116107b3570190610180828403126107b357604051916100f683610bdc565b61010260248201610c64565b83526040601f1982860301126107b3576040519061011f82610c26565b61012b60448201610c78565b825261013960648201610c78565b60208301526020840191825260a060246083198388030101126107b3576040519461016386610bdc565b61016f60848301610c64565b865261017d60a48301610c64565b602087015260c482013562ffffff811681036107b357604087015260e48201358060020b81036107b35760608701526101048201356001600160a01b03811681036107b35760808701526040850195865260609082900360ff1901126107b357604051926101ea84610c0b565b6101f76101248301610c78565b845261014482013560208501526101648201356001600160a01b03811681036107b357604085015260608501938452610184820135916001600160401b0383116107b3576102489201602401610ca0565b60808401908152845151845191969161026f9130916001600160a01b039081169116610e64565b8751602001518751919350610293925030916001600160a01b039081169116610e64565b9291505061080f576107ca576102db956020916102d15f88516102ef885195516040519c8d9788968795633cf3645360e21b87526004870190610d0a565b60a4850190610d4d565b610120610104840152610124830190610ce6565b03925af19485156107bf575f95610787575b50835151835161031f9130916001600160a01b039081169116610e64565b865160200151865191999350610344925030916001600160a01b039081169116610e64565b85518051919693509150156105f357505f602082510151125f1461053057516020015187126104db5761037e878760801d600f0b14610d80565b5f8312610493576103d9965b5f811261046f575b5f8412610438575b5f811361040c575b505f83136103dd575b8686604051906020820152602081526103c5604082610c41565b604051918291602083526020830190610ce6565b0390f35b935160200151925190515161040294901515936001600160a01b03928316921661118c565b5f808080806103ab565b8551518551845151610432939015159290916001600160a01b039081169186911661118c565b5f6103a2565b855160200151855161046a916001600160a01b03908116911661045a87610e40565b9085602088510151151593610f52565b61039a565b855151855161048e916001600160a01b03908116911661045a84610e40565b610392565b60405162461bcd60e51b815260206004820152602d60248201525f5160206112bf5f395f51905f5260448201526c06f7220657175616c20746f203609c1b6064820152608490fd5b60405162461bcd60e51b815260206004820152604760248201525f5160206112df5f395f51905f5260448201525f5160206112ff5f395f51905f526064820152661958da599a595960ca1b608482015260a490fd5b5f88136105ab576020906105488589600f0b14610de0565b510151831361055a576103d99661038a565b60a460405162461bcd60e51b815260206004820152604460248201525f51602061131f5f395f51905f5260448201525f51602061127f5f395f51905f52606482015263199a595960e21b6084820152fd5b60405162461bcd60e51b815260206004820152602d60248201525f51602061129f5f395f51905f5260448201526c657175616c20746f207a65726f60981b6064820152608490fd5b602001515f13156106c4575160200151831261066f576106178387600f0b14610de0565b5f8712610627576103d99661038a565b60405162461bcd60e51b815260206004820152602d60248201525f5160206112df5f395f51905f5260448201526c06f7220657175616c20746f203609c1b6064820152608490fd5b60405162461bcd60e51b815260206004820152604760248201525f5160206112bf5f395f51905f5260448201525f5160206112ff5f395f51905f526064820152661958da599a595960ca1b608482015260a490fd5b5f8413610742576020906106df898960801d600f0b14610d80565b51015187136106f1576103d99661038a565b60a460405162461bcd60e51b815260206004820152604460248201525f51602061129f5f395f51905f5260448201525f51602061127f5f395f51905f52606482015263199a595960e21b6084820152fd5b60405162461bcd60e51b815260206004820152602a60248201525f51602061131f5f395f51905f526044820152690657175616c20746f20360b41b6064820152608490fd5b9094506020813d6020116107b7575b816107a360209383610c41565b810103126107b35751935f610301565b5f80fd5b3d9150610796565b6040513d5f823e3d90fd5b60405162461bcd60e51b815260206004820152601e60248201527f64656c74614265666f726531206973206e6f7420657175616c20746f203000006044820152606490fd5b60405162461bcd60e51b815260206004820152601e60248201527f64656c74614265666f726530206973206e6f7420657175616c20746f203000006044820152606490fd5b346107b3575f3660031901126107b3576040517f00000000000000000000000000000000000000000000000000000000000000006001600160a01b03168152602090f35b366003190161016081126107b35760a0136107b3576040516108b981610bdc565b6004356001600160a01b03811681036107b35781526024356001600160a01b03811681036107b357602082015260443562ffffff811681036107b35760408201526064358060020b81036107b35760608201526084356001600160a01b03811681036107b357608082015260603660a31901126107b35760405161093c81610c0b565b60a43580151581036107b357815260c435602082015260e4356001600160a01b03811681036107b35760408201526040610103193601126107b35760405161098381610c26565b6101043580151581036107b35781526101243580151581036107b357602082015261014435916001600160401b0383116107b357610a8f93610a5f610a6d92610a4a6109d45f973690600401610ca0565b91610a3e604051956109e587610bdc565b338752602087019889526040870190815260608701928352608087019485526020604051998a9882808b015260018060a01b0390511660408a0152518051151560608a01520151151560808801525160a0870190610d0a565b51610140850190610d4d565b516101806101a08401526101c0830190610ce6565b03601f198101835282610c41565b604051809381926348c8949160e01b8352602060048401526024830190610ce6565b0381837f00000000000000000000000000000000000000000000000000000000000000006001600160a01b03165af19081156107bf575f91610b63575b50602081519181808201938492010103126107b357514780610af4575b602082604051908152f35b5f80808093335af115610b075781610ae9565b601f19601f3d0116604051906390bfb86560e01b82523360048301525f6024830152608060448301528060a00160648301523d60848301523d5f60a484013e808201600460a482015260c4633d2cec6f60e21b91015260e40190fd5b90503d805f833e610b748183610c41565b8101906020818303126107b3578051906001600160401b0382116107b3570181601f820112156107b357805190610baa82610c85565b92610bb86040519485610c41565b828452602083830101116107b357815f9260208093018386015e8301015281610acc565b60a081019081106001600160401b03821117610bf757604052565b634e487b7160e01b5f52604160045260245ffd5b606081019081106001600160401b03821117610bf757604052565b604081019081106001600160401b03821117610bf757604052565b601f909101601f19168101906001600160401b03821190821017610bf757604052565b35906001600160a01b03821682036107b357565b359081151582036107b357565b6001600160401b038111610bf757601f01601f191660200190565b81601f820112156107b357803590610cb782610c85565b92610cc56040519485610c41565b828452602083830101116107b357815f926020809301838601378301015290565b805180835260209291819084018484015e5f828201840152601f01601f1916010190565b80516001600160a01b03908116835260208083015182169084015260408083015162ffffff169084015260608083015160020b9084015260809182015116910152565b805115158252602080820151908301526040908101516001600160a01b0316910152565b908160209103126107b3575190565b15610d8757565b60405162461bcd60e51b815260206004820152602b60248201527f64656c74612e616d6f756e74302829206973206e6f7420657175616c20746f2060448201526a064656c74614166746572360ac1b6064820152608490fd5b15610de757565b60405162461bcd60e51b815260206004820152602b60248201527f64656c74612e616d6f756e74312829206973206e6f7420657175616c20746f2060448201526a64656c746141667465723160a81b6064820152608490fd5b600160ff1b8114610e50575f0390565b634e487b7160e01b5f52601160045260245ffd5b9290610e709084611231565b927f00000000000000000000000000000000000000000000000000000000000000006001600160a01b031690610ea68282611231565b9360018060a01b03165f5260018060a01b0316602052602060405f2060246040518094819363789add5560e11b835260048301525afa9081156107bf575f91610eed575090565b90506020813d602011610f14575b81610f0860209383610c41565b810103126107b3575190565b3d9150610efb565b908160209103126107b3575180151581036107b35790565b604091949392606082019560018060a01b0316825260208201520152565b9291935f14610fb9576001600160a01b0316803b156107b357604051637a94c56560e11b8152935f938593849286928492610f9c9290916001600160a01b03169060048501610f34565b03925af180156107bf57610fad5750565b5f610fb791610c41565b565b90916001600160a01b0316806110265750604051630476982d60e21b81529250602091839160049183916001600160a01b03165af180156107bf57610ffb5750565b61101c9060203d60201161101f575b6110148183610c41565b810190610d71565b50565b503d61100a565b6001600160a01b0390911691823b156107b357604051632961046560e21b8152600481018390525f9490858160248183895af180156107bf57611177575b506001600160a01b03168430821461111c576020929160649160405195869485936323b872dd60e01b8552600485015288602485015260448401525af18015611111579160209184936110e4575b505b600460405180958193630476982d60e21b83525af19081156110d85750610ffb5750565b604051903d90823e3d90fd5b61110390833d851161110a575b6110fb8183610c41565b810190610f1c565b505f6110b2565b503d6110f1565b6040513d85823e3d90fd5b9290506044602092604051948593849263a9059cbb60e01b845288600485015260248401525af180156111115791602091849361115a575b506110b4565b61117090833d851161110a576110fb8183610c41565b505f611154565b6111849195505f90610c41565b5f935f611064565b9291935f146111d6576001600160a01b0316803b156107b357604051630ab714fb60e11b8152935f938593849286928492610f9c9290916001600160a01b03169060048501610f34565b9092906001600160a01b0316803b156107b357604051630b0d9c0960e01b81526001600160a01b03938416600482015291909216602482015260448101929092525f908290606490829084905af180156107bf57610fad5750565b6001600160a01b03168061124457503190565b6040516370a0823160e01b81526001600160a01b039092166004830152602090829060249082905afa9081156107bf575f91610eed57509056fe657175616c20746f20646174612e706172616d732e616d6f756e74537065636964656c7461416674657230206973206e6f74206c657373207468616e206f722064656c7461416674657231206973206e6f742067726561746572207468616e2064656c7461416674657230206973206e6f742067726561746572207468616e206f7220657175616c20746f20646174612e706172616d732e616d6f756e74537064656c7461416674657231206973206e6f74206c657373207468616e206f7220a164736f6c634300081b000a","linkReferences":{}},"methodIdentifiers":{"manager()":"481c6a75","swap((address,address,uint24,int24,address),(bool,int256,uint160),(bool,bool),bytes)":"2229d0b4","unlockCallback(bytes)":"91dd7346"},"id":84}