{"abi":[{"type":"constructor","inputs":[{"name":"_underlyingToken","type":"address","internalType":"address"},{"name":"_poolId","type":"bytes32","internalType":"bytes32"},{"name":"_hook","type":"address","internalType":"address"},{"name":"_name","type":"string","internalType":"string"},{"name":"_symbol","type":"string","internalType":"string"},{"name":"_tokenURI","type":"string","internalType":"string"}],"stateMutability":"nonpayable"},{"type":"function","name":"acceptOwnership","inputs":[],"outputs":[],"stateMutability":"nonpayable"},{"type":"function","name":"burn","inputs":[{"name":"from","type":"address","internalType":"address"},{"name":"amount","type":"bytes32","internalType":"euint64"}],"outputs":[{"name":"","type":"bytes32","internalType":"euint64"}],"stateMutability":"nonpayable"},{"type":"function","name":"confidentialBalanceOf","inputs":[{"name":"account","type":"address","internalType":"address"}],"outputs":[{"name":"","type":"bytes32","internalType":"euint64"}],"stateMutability":"view"},{"type":"function","name":"confidentialProtocolId","inputs":[],"outputs":[{"name":"","type":"uint256","internalType":"uint256"}],"stateMutability":"view"},{"type":"function","name":"confidentialTotalSupply","inputs":[],"outputs":[{"name":"","type":"bytes32","internalType":"euint64"}],"stateMutability":"view"},{"type":"function","name":"confidentialTransfer","inputs":[{"name":"to","type":"address","internalType":"address"},{"name":"encryptedAmount","type":"bytes32","internalType":"externalEuint64"},{"name":"inputProof","type":"bytes","internalType":"bytes"}],"outputs":[{"name":"","type":"bytes32","internalType":"euint64"}],"stateMutability":"nonpayable"},{"type":"function","name":"confidentialTransfer","inputs":[{"name":"to","type":"address","internalType":"address"},{"name":"amount","type":"bytes32","internalType":"euint64"}],"outputs":[{"name":"","type":"bytes32","internalType":"euint64"}],"stateMutability":"nonpayable"},{"type":"function","name":"confidentialTransferAndCall","inputs":[{"name":"to","type":"address","internalType":"address"},{"name":"amount","type":"bytes32","internalType":"euint64"},{"name":"data","type":"bytes","internalType":"bytes"}],"outputs":[{"name":"transferred","type":"bytes32","internalType":"euint64"}],"stateMutability":"nonpayable"},{"type":"function","name":"confidentialTransferAndCall","inputs":[{"name":"to","type":"address","internalType":"address"},{"name":"encryptedAmount","type":"bytes32","internalType":"externalEuint64"},{"name":"inputProof","type":"bytes","internalType":"bytes"},{"name":"data","type":"bytes","internalType":"bytes"}],"outputs":[{"name":"transferred","type":"bytes32","internalType":"euint64"}],"stateMutability":"nonpayable"},{"type":"function","name":"confidentialTransferFrom","inputs":[{"name":"from","type":"address","internalType":"address"},{"name":"to","type":"address","internalType":"address"},{"name":"encryptedAmount","type":"bytes32","internalType":"externalEuint64"},{"name":"inputProof","type":"bytes","internalType":"bytes"}],"outputs":[{"name":"transferred","type":"bytes32","internalType":"euint64"}],"stateMutability":"nonpayable"},{"type":"function","name":"confidentialTransferFrom","inputs":[{"name":"from","type":"address","internalType":"address"},{"name":"to","type":"address","internalType":"address"},{"name":"amount","type":"bytes32","internalType":"euint64"}],"outputs":[{"name":"transferred","type":"bytes32","internalType":"euint64"}],"stateMutability":"nonpayable"},{"type":"function","name":"confidentialTransferFromAndCall","inputs":[{"name":"from","type":"address","internalType":"address"},{"name":"to","type":"address","internalType":"address"},{"name":"encryptedAmount","type":"bytes32","internalType":"externalEuint64"},{"name":"inputProof","type":"bytes","internalType":"bytes"},{"name":"data","type":"bytes","internalType":"bytes"}],"outputs":[{"name":"transferred","type":"bytes32","internalType":"euint64"}],"stateMutability":"nonpayable"},{"type":"function","name":"confidentialTransferFromAndCall","inputs":[{"name":"from","type":"address","internalType":"address"},{"name":"to","type":"address","internalType":"address"},{"name":"amount","type":"bytes32","internalType":"euint64"},{"name":"data","type":"bytes","internalType":"bytes"}],"outputs":[{"name":"transferred","type":"bytes32","internalType":"euint64"}],"stateMutability":"nonpayable"},{"type":"function","name":"contractURI","inputs":[],"outputs":[{"name":"","type":"string","internalType":"string"}],"stateMutability":"view"},{"type":"function","name":"decimals","inputs":[],"outputs":[{"name":"","type":"uint8","internalType":"uint8"}],"stateMutability":"view"},{"type":"function","name":"discloseEncryptedAmount","inputs":[{"name":"encryptedAmount","type":"bytes32","internalType":"euint64"},{"name":"cleartextAmount","type":"uint64","internalType":"uint64"},{"name":"decryptionProof","type":"bytes","internalType":"bytes"}],"outputs":[],"stateMutability":"nonpayable"},{"type":"function","name":"getTokenInfo","inputs":[],"outputs":[{"name":"_underlying","type":"address","internalType":"address"},{"name":"_poolId","type":"bytes32","internalType":"bytes32"},{"name":"_hook","type":"address","internalType":"address"}],"stateMutability":"view"},{"type":"function","name":"hook","inputs":[],"outputs":[{"name":"","type":"address","internalType":"address"}],"stateMutability":"view"},{"type":"function","name":"hookTransfer","inputs":[{"name":"from","type":"address","internalType":"address"},{"name":"to","type":"address","internalType":"address"},{"name":"amount","type":"bytes32","internalType":"euint64"}],"outputs":[{"name":"","type":"bytes32","internalType":"euint64"}],"stateMutability":"nonpayable"},{"type":"function","name":"isOperator","inputs":[{"name":"holder","type":"address","internalType":"address"},{"name":"spender","type":"address","internalType":"address"}],"outputs":[{"name":"","type":"bool","internalType":"bool"}],"stateMutability":"view"},{"type":"function","name":"mint","inputs":[{"name":"to","type":"address","internalType":"address"},{"name":"amount","type":"bytes32","internalType":"euint64"}],"outputs":[{"name":"","type":"bytes32","internalType":"euint64"}],"stateMutability":"nonpayable"},{"type":"function","name":"name","inputs":[],"outputs":[{"name":"","type":"string","internalType":"string"}],"stateMutability":"view"},{"type":"function","name":"owner","inputs":[],"outputs":[{"name":"","type":"address","internalType":"address"}],"stateMutability":"view"},{"type":"function","name":"pendingOwner","inputs":[],"outputs":[{"name":"","type":"address","internalType":"address"}],"stateMutability":"view"},{"type":"function","name":"poolId","inputs":[],"outputs":[{"name":"","type":"bytes32","internalType":"bytes32"}],"stateMutability":"view"},{"type":"function","name":"renounceOwnership","inputs":[],"outputs":[],"stateMutability":"nonpayable"},{"type":"function","name":"requestDiscloseEncryptedAmount","inputs":[{"name":"encryptedAmount","type":"bytes32","internalType":"euint64"}],"outputs":[],"stateMutability":"nonpayable"},{"type":"function","name":"setOperator","inputs":[{"name":"operator","type":"address","internalType":"address"},{"name":"until","type":"uint48","internalType":"uint48"}],"outputs":[],"stateMutability":"nonpayable"},{"type":"function","name":"supportsInterface","inputs":[{"name":"interfaceId","type":"bytes4","internalType":"bytes4"}],"outputs":[{"name":"","type":"bool","internalType":"bool"}],"stateMutability":"view"},{"type":"function","name":"symbol","inputs":[],"outputs":[{"name":"","type":"string","internalType":"string"}],"stateMutability":"view"},{"type":"function","name":"transferOwnership","inputs":[{"name":"newOwner","type":"address","internalType":"address"}],"outputs":[],"stateMutability":"nonpayable"},{"type":"function","name":"underlyingToken","inputs":[],"outputs":[{"name":"","type":"address","internalType":"address"}],"stateMutability":"view"},{"type":"function","name":"updateHook","inputs":[{"name":"newHook","type":"address","internalType":"address"}],"outputs":[],"stateMutability":"nonpayable"},{"type":"event","name":"AmountDiscloseRequested","inputs":[{"name":"encryptedAmount","type":"bytes32","indexed":true,"internalType":"euint64"},{"name":"requester","type":"address","indexed":true,"internalType":"address"}],"anonymous":false},{"type":"event","name":"AmountDisclosed","inputs":[{"name":"encryptedAmount","type":"bytes32","indexed":true,"internalType":"euint64"},{"name":"amount","type":"uint64","indexed":false,"internalType":"uint64"}],"anonymous":false},{"type":"event","name":"ConfidentialTransfer","inputs":[{"name":"from","type":"address","indexed":true,"internalType":"address"},{"name":"to","type":"address","indexed":true,"internalType":"address"},{"name":"amount","type":"bytes32","indexed":true,"internalType":"euint64"}],"anonymous":false},{"type":"event","name":"HookUpdated","inputs":[{"name":"oldHook","type":"address","indexed":true,"internalType":"address"},{"name":"newHook","type":"address","indexed":true,"internalType":"address"}],"anonymous":false},{"type":"event","name":"OperatorSet","inputs":[{"name":"holder","type":"address","indexed":true,"internalType":"address"},{"name":"operator","type":"address","indexed":true,"internalType":"address"},{"name":"until","type":"uint48","indexed":false,"internalType":"uint48"}],"anonymous":false},{"type":"event","name":"OwnershipTransferStarted","inputs":[{"name":"previousOwner","type":"address","indexed":true,"internalType":"address"},{"name":"newOwner","type":"address","indexed":true,"internalType":"address"}],"anonymous":false},{"type":"event","name":"OwnershipTransferred","inputs":[{"name":"previousOwner","type":"address","indexed":true,"internalType":"address"},{"name":"newOwner","type":"address","indexed":true,"internalType":"address"}],"anonymous":false},{"type":"event","name":"PublicDecryptionVerified","inputs":[{"name":"handlesList","type":"bytes32[]","indexed":false,"internalType":"bytes32[]"},{"name":"abiEncodedCleartexts","type":"bytes","indexed":false,"internalType":"bytes"}],"anonymous":false},{"type":"error","name":"ERC7984InvalidGatewayRequest","inputs":[{"name":"requestId","type":"uint256","internalType":"uint256"}]},{"type":"error","name":"ERC7984InvalidReceiver","inputs":[{"name":"receiver","type":"address","internalType":"address"}]},{"type":"error","name":"ERC7984InvalidSender","inputs":[{"name":"sender","type":"address","internalType":"address"}]},{"type":"error","name":"ERC7984UnauthorizedCaller","inputs":[{"name":"caller","type":"address","internalType":"address"}]},{"type":"error","name":"ERC7984UnauthorizedSpender","inputs":[{"name":"holder","type":"address","internalType":"address"},{"name":"spender","type":"address","internalType":"address"}]},{"type":"error","name":"ERC7984UnauthorizedUseOfEncryptedAmount","inputs":[{"name":"amount","type":"bytes32","internalType":"euint64"},{"name":"user","type":"address","internalType":"address"}]},{"type":"error","name":"ERC7984ZeroBalance","inputs":[{"name":"holder","type":"address","internalType":"address"}]},{"type":"error","name":"InvalidHook","inputs":[]},{"type":"error","name":"InvalidKMSSignatures","inputs":[]},{"type":"error","name":"OnlyHook","inputs":[]},{"type":"error","name":"OwnableInvalidOwner","inputs":[{"name":"owner","type":"address","internalType":"address"}]},{"type":"error","name":"OwnableUnauthorizedAccount","inputs":[{"name":"account","type":"address","internalType":"address"}]},{"type":"error","name":"ZamaProtocolUnsupported","inputs":[]},{"type":"error","name":"ZeroAddress","inputs":[]}],"bytecode":{"object":"0x60c060405234610730576126a88038038061001981610753565b928339810160c0828203126107305761003182610778565b602083015161004260408501610778565b60608501519093906001600160401b038111610730578161006491870161078c565b60808601519095906001600160401b038111610730578261008691830161078c565b60a08201519092906001600160401b038111610730576100a6920161078c565b946100af6107dd565b504660010361064c576100c06107dd565b506100c9610734565b5f81525f60208201525f60408201525b80517f9e7b61f58c47dc699ac88507c4f5bb9f121c03808c5676a8078fe583e464970080546001600160a01b03199081166001600160a01b039384161790915560208301517f9e7b61f58c47dc699ac88507c4f5bb9f121c03808c5676a8078fe583e4649701805483169184169190911790556040909201517f9e7b61f58c47dc699ac88507c4f5bb9f121c03808c5676a8078fe583e4649702805490931691161790558051906001600160401b0382116104665760035490600182811c92168015610642575b60208310146104485781601f8493116105d4575b50602090601f831160011461056e575f92610563575b50508160011b915f199060031b1c1916176003555b8051906001600160401b0382116104665760045490600182811c92168015610559575b60208310146104485781601f8493116104eb575b50602090601f8311600114610485575f9261047a575b50508160011b915f199060031b1c1916176004555b83516001600160401b03811161046657600554600181811c9116801561045c575b602082101461044857601f8111610402575b50602094601f821160011461039f579481929394955f92610394575b50508160011b915f199060031b1c1916176005555b331561038157600780546001600160a01b0319908116909155600680549182163390811790915560405194916001600160a01b03167f8be0079c531659141344cd1fd0a4f28419497f9722a3daafe3b4186f6b6457e05f80a36001600160a01b03831615610372576001600160a01b03169182156103635760805260a052600880546001600160a01b031916919091179055611eb090816107f882396080518181816109f40152611181015260a051818181610a190152610e970152f35b639c9d882360e01b5f5260045ffd5b63d92e233d60e01b5f5260045ffd5b631e4fbdf760e01b5f525f60045260245ffd5b015190505f80610290565b601f1982169560055f52805f20915f5b8881106103ea575083600195969798106103d2575b505050811b016005556102a5565b01515f1960f88460031b161c191690555f80806103c4565b919260206001819286850151815501940192016103af565b60055f5260205f20601f830160051c8101916020841061043e575b601f0160051c01905b8181106104335750610274565b5f8155600101610426565b909150819061041d565b634e487b7160e01b5f52602260045260245ffd5b90607f1690610262565b634e487b7160e01b5f52604160045260245ffd5b015190505f8061022c565b60045f9081528281209350601f198516905b8181106104d357509084600195949392106104bb575b505050811b01600455610241565b01515f1960f88460031b161c191690555f80806104ad565b92936020600181928786015181550195019301610497565b60045f529091507f8a35acfbc15ff81a39ae7d344fd709f28e8600b4aa8c65c6b64bfe7fe36bd19b601f840160051c8101916020851061054f575b90601f859493920160051c01905b8181106105415750610216565b5f8155849350600101610534565b9091508190610526565b91607f1691610202565b015190505f806101ca565b60035f9081528281209350601f198516905b8181106105bc57509084600195949392106105a4575b505050811b016003556101df565b01515f1960f88460031b161c191690555f8080610596565b92936020600181928786015181550195019301610580565b60035f529091507fc2575a0e9e593c00f959f8c92f12db2869c3395a3b0502d05e2516446f71f85b601f840160051c81019160208510610638575b90601f859493920160051c01905b81811061062a57506101b4565b5f815584935060010161061d565b909150819061060f565b91607f16916101a0565b4662aa36a7036106b75761065e6107dd565b50610667610734565b73f0ffdc93b7e186bc2f8cb3daa75d86d1930a433d81527392c920834ec8941d2c77d188936e1f7a6f49c127602082015273be0e383937d564d7ff0bc3b46c51f0bf8d5c311a60408201526100d9565b46617a6903610721576106c86107dd565b506106d1610734565b7350157cffd6bbfa2dece204a89ec419c23ef5755d815273e3a9105a3a932253a70f126eb1e3b589c643dd24602082015273901f8942346f7ab3a01f6d7613119bca447bb03060408201526100d9565b6373cac13b60e01b5f5260045ffd5b5f80fd5b60405190606082016001600160401b0381118382101761046657604052565b6040519190601f01601f191682016001600160401b0381118382101761046657604052565b51906001600160a01b038216820361073057565b81601f82011215610730578051906001600160401b038211610466576107bb601f8301601f1916602001610753565b928284526020838301011161073057815f9260208093018386015e8301015290565b6107e5610734565b905f82525f60208301525f604083015256fe6080806040526004361015610012575f80fd5b5f905f3560e01c90816301ffc9a7146112a45750806306fdde03146111b05780632495a5991461116c5780632cfd30051461105f5780632fb74e6214611014578063313ce56714610ff9578063344ff10114610fc257806334c4574314610eba5780633e0dc34e14610e7f578063537d3c5014610e205780635409522714610e02578063588f0b0114610cbf5780635bebed7e14610c87578063715018a614610c3357806379ba509714610bbe5780637f5a7c7b14610b955780638927b03014610b7a5780638da5cb5b14610b5157806395d89b4114610a94578063a64c9d4314610a49578063abb1dc44146109d2578063b1af281e146107ee578063b6363cf2146107b7578063b8e263c214610733578063c7b8a75e146106a2578063d4febb9614610610578063d80618061461051d578063de64211914610469578063e064b9bb146103f5578063e30c3978146103cc578063e8a3d485146102bb578063eb3155b5146101f95763f2fde38b14610189575f80fd5b346101f65760203660031901126101f6576101a261131b565b6101aa611657565b600780546001600160a01b0319166001600160a01b039283169081179091556006549091167f38d16b8cac22d99fc7c124b9cd0de2d3fa1faef420bfe791d8c362d765e227008380a380f35b80fd5b50346101f65761023961020b36611374565b91610220338461021b3382611ab8565b611463565b610234338261022f33826114aa565b611436565b611624565b5f516020611e845f395f51905f52546001600160a01b0316803b156102b757826040518092630f8e573b60e21b8252818381610279338960048401611818565b03925af180156102ac57610293575b602082604051908152f35b61029e8380926113ae565b6102a85781610288565b5080fd5b6040513d85823e3d90fd5b8280fd5b50346101f657806003193601126101f6576040519080600554908160011c916001811680156103c2575b6020841081146103ae57838652908115610387575060011461032a575b61032684610312818603826113ae565b6040519182916020835260208301906112f7565b0390f35b600581527f036b6384b5eca791c62761152d0c79bb0604c104a5fb6f4eb0703f3154bb3db0939250905b80821061036d5750909150810160200161031282610302565b919260018160209254838588010152019101909291610354565b60ff191660208087019190915292151560051b850190920192506103129150839050610302565b634e487b7160e01b83526022600452602483fd5b92607f16926102e5565b50346101f657806003193601126101f6576007546040516001600160a01b039091168152602090f35b50346101f65760803660031901126101f65761040f61131b565b610417611331565b60643591906001600160401b0383116104655761045f610457610441610239953690600401611347565b610450338761022f33826114aa565b3691611400565b604435611510565b91611624565b8380fd5b50346101f65760803660031901126101f65761048361131b565b6044356001600160401b0381116102b7576104a2903690600401611347565b606435926001600160401b0384116105195761050b610513926104fd6104f16104ea6104e26104d86102399a3690600401611347565b9990953691611400565b602435611510565b8533611624565b95869283863333611831565b610505611ca3565b9061194f565b9033906116e0565b90611a1c565b8480fd5b50346101f65760203660031901126101f657600435610541338261021b3382611ab8565b81604080519061055181836113ae565b60018252601f1981013660208401378361056a83611489565b525f516020611e845f395f51905f52546001600160a01b0316803b15610465578151637d6e912360e11b81526020600482015292849184918290849082906105b69060248301906116ad565b03925af190811561060757506105f2575b505033907f189c3bfae2e5ce7726b29d57bb6ed0f1a7ebcd153a863ff5ecb6cd998064c98c8380a380f35b816105fc916113ae565b6102a857815f6105c7565b513d84823e3d90fd5b50346101f65760403660031901126101f65761062a61131b565b6024359065ffffffffffff82168092036102b757338084526001602090815260408086206001600160a01b03949094165f81815294835293819020805465ffffffffffff19168617905551938452919290917f921a218a75d18e8ec5704851e6b234a85725b21a2521ce889622c35dedc1fa1291a380f35b50346101f65760803660031901126101f6576106bc61131b565b6106c4611331565b60643590604435906001600160401b038311610519576102399361072d610513936104fd6106f9610721973690600401611347565b97909261070b338261021b3382611ab8565b61071a338761022f33826114aa565b8686611624565b96879283878733611831565b916116e0565b50346101f65760203660031901126101f65761074d61131b565b610755611657565b6001600160a01b031680156107a857600880546001600160a01b0319811683179091556001600160a01b03167f28f7fb7e7a8b1239a2210fff0089ce39da0362e2dd2eecaa013a8996a37a22798380a380f35b639c9d882360e01b8252600482fd5b50346101f65760403660031901126101f65760206107e46107d661131b565b6107de611331565b906114aa565b6040519015158152f35b50346101f65760603660031901126101f6576004356024356001600160401b038116908190036102b7576044356001600160401b03811161046557610837903690600401611347565b906040918560206108fb61087f86519561085188886113ae565b60018752601f19880136858901378961086988611489565b52875195898588015284875261045089886113ae565b7f9e7b61f58c47dc699ac88507c4f5bb9f121c03808c5676a8078fe583e46497025487516378542ead60e01b8152606060048201529485936001600160a01b0390921692849283916108e96108d7606485018d6116ad565b8481036003190160248601528b6112f7565b838103600319016044850152906112f7565b03925af19081156109c8578791610999575b501561098a57917fc6366bab028b8d033cb362cfd1f2f3457ef4e92fc738b6788b90d5a7846367a06109727f83bbbc07896439e5d950a6cead04cbc676180af7a61cecf43f5296475057f571959361097f6020968551938493878552878501906116ad565b90838203898501526112f7565b0390a151908152a280f35b63cf6c44e960e01b8652600486fd5b6109bb915060203d6020116109c1575b6109b381836113ae565b810190611aa0565b5f61090d565b503d6109a9565b84513d89823e3d90fd5b50346101f657806003193601126101f657600854604080516001600160a01b037f0000000000000000000000000000000000000000000000000000000000000000811682527f0000000000000000000000000000000000000000000000000000000000000000602083015290921690820152606090f35b50346101f657610a5836611374565b6008549093919291906001600160a01b03163303610a85576020610a7d858585611624565b604051908152f35b635a91834f60e01b8152600490fd5b50346101f657806003193601126101f6576040519080600454908160011c91600181168015610b47575b6020841081146103ae578386529081156103875750600114610aea5761032684610312818603826113ae565b600481527f8a35acfbc15ff81a39ae7d344fd709f28e8600b4aa8c65c6b64bfe7fe36bd19b939250905b808210610b2d5750909150810160200161031282610302565b919260018160209254838588010152019101909291610b14565b92607f1692610abe565b50346101f657806003193601126101f6576006546040516001600160a01b039091168152602090f35b50346101f657806003193601126101f6576020610a7d61167e565b50346101f657806003193601126101f6576008546040516001600160a01b039091168152602090f35b50346101f657806003193601126101f657600754336001600160a01b0390911603610c2057600780546001600160a01b0319908116909155600680543392811683179091556001600160a01b03165f516020611e645f395f51905f528380a380f35b63118cdaa760e01b815233600452602490fd5b50346101f657806003193601126101f657610c4c611657565b600780546001600160a01b031990811690915560068054918216905581906001600160a01b03165f516020611e645f395f51905f528280a380f35b50346101f65760403660031901126101f6576020610a7d610ca661131b565b60243590610cb9338361021b3382611ab8565b33611624565b50346101f65760403660031901126101f657610cd961131b565b600854602435906001600160a01b03163303610df3576001600160a01b03821692831580159290610d098461160a565b15610d955793610d4085610d21602097600254611bf8565b919091610d2e3082611dc3565b6002555b610d3a611ca3565b9161194f565b938493610d4f85600254611a1c565b610d593082611dc3565b600255610d85575b50610d6c3084611dc3565b5f516020611e445f395f51905f528280a4604051908152f35b610d8f9084611dc3565b5f610d61565b8482528160205260408220548015610ddf5781610db860209793610d4093611b23565b919091610dc53082611dc3565b610dcf8882611dc3565b8486528589526040862055610d32565b6317fe473760e21b83526004869052602483fd5b635a91834f60e01b8352600483fd5b50346101f657806003193601126101f6576020600254604051908152f35b50346101f65760603660031901126101f657610e3a61131b565b6044356024356001600160401b038211610465576102399261050b610513926104fd610e6d6104f1963690600401611347565b9690926104ea338261021b3382611ab8565b50346101f657806003193601126101f65760206040517f00000000000000000000000000000000000000000000000000000000000000008152f35b34610fbe5760a0366003190112610fbe57610ed361131b565b610edb611331565b6064356001600160401b038111610fbe57610efa903690600401611347565b60843593919290916001600160401b038511610fbe5761072d610513936104fd61072161071a610457610f34610f469b3690600401611347565b9a9095610450338a61022f33826114aa565b5f516020611e845f395f51905f52546001600160a01b031690813b15610fbe575f6040518093630f8e573b60e21b8252818381610f87338860048401611818565b03925af1918215610fb357602092610fa3575b50604051908152f35b5f610fad916113ae565b5f610f9a565b6040513d5f823e3d90fd5b5f80fd5b34610fbe576020366003190112610fbe576001600160a01b03610fe361131b565b165f525f602052602060405f2054604051908152f35b34610fbe575f366003190112610fbe57602060405160068152f35b34610fbe576060366003190112610fbe5761102d61131b565b6044356001600160401b038111610fbe576020916110586104e2610450610a7d943690600401611347565b9033611624565b34610fbe576040366003190112610fbe5761107861131b565b600854602435906001600160a01b0316330361115d576020916001600160a01b03811680158015939092906110c9906110b0866114f6565b6110bc81600254611bf8565b909190610d2e3082611dc3565b93849315611125576110dd84600254611a1c565b6110e73082611dc3565b6002555b611115575b506110fb3083611dc3565b5f5f516020611e445f395f51905f528180a4604051908152f35b61111f9083611dc3565b846110f0565b825f525f86526111398460405f2054611c1f565b6111433082611dc3565b61114d8382611dc3565b835f525f875260405f20556110eb565b635a91834f60e01b5f5260045ffd5b34610fbe575f366003190112610fbe576040517f00000000000000000000000000000000000000000000000000000000000000006001600160a01b03168152602090f35b34610fbe575f366003190112610fbe576040515f6003548060011c9060018116801561129a575b602083108114611286578285529081156112625750600114611204575b61032683610312818503826113ae565b60035f9081527fc2575a0e9e593c00f959f8c92f12db2869c3395a3b0502d05e2516446f71f85b939250905b808210611248575090915081016020016103126111f4565b919260018160209254838588010152019101909291611230565b60ff191660208086019190915291151560051b8401909101915061031290506111f4565b634e487b7160e01b5f52602260045260245ffd5b91607f16916111d7565b34610fbe576020366003190112610fbe576004359063ffffffff60e01b8216809203610fbe576020916312563ca960e21b81149081156112e6575b5015158152f35b6301ffc9a760e01b149050836112df565b805180835260209291819084018484015e5f828201840152601f01601f1916010190565b600435906001600160a01b0382168203610fbe57565b602435906001600160a01b0382168203610fbe57565b9181601f84011215610fbe578235916001600160401b038311610fbe5760208381860195010111610fbe57565b6060906003190112610fbe576004356001600160a01b0381168103610fbe57906024356001600160a01b0381168103610fbe579060443590565b601f909101601f19168101906001600160401b038211908210176113d157604052565b634e487b7160e01b5f52604160045260245ffd5b6001600160401b0381116113d157601f01601f191660200190565b92919261140c826113e5565b9161141a60405193846113ae565b829481845281830111610fbe578281602093845f960137010152565b1561143f575050565b630f3e596760e31b5f9081526001600160a01b039182166004529116602452604490fd5b1561146c575050565b6367cfe80560e01b5f5260045260018060a01b031660245260445ffd5b8051156114965760200190565b634e487b7160e01b5f52603260045260245ffd5b6001600160a01b038281169116908114919082156114c757505090565b9091505f52600160205260405f209060018060a01b03165f5260205265ffffffffffff60405f20541642111590565b156114fd57565b638d51880160e01b5f525f60045260245ffd5b61155f9160209160018060a01b035f516020611e245f395f51905f525416905f60405180968195829463045fc19560e11b845260048401523360248401526080604484015260848301906112f7565b6005606483015203925af1908115610fb3575f916115d8575b505f516020611e845f395f51905f52546001600160a01b0316803b15610fbe575f6040518092630f8e573b60e21b82528183816115b9338960048401611818565b03925af18015610fb3576115cb575090565b5f6115d5916113ae565b90565b90506020813d602011611602575b816115f3602093836113ae565b81010312610fbe57515f611578565b3d91506115e6565b1561161157565b63ee457ebf60e01b5f525f60045260245ffd5b6115d592919061163e6001600160a01b038216151561160a565b6116526001600160a01b03831615156114f6565b6116e0565b6006546001600160a01b0316330361166b57565b63118cdaa760e01b5f523360045260245ffd5b4660010361168b57600190565b4662aa36a70361169b5761271190565b617a6946146116a8575f90565b5f1990565b90602080835192838152019201905f5b8181106116ca5750505090565b82518452602093840193909201916001016116bd565b9092916001600160a01b0382168015929183156117bd5780610d2161170792600254611bf8565b9485936001600160a01b0382169384159182156117835761172a87600254611a1c565b6117343082611dc3565b6002555b15611773575b5015611763575b506117503084611dc3565b5f516020611e445f395f51905f525f80a4565b61176d9084611dc3565b5f611745565b61177d9086611dc3565b5f61173e565b855f525f6020526117988760405f2054611c1f565b6117a23082611dc3565b6117ac8582611dc3565b865f525f60205260405f2055611738565b815f525f60205260405f2054801561180557906117dd8161170793611b23565b9190916117ea3082611dc3565b6117f48682611dc3565b845f525f60205260405f2055610d32565b826317fe473760e21b5f5260045260245ffd5b9081526001600160a01b03909116602082015260400190565b939594929390929091803b1561193e576040516346083bfd60e01b81526001600160a01b0393841660048201529383166024850152604484019490945260806064840152608483018190529216939091602091839160a4918391908190838501375f838284010152601f801991011681010301815f875af15f918161190a575b5061190657823d156118ff573d6118c7816113e5565b906118d560405192836113ae565b81523d5f602083013e5b805190816118fa5782638d51880160e01b5f5260045260245ffd5b602001fd5b60606118df565b9150565b9091506020813d602011611936575b81611926602093836113ae565b81010312610fbe5751905f6118b1565b3d9150611919565b505050505090506115d56001611cf1565b91908215611a0b575b80156119fd575b81156119e7575b6064602092935f60018060a01b035f516020611e245f395f51905f5254166040519687958694637702dcff60e01b86526004860152602485015260448401525af1908115610fb3575f916119b8575090565b90506020813d6020116119df575b816119d3602093836113ae565b81010312610fbe575190565b3d91506119c6565b6020915060646119f5611ca3565b925050611966565b50611a06611ca3565b61195f565b9150611a165f611cf1565b91611958565b908115611a90575b8015611a7e575b602090606460018060a01b035f516020611e245f395f51905f525416935f60405195869485936303056db360e31b8552600485015260248401528160448401525af1908115610fb3575f916119b8575090565b506020611a89611ca3565b9050611a2b565b9050611a9a611ca3565b90611a24565b90816020910312610fbe57518015158103610fbe5790565b5f516020611e845f395f51905f52546040516382027b6d60e01b81529260209284926001600160a01b03169183918291611af59160048401611818565b03915afa908115610fb3575f91611b0a575090565b6115d5915060203d6020116109c1576109b381836113ae565b9190918015611b4a5780611b44611b3d856115d594611d3f565b9482611a1c565b8461194f565b8215611be857505f516020611e245f395f51905f525460405163f77f3f1d60e01b815260048101939093525f60248401819052600160f81b604485015260209184916064918391906001600160a01b03165af1918215610fb3575f92611bb4575b506115d5611ca3565b9091506020813d602011611be0575b81611bd0602093836113ae565b81010312610fbe5751905f611bab565b3d9150611bc3565b9150611bf46001611cf1565b9190565b91908215611be857611c0d6115d59184611c1f565b92611c188185611d3f565b938461194f565b908115611c93575b8015611c81575b602090606460018060a01b035f516020611e245f395f51905f525416935f604051958694859363022f65e760e31b8552600485015260248401528160448401525af1908115610fb3575f916119b8575090565b506020611c8c611ca3565b9050611c2e565b9050611c9d611ca3565b90611c27565b5f516020611e245f395f51905f5254604051639cd07acb60e01b81525f6004820152906001600160a01b0316816044815f602094600560248401525af1908115610fb3575f916119b8575090565b5f516020611e245f395f51905f5254604051639cd07acb60e01b815260048101929092526001600160a01b0316816044815f6020948160248401525af1908115610fb3575f916119b8575090565b908115611db3575b8015611da1575b602090606460018060a01b035f516020611e245f395f51905f525416935f6040519586948593631391547f60e01b8552600485015260248401528160448401525af1908115610fb3575f916119b8575090565b506020611dac611ca3565b9050611d4e565b9050611dbd611ca3565b90611d47565b5f516020611e845f395f51905f52546001600160a01b031691823b15610fbe57611e06925f9283604051809681958294635ca4b5b160e11b845260048401611818565b03925af18015610fb357611e175750565b5f611e21916113ae565b56fe9e7b61f58c47dc699ac88507c4f5bb9f121c03808c5676a8078fe583e464970167500e8d0ed826d2194f514dd0d8124f35648ab6e3fb5e6ed867134cffe661e98be0079c531659141344cd1fd0a4f28419497f9722a3daafe3b4186f6b6457e09e7b61f58c47dc699ac88507c4f5bb9f121c03808c5676a8078fe583e4649700a164736f6c634300081b000a","linkReferences":{}},"methodIdentifiers":{"acceptOwnership()":"79ba5097","burn(address,bytes32)":"588f0b01","confidentialBalanceOf(address)":"344ff101","confidentialProtocolId()":"8927b030","confidentialTotalSupply()":"54095227","confidentialTransfer(address,bytes32)":"5bebed7e","confidentialTransfer(address,bytes32,bytes)":"2fb74e62","confidentialTransferAndCall(address,bytes32,bytes)":"537d3c50","confidentialTransferAndCall(address,bytes32,bytes,bytes)":"de642119","confidentialTransferFrom(address,address,bytes32)":"eb3155b5","confidentialTransferFrom(address,address,bytes32,bytes)":"e064b9bb","confidentialTransferFromAndCall(address,address,bytes32,bytes)":"c7b8a75e","confidentialTransferFromAndCall(address,address,bytes32,bytes,bytes)":"34c45743","contractURI()":"e8a3d485","decimals()":"313ce567","discloseEncryptedAmount(bytes32,uint64,bytes)":"b1af281e","getTokenInfo()":"abb1dc44","hook()":"7f5a7c7b","hookTransfer(address,address,bytes32)":"a64c9d43","isOperator(address,address)":"b6363cf2","mint(address,bytes32)":"2cfd3005","name()":"06fdde03","owner()":"8da5cb5b","pendingOwner()":"e30c3978","poolId()":"3e0dc34e","renounceOwnership()":"715018a6","requestDiscloseEncryptedAmount(bytes32)":"d8061806","setOperator(address,uint48)":"d4febb96","supportsInterface(bytes4)":"01ffc9a7","symbol()":"95d89b41","transferOwnership(address)":"f2fde38b","underlyingToken()":"2495a599","updateHook(address)":"b8e263c2"},"id":16}