{"abi":[{"type":"constructor","inputs":[{"name":"owner","type":"address","internalType":"address"},{"name":"amount","type":"uint64","internalType":"uint64"},{"name":"name_","type":"string","internalType":"string"},{"name":"symbol_","type":"string","internalType":"string"},{"name":"tokenURI_","type":"string","internalType":"string"}],"stateMutability":"nonpayable"},{"type":"function","name":"acceptOwnership","inputs":[],"outputs":[],"stateMutability":"nonpayable"},{"type":"function","name":"confidentialBalanceOf","inputs":[{"name":"account","type":"address","internalType":"address"}],"outputs":[{"name":"","type":"bytes32","internalType":"euint64"}],"stateMutability":"view"},{"type":"function","name":"confidentialProtocolId","inputs":[],"outputs":[{"name":"","type":"uint256","internalType":"uint256"}],"stateMutability":"view"},{"type":"function","name":"confidentialTotalSupply","inputs":[],"outputs":[{"name":"","type":"bytes32","internalType":"euint64"}],"stateMutability":"view"},{"type":"function","name":"confidentialTransfer","inputs":[{"name":"to","type":"address","internalType":"address"},{"name":"encryptedAmount","type":"bytes32","internalType":"externalEuint64"},{"name":"inputProof","type":"bytes","internalType":"bytes"}],"outputs":[{"name":"","type":"bytes32","internalType":"euint64"}],"stateMutability":"nonpayable"},{"type":"function","name":"confidentialTransfer","inputs":[{"name":"to","type":"address","internalType":"address"},{"name":"amount","type":"bytes32","internalType":"euint64"}],"outputs":[{"name":"","type":"bytes32","internalType":"euint64"}],"stateMutability":"nonpayable"},{"type":"function","name":"confidentialTransferAndCall","inputs":[{"name":"to","type":"address","internalType":"address"},{"name":"amount","type":"bytes32","internalType":"euint64"},{"name":"data","type":"bytes","internalType":"bytes"}],"outputs":[{"name":"transferred","type":"bytes32","internalType":"euint64"}],"stateMutability":"nonpayable"},{"type":"function","name":"confidentialTransferAndCall","inputs":[{"name":"to","type":"address","internalType":"address"},{"name":"encryptedAmount","type":"bytes32","internalType":"externalEuint64"},{"name":"inputProof","type":"bytes","internalType":"bytes"},{"name":"data","type":"bytes","internalType":"bytes"}],"outputs":[{"name":"transferred","type":"bytes32","internalType":"euint64"}],"stateMutability":"nonpayable"},{"type":"function","name":"confidentialTransferFrom","inputs":[{"name":"from","type":"address","internalType":"address"},{"name":"to","type":"address","internalType":"address"},{"name":"encryptedAmount","type":"bytes32","internalType":"externalEuint64"},{"name":"inputProof","type":"bytes","internalType":"bytes"}],"outputs":[{"name":"transferred","type":"bytes32","internalType":"euint64"}],"stateMutability":"nonpayable"},{"type":"function","name":"confidentialTransferFrom","inputs":[{"name":"from","type":"address","internalType":"address"},{"name":"to","type":"address","internalType":"address"},{"name":"amount","type":"bytes32","internalType":"euint64"}],"outputs":[{"name":"transferred","type":"bytes32","internalType":"euint64"}],"stateMutability":"nonpayable"},{"type":"function","name":"confidentialTransferFromAndCall","inputs":[{"name":"from","type":"address","internalType":"address"},{"name":"to","type":"address","internalType":"address"},{"name":"encryptedAmount","type":"bytes32","internalType":"externalEuint64"},{"name":"inputProof","type":"bytes","internalType":"bytes"},{"name":"data","type":"bytes","internalType":"bytes"}],"outputs":[{"name":"transferred","type":"bytes32","internalType":"euint64"}],"stateMutability":"nonpayable"},{"type":"function","name":"confidentialTransferFromAndCall","inputs":[{"name":"from","type":"address","internalType":"address"},{"name":"to","type":"address","internalType":"address"},{"name":"amount","type":"bytes32","internalType":"euint64"},{"name":"data","type":"bytes","internalType":"bytes"}],"outputs":[{"name":"transferred","type":"bytes32","internalType":"euint64"}],"stateMutability":"nonpayable"},{"type":"function","name":"contractURI","inputs":[],"outputs":[{"name":"","type":"string","internalType":"string"}],"stateMutability":"view"},{"type":"function","name":"decimals","inputs":[],"outputs":[{"name":"","type":"uint8","internalType":"uint8"}],"stateMutability":"view"},{"type":"function","name":"discloseEncryptedAmount","inputs":[{"name":"encryptedAmount","type":"bytes32","internalType":"euint64"},{"name":"cleartextAmount","type":"uint64","internalType":"uint64"},{"name":"decryptionProof","type":"bytes","internalType":"bytes"}],"outputs":[],"stateMutability":"nonpayable"},{"type":"function","name":"isOperator","inputs":[{"name":"holder","type":"address","internalType":"address"},{"name":"spender","type":"address","internalType":"address"}],"outputs":[{"name":"","type":"bool","internalType":"bool"}],"stateMutability":"view"},{"type":"function","name":"name","inputs":[],"outputs":[{"name":"","type":"string","internalType":"string"}],"stateMutability":"view"},{"type":"function","name":"owner","inputs":[],"outputs":[{"name":"","type":"address","internalType":"address"}],"stateMutability":"view"},{"type":"function","name":"pendingOwner","inputs":[],"outputs":[{"name":"","type":"address","internalType":"address"}],"stateMutability":"view"},{"type":"function","name":"renounceOwnership","inputs":[],"outputs":[],"stateMutability":"nonpayable"},{"type":"function","name":"requestDiscloseEncryptedAmount","inputs":[{"name":"encryptedAmount","type":"bytes32","internalType":"euint64"}],"outputs":[],"stateMutability":"nonpayable"},{"type":"function","name":"setOperator","inputs":[{"name":"operator","type":"address","internalType":"address"},{"name":"until","type":"uint48","internalType":"uint48"}],"outputs":[],"stateMutability":"nonpayable"},{"type":"function","name":"supportsInterface","inputs":[{"name":"interfaceId","type":"bytes4","internalType":"bytes4"}],"outputs":[{"name":"","type":"bool","internalType":"bool"}],"stateMutability":"view"},{"type":"function","name":"symbol","inputs":[],"outputs":[{"name":"","type":"string","internalType":"string"}],"stateMutability":"view"},{"type":"function","name":"transferOwnership","inputs":[{"name":"newOwner","type":"address","internalType":"address"}],"outputs":[],"stateMutability":"nonpayable"},{"type":"event","name":"AmountDiscloseRequested","inputs":[{"name":"encryptedAmount","type":"bytes32","indexed":true,"internalType":"euint64"},{"name":"requester","type":"address","indexed":true,"internalType":"address"}],"anonymous":false},{"type":"event","name":"AmountDisclosed","inputs":[{"name":"encryptedAmount","type":"bytes32","indexed":true,"internalType":"euint64"},{"name":"amount","type":"uint64","indexed":false,"internalType":"uint64"}],"anonymous":false},{"type":"event","name":"ConfidentialTransfer","inputs":[{"name":"from","type":"address","indexed":true,"internalType":"address"},{"name":"to","type":"address","indexed":true,"internalType":"address"},{"name":"amount","type":"bytes32","indexed":true,"internalType":"euint64"}],"anonymous":false},{"type":"event","name":"OperatorSet","inputs":[{"name":"holder","type":"address","indexed":true,"internalType":"address"},{"name":"operator","type":"address","indexed":true,"internalType":"address"},{"name":"until","type":"uint48","indexed":false,"internalType":"uint48"}],"anonymous":false},{"type":"event","name":"OwnershipTransferStarted","inputs":[{"name":"previousOwner","type":"address","indexed":true,"internalType":"address"},{"name":"newOwner","type":"address","indexed":true,"internalType":"address"}],"anonymous":false},{"type":"event","name":"OwnershipTransferred","inputs":[{"name":"previousOwner","type":"address","indexed":true,"internalType":"address"},{"name":"newOwner","type":"address","indexed":true,"internalType":"address"}],"anonymous":false},{"type":"event","name":"PublicDecryptionVerified","inputs":[{"name":"handlesList","type":"bytes32[]","indexed":false,"internalType":"bytes32[]"},{"name":"abiEncodedCleartexts","type":"bytes","indexed":false,"internalType":"bytes"}],"anonymous":false},{"type":"error","name":"ERC7984InvalidGatewayRequest","inputs":[{"name":"requestId","type":"uint256","internalType":"uint256"}]},{"type":"error","name":"ERC7984InvalidReceiver","inputs":[{"name":"receiver","type":"address","internalType":"address"}]},{"type":"error","name":"ERC7984InvalidSender","inputs":[{"name":"sender","type":"address","internalType":"address"}]},{"type":"error","name":"ERC7984UnauthorizedCaller","inputs":[{"name":"caller","type":"address","internalType":"address"}]},{"type":"error","name":"ERC7984UnauthorizedSpender","inputs":[{"name":"holder","type":"address","internalType":"address"},{"name":"spender","type":"address","internalType":"address"}]},{"type":"error","name":"ERC7984UnauthorizedUseOfEncryptedAmount","inputs":[{"name":"amount","type":"bytes32","internalType":"euint64"},{"name":"user","type":"address","internalType":"address"}]},{"type":"error","name":"ERC7984ZeroBalance","inputs":[{"name":"holder","type":"address","internalType":"address"}]},{"type":"error","name":"InvalidKMSSignatures","inputs":[]},{"type":"error","name":"OwnableInvalidOwner","inputs":[{"name":"owner","type":"address","internalType":"address"}]},{"type":"error","name":"OwnableUnauthorizedAccount","inputs":[{"name":"account","type":"address","internalType":"address"}]},{"type":"error","name":"ZamaProtocolUnsupported","inputs":[]}],"bytecode":{"object":"0x6080806040523461041457612601803803809161001c82856107fd565b8339810160a0828203126104145781516001600160a01b038116918282036104145760208401516001600160401b03811691908290036104145760408501516001600160401b0381116104145781610075918701610820565b60608601519095906001600160401b0381116104145782610097918301610820565b60808201519092906001600160401b038111610414576100b79201610820565b946100c0610875565b50466001036106f6576100d1610875565b506040516100de816107e2565b5f81525f60208201525f60408201525b80515f5160206125e15f395f51905f5280546001600160a01b03199081166001600160a01b039384161790915560208301515f5160206125c15f395f51905f52805483169184169190911790556040909201517f9e7b61f58c47dc699ac88507c4f5bb9f121c03808c5676a8078fe583e4649702805490931691161790558051906001600160401b0382116105105760035490600182811c921680156106ec575b60208310146104f25781601f84931161067e575b50602090601f8311600114610618575f9261060d575b50508160011b915f199060031b1c1916176003555b8051906001600160401b0382116105105760045490600182811c92168015610603575b60208310146104f25781601f849311610595575b50602090601f831160011461052f575f92610524575b50508160011b915f199060031b1c1916176004555b83516001600160401b03811161051057600554600181811c91168015610506575b60208210146104f257601f81116104ac575b50602094601f8211600114610449579481929394955f9261043e575b50508160011b915f199060031b1c1916176005555b821561042b57600780546001600160a01b031990811690915560068054918216851790555f9160209185906001600160a01b03167f8be0079c531659141344cd1fd0a4f28419497f9722a3daafe3b4186f6b6457e08580a35f5160206125c15f395f51905f5254604051639cd07acb60e01b81526004810192909252600560248301529092839160449183916001600160a01b03165af1908115610420575f916103e8575b5061036d816103a9925061034f81600254610968565b61035c9291923082610b5e565b600255610367610893565b91610a3c565b91835f525f6020526103838360405f2054610ada565b61038d3082610b5e565b6103978282610b5e565b845f525f60205260405f205582610b5e565b6103b33082610b5e565b604051915f7f67500e8d0ed826d2194f514dd0d8124f35648ab6e3fb5e6ed867134cffe661e98180a46119f89081610bc98239f35b90506020813d602011610418575b81610403602093836107fd565b81010312610414575161036d610339565b5f80fd5b3d91506103f6565b6040513d5f823e3d90fd5b631e4fbdf760e01b5f525f60045260245ffd5b015190505f8061027f565b601f1982169560055f52805f20915f5b8881106104945750836001959697981061047c575b505050811b01600555610294565b01515f1960f88460031b161c191690555f808061046e565b91926020600181928685015181550194019201610459565b60055f5260205f20601f830160051c810191602084106104e8575b601f0160051c01905b8181106104dd5750610263565b5f81556001016104d0565b90915081906104c7565b634e487b7160e01b5f52602260045260245ffd5b90607f1690610251565b634e487b7160e01b5f52604160045260245ffd5b015190505f8061021b565b60045f9081528281209350601f198516905b81811061057d5750908460019594939210610565575b505050811b01600455610230565b01515f1960f88460031b161c191690555f8080610557565b92936020600181928786015181550195019301610541565b60045f529091507f8a35acfbc15ff81a39ae7d344fd709f28e8600b4aa8c65c6b64bfe7fe36bd19b601f840160051c810191602085106105f9575b90601f859493920160051c01905b8181106105eb5750610205565b5f81558493506001016105de565b90915081906105d0565b91607f16916101f1565b015190505f806101b9565b60035f9081528281209350601f198516905b818110610666575090846001959493921061064e575b505050811b016003556101ce565b01515f1960f88460031b161c191690555f8080610640565b9293602060018192878601518155019501930161062a565b60035f529091507fc2575a0e9e593c00f959f8c92f12db2869c3395a3b0502d05e2516446f71f85b601f840160051c810191602085106106e2575b90601f859493920160051c01905b8181106106d457506101a3565b5f81558493506001016106c7565b90915081906106b9565b91607f169161018f565b4662aa36a70361076557610708610875565b50604051610715816107e2565b73f0ffdc93b7e186bc2f8cb3daa75d86d1930a433d81527392c920834ec8941d2c77d188936e1f7a6f49c127602082015273be0e383937d564d7ff0bc3b46c51f0bf8d5c311a60408201526100ee565b46617a69036107d357610776610875565b50604051610783816107e2565b7350157cffd6bbfa2dece204a89ec419c23ef5755d815273e3a9105a3a932253a70f126eb1e3b589c643dd24602082015273901f8942346f7ab3a01f6d7613119bca447bb03060408201526100ee565b6373cac13b60e01b5f5260045ffd5b606081019081106001600160401b0382111761051057604052565b601f909101601f19168101906001600160401b0382119082101761051057604052565b81601f82011215610414578051906001600160401b0382116105105760405192610854601f8401601f1916602001856107fd565b8284526020838301011161041457815f9260208093018386015e8301015290565b60405190610882826107e2565b5f6040838281528260208201520152565b5f5160206125c15f395f51905f5254604051639cd07acb60e01b81525f60048201819052600560248301529091602091839160449183916001600160a01b03165af1908115610420575f916108e6575090565b90506020813d60201161090d575b81610901602093836107fd565b81010312610414575190565b3d91506108f4565b5f5160206125c15f395f51905f5254604051639cd07acb60e01b815260048101929092525f6024830181905260209183916044918391906001600160a01b03165af1908115610420575f916108e6575090565b9190918015610a2d5761097c5f9382610ada565b808015610a1b575b602090606460018060a01b035f5160206125c15f395f51905f525416916040519788938492631391547f60e01b845260048401528760248401528160448401525af1938415610420575f946109e3575b50906109e09184610a3c565b90565b919093506020823d602011610a13575b81610a00602093836107fd565b81010312610414579051926109e06109d4565b3d91506109f3565b506020610a26610893565b9050610984565b50610a386001610915565b9190565b91908215610ac9575b8015610abb575b8115610aa5575b6064602092935f60018060a01b035f5160206125c15f395f51905f5254166040519687958694637702dcff60e01b86526004860152602485015260448401525af1908115610420575f916108e6575090565b602091506064610ab3610893565b925050610a53565b50610ac4610893565b610a4c565b9150610ad45f610915565b91610a45565b908115610b4e575b8015610b3c575b602090606460018060a01b035f5160206125c15f395f51905f525416935f604051958694859363022f65e760e31b8552600485015260248401528160448401525af1908115610420575f916108e6575090565b506020610b47610893565b9050610ae9565b9050610b58610893565b90610ae2565b5f5160206125e15f395f51905f52546001600160a01b031691823b1561041457604051635ca4b5b160e11b815260048101929092526001600160a01b03166024820152905f908290604490829084905af1801561042057610bbc5750565b5f610bc6916107fd565b56fe6080806040526004361015610012575f80fd5b5f905f3560e01c90816301ffc9a714610e2c5750806306fdde0314610d385780632fb74e6214610ced578063313ce56714610cd2578063344ff10114610c9b57806334c4574314610b93578063537d3c5014610b345780635409522714610b165780635bebed7e14610ade578063715018a614610a8a57806379ba509714610a155780638927b030146109f25780638da5cb5b146109c957806395d89b411461090c578063b1af281e14610728578063b6363cf2146106f1578063c7b8a75e14610660578063d4febb96146105ce578063d8061806146104db578063de64211914610427578063e064b9bb146103b3578063e30c39781461038a578063e8a3d48514610279578063eb3155b5146101a15763f2fde38b14610131575f80fd5b3461019e57602036600319011261019e5761014a610ea3565b61015261118d565b600780546001600160a01b0319166001600160a01b039283169081179091556006549091167f38d16b8cac22d99fc7c124b9cd0de2d3fa1faef420bfe791d8c362d765e227008380a380f35b80fd5b503461019e57606036600319011261019e576101f76101be610ea3565b6101c6610eb9565b604435916101de33846101d93382611620565b610fb1565b6101f233826101ed3382610ff8565b610f84565b61113e565b5f5160206119cc5f395f51905f52546001600160a01b0316803b1561027557826040518092630f8e573b60e21b8252818381610237338960048401611216565b03925af1801561026a57610251575b602082604051908152f35b61025c838092610efc565b6102665781610246565b5080fd5b6040513d85823e3d90fd5b8280fd5b503461019e578060031936011261019e576040519080600554908160011c91600181168015610380575b60208410811461036c5783865290811561034557506001146102e8575b6102e4846102d081860382610efc565b604051918291602083526020830190610e7f565b0390f35b600581527f036b6384b5eca791c62761152d0c79bb0604c104a5fb6f4eb0703f3154bb3db0939250905b80821061032b575090915081016020016102d0826102c0565b919260018160209254838588010152019101909291610312565b60ff191660208087019190915292151560051b850190920192506102d091508390506102c0565b634e487b7160e01b83526022600452602483fd5b92607f16926102a3565b503461019e578060031936011261019e576007546040516001600160a01b039091168152602090f35b503461019e57608036600319011261019e576103cd610ea3565b6103d5610eb9565b60643591906001600160401b0383116104235761041d6104156103ff6101f7953690600401610ecf565b61040e33876101ed3382610ff8565b3691610f4e565b604435611044565b9161113e565b8380fd5b503461019e57608036600319011261019e57610441610ea3565b6044356001600160401b03811161027557610460903690600401610ecf565b606435926001600160401b0384116104d7576104c96104d1926104bb6104af6104a86104a06104966101f79a3690600401610ecf565b9990953691610f4e565b602435611044565b853361113e565b95869283863333611399565b6104c361180b565b906114b7565b90339061122f565b90611584565b8480fd5b503461019e57602036600319011261019e576004356104ff33826101d93382611620565b81604080519061050f8183610efc565b60018252601f1981013660208401378361052883610fd7565b525f5160206119cc5f395f51905f52546001600160a01b0316803b15610423578151637d6e912360e11b81526020600482015292849184918290849082906105749060248301906111e3565b03925af19081156105c557506105b0575b505033907f189c3bfae2e5ce7726b29d57bb6ed0f1a7ebcd153a863ff5ecb6cd998064c98c8380a380f35b816105ba91610efc565b61026657815f610585565b513d84823e3d90fd5b503461019e57604036600319011261019e576105e8610ea3565b6024359065ffffffffffff821680920361027557338084526001602090815260408086206001600160a01b03949094165f81815294835293819020805465ffffffffffff19168617905551938452919290917f921a218a75d18e8ec5704851e6b234a85725b21a2521ce889622c35dedc1fa1291a380f35b503461019e57608036600319011261019e5761067a610ea3565b610682610eb9565b60643590604435906001600160401b0383116104d7576101f7936106eb6104d1936104bb6106b76106df973690600401610ecf565b9790926106c933826101d93382611620565b6106d833876101ed3382610ff8565b868661113e565b96879283878733611399565b9161122f565b503461019e57604036600319011261019e57602061071e610710610ea3565b610718610eb9565b90610ff8565b6040519015158152f35b503461019e57606036600319011261019e576004356024356001600160401b03811690819003610275576044356001600160401b03811161042357610771903690600401610ecf565b906040918560206108356107b986519561078b8888610efc565b60018752601f1988013685890137896107a388610fd7565b52875195898588015284875261040e8988610efc565b7f9e7b61f58c47dc699ac88507c4f5bb9f121c03808c5676a8078fe583e46497025487516378542ead60e01b8152606060048201529485936001600160a01b039092169284928391610823610811606485018d6111e3565b8481036003190160248601528b610e7f565b83810360031901604485015290610e7f565b03925af19081156109025787916108d3575b50156108c457917fc6366bab028b8d033cb362cfd1f2f3457ef4e92fc738b6788b90d5a7846367a06108ac7f83bbbc07896439e5d950a6cead04cbc676180af7a61cecf43f5296475057f57195936108b96020968551938493878552878501906111e3565b9083820389850152610e7f565b0390a151908152a280f35b63cf6c44e960e01b8652600486fd5b6108f5915060203d6020116108fb575b6108ed8183610efc565b810190611608565b5f610847565b503d6108e3565b84513d89823e3d90fd5b503461019e578060031936011261019e576040519080600454908160011c916001811680156109bf575b60208410811461036c578386529081156103455750600114610962576102e4846102d081860382610efc565b600481527f8a35acfbc15ff81a39ae7d344fd709f28e8600b4aa8c65c6b64bfe7fe36bd19b939250905b8082106109a5575090915081016020016102d0826102c0565b91926001816020925483858801015201910190929161098c565b92607f1692610936565b503461019e578060031936011261019e576006546040516001600160a01b039091168152602090f35b503461019e578060031936011261019e576020610a0d6111b4565b604051908152f35b503461019e578060031936011261019e57600754336001600160a01b0390911603610a7757600780546001600160a01b0319908116909155600680543392811683179091556001600160a01b03165f5160206119ac5f395f51905f528380a380f35b63118cdaa760e01b815233600452602490fd5b503461019e578060031936011261019e57610aa361118d565b600780546001600160a01b031990811690915560068054918216905581906001600160a01b03165f5160206119ac5f395f51905f528280a380f35b503461019e57604036600319011261019e576020610a0d610afd610ea3565b60243590610b1033836101d93382611620565b3361113e565b503461019e578060031936011261019e576020600254604051908152f35b503461019e57606036600319011261019e57610b4e610ea3565b6044356024356001600160401b038211610423576101f7926104c96104d1926104bb610b816104af963690600401610ecf565b9690926104a833826101d93382611620565b34610c975760a0366003190112610c9757610bac610ea3565b610bb4610eb9565b6064356001600160401b038111610c9757610bd3903690600401610ecf565b60843593919290916001600160401b038511610c97576106eb6104d1936104bb6106df6106d8610415610c0d610c1f9b3690600401610ecf565b9a909561040e338a6101ed3382610ff8565b5f5160206119cc5f395f51905f52546001600160a01b031690813b15610c97575f6040518093630f8e573b60e21b8252818381610c60338860048401611216565b03925af1918215610c8c57602092610c7c575b50604051908152f35b5f610c8691610efc565b5f610c73565b6040513d5f823e3d90fd5b5f80fd5b34610c97576020366003190112610c97576001600160a01b03610cbc610ea3565b165f525f602052602060405f2054604051908152f35b34610c97575f366003190112610c9757602060405160068152f35b34610c97576060366003190112610c9757610d06610ea3565b6044356001600160401b038111610c9757602091610d316104a061040e610a0d943690600401610ecf565b903361113e565b34610c97575f366003190112610c97576040515f6003548060011c90600181168015610e22575b602083108114610e0e57828552908115610dea5750600114610d8c575b6102e4836102d081850382610efc565b60035f9081527fc2575a0e9e593c00f959f8c92f12db2869c3395a3b0502d05e2516446f71f85b939250905b808210610dd0575090915081016020016102d0610d7c565b919260018160209254838588010152019101909291610db8565b60ff191660208086019190915291151560051b840190910191506102d09050610d7c565b634e487b7160e01b5f52602260045260245ffd5b91607f1691610d5f565b34610c97576020366003190112610c97576004359063ffffffff60e01b8216809203610c97576020916312563ca960e21b8114908115610e6e575b5015158152f35b6301ffc9a760e01b14905083610e67565b805180835260209291819084018484015e5f828201840152601f01601f1916010190565b600435906001600160a01b0382168203610c9757565b602435906001600160a01b0382168203610c9757565b9181601f84011215610c97578235916001600160401b038311610c975760208381860195010111610c9757565b601f909101601f19168101906001600160401b03821190821017610f1f57604052565b634e487b7160e01b5f52604160045260245ffd5b6001600160401b038111610f1f57601f01601f191660200190565b929192610f5a82610f33565b91610f686040519384610efc565b829481845281830111610c97578281602093845f960137010152565b15610f8d575050565b630f3e596760e31b5f9081526001600160a01b039182166004529116602452604490fd5b15610fba575050565b6367cfe80560e01b5f5260045260018060a01b031660245260445ffd5b805115610fe45760200190565b634e487b7160e01b5f52603260045260245ffd5b6001600160a01b0382811691169081149190821561101557505090565b9091505f52600160205260405f209060018060a01b03165f5260205265ffffffffffff60405f20541642111590565b6110939160209160018060a01b035f51602061198c5f395f51905f525416905f60405180968195829463045fc19560e11b84526004840152336024840152608060448401526084830190610e7f565b6005606483015203925af1908115610c8c575f9161110c575b505f5160206119cc5f395f51905f52546001600160a01b0316803b15610c97575f6040518092630f8e573b60e21b82528183816110ed338960048401611216565b03925af18015610c8c576110ff575090565b5f61110991610efc565b90565b90506020813d602011611136575b8161112760209383610efc565b81010312610c9757515f6110ac565b3d915061111a565b91906001600160a01b0383161561117a576001600160a01b03811615611167576111099261122f565b638d51880160e01b5f525f60045260245ffd5b63ee457ebf60e01b5f525f60045260245ffd5b6006546001600160a01b031633036111a157565b63118cdaa760e01b5f523360045260245ffd5b466001036111c157600190565b4662aa36a7036111d15761271190565b617a6946146111de575f90565b5f1990565b90602080835192838152019201905f5b8181106112005750505090565b82518452602093840193909201916001016111f3565b9081526001600160a01b03909116602082015260400190565b9092916001600160a01b03821680159291831561133e578061125661127592600254611760565b919091611263308261192b565b6002555b61126f61180b565b916114b7565b9485936001600160a01b0382169384159182156113045761129887600254611584565b6112a2308261192b565b6002555b156112f4575b50156112e4575b506112be308461192b565b7f67500e8d0ed826d2194f514dd0d8124f35648ab6e3fb5e6ed867134cffe661e95f80a4565b6112ee908461192b565b5f6112b3565b6112fe908661192b565b5f6112ac565b855f525f6020526113198760405f2054611787565b611323308261192b565b61132d858261192b565b865f525f60205260405f20556112a6565b815f525f60205260405f20548015611386579061135e816112759361168b565b91909161136b308261192b565b611375868261192b565b845f525f60205260405f2055611267565b826317fe473760e21b5f5260045260245ffd5b939594929390929091803b156114a6576040516346083bfd60e01b81526001600160a01b0393841660048201529383166024850152604484019490945260806064840152608483018190529216939091602091839160a4918391908190838501375f838284010152601f801991011681010301815f875af15f9181611472575b5061146e57823d15611467573d61142f81610f33565b9061143d6040519283610efc565b81523d5f602083013e5b805190816114625782638d51880160e01b5f5260045260245ffd5b602001fd5b6060611447565b9150565b9091506020813d60201161149e575b8161148e60209383610efc565b81010312610c975751905f611419565b3d9150611481565b505050505090506111096001611859565b91908215611573575b8015611565575b811561154f575b6064602092935f60018060a01b035f51602061198c5f395f51905f5254166040519687958694637702dcff60e01b86526004860152602485015260448401525af1908115610c8c575f91611520575090565b90506020813d602011611547575b8161153b60209383610efc565b81010312610c97575190565b3d915061152e565b60209150606461155d61180b565b9250506114ce565b5061156e61180b565b6114c7565b915061157e5f611859565b916114c0565b9081156115f8575b80156115e6575b602090606460018060a01b035f51602061198c5f395f51905f525416935f60405195869485936303056db360e31b8552600485015260248401528160448401525af1908115610c8c575f91611520575090565b5060206115f161180b565b9050611593565b905061160261180b565b9061158c565b90816020910312610c9757518015158103610c975790565b5f5160206119cc5f395f51905f52546040516382027b6d60e01b81529260209284926001600160a01b0316918391829161165d9160048401611216565b03915afa908115610c8c575f91611672575090565b611109915060203d6020116108fb576108ed8183610efc565b91909180156116b257806116ac6116a585611109946118a7565b9482611584565b846114b7565b821561175057505f51602061198c5f395f51905f525460405163f77f3f1d60e01b815260048101939093525f60248401819052600160f81b604485015260209184916064918391906001600160a01b03165af1918215610c8c575f9261171c575b5061110961180b565b9091506020813d602011611748575b8161173860209383610efc565b81010312610c975751905f611713565b3d915061172b565b915061175c6001611859565b9190565b91908215611750576117756111099184611787565b9261178081856118a7565b93846114b7565b9081156117fb575b80156117e9575b602090606460018060a01b035f51602061198c5f395f51905f525416935f604051958694859363022f65e760e31b8552600485015260248401528160448401525af1908115610c8c575f91611520575090565b5060206117f461180b565b9050611796565b905061180561180b565b9061178f565b5f51602061198c5f395f51905f5254604051639cd07acb60e01b81525f6004820152906001600160a01b0316816044815f602094600560248401525af1908115610c8c575f91611520575090565b5f51602061198c5f395f51905f5254604051639cd07acb60e01b815260048101929092526001600160a01b0316816044815f6020948160248401525af1908115610c8c575f91611520575090565b90811561191b575b8015611909575b602090606460018060a01b035f51602061198c5f395f51905f525416935f6040519586948593631391547f60e01b8552600485015260248401528160448401525af1908115610c8c575f91611520575090565b50602061191461180b565b90506118b6565b905061192561180b565b906118af565b5f5160206119cc5f395f51905f52546001600160a01b031691823b15610c975761196e925f9283604051809681958294635ca4b5b160e11b845260048401611216565b03925af18015610c8c5761197f5750565b5f61198991610efc565b56fe9e7b61f58c47dc699ac88507c4f5bb9f121c03808c5676a8078fe583e46497018be0079c531659141344cd1fd0a4f28419497f9722a3daafe3b4186f6b6457e09e7b61f58c47dc699ac88507c4f5bb9f121c03808c5676a8078fe583e4649700a164736f6c634300081b000a9e7b61f58c47dc699ac88507c4f5bb9f121c03808c5676a8078fe583e46497019e7b61f58c47dc699ac88507c4f5bb9f121c03808c5676a8078fe583e4649700","linkReferences":{}},"methodIdentifiers":{"acceptOwnership()":"79ba5097","confidentialBalanceOf(address)":"344ff101","confidentialProtocolId()":"8927b030","confidentialTotalSupply()":"54095227","confidentialTransfer(address,bytes32)":"5bebed7e","confidentialTransfer(address,bytes32,bytes)":"2fb74e62","confidentialTransferAndCall(address,bytes32,bytes)":"537d3c50","confidentialTransferAndCall(address,bytes32,bytes,bytes)":"de642119","confidentialTransferFrom(address,address,bytes32)":"eb3155b5","confidentialTransferFrom(address,address,bytes32,bytes)":"e064b9bb","confidentialTransferFromAndCall(address,address,bytes32,bytes)":"c7b8a75e","confidentialTransferFromAndCall(address,address,bytes32,bytes,bytes)":"34c45743","contractURI()":"e8a3d485","decimals()":"313ce567","discloseEncryptedAmount(bytes32,uint64,bytes)":"b1af281e","isOperator(address,address)":"b6363cf2","name()":"06fdde03","owner()":"8da5cb5b","pendingOwner()":"e30c3978","renounceOwnership()":"715018a6","requestDiscloseEncryptedAmount(bytes32)":"d8061806","setOperator(address,uint48)":"d4febb96","supportsInterface(bytes4)":"01ffc9a7","symbol()":"95d89b41","transferOwnership(address)":"f2fde38b"},"id":15}