{"abi":[{"type":"constructor","inputs":[{"name":"_controller","type":"address","internalType":"address"}],"stateMutability":"nonpayable"},{"type":"function","name":"burn","inputs":[{"name":"","type":"address","internalType":"address"},{"name":"","type":"uint256","internalType":"uint256"},{"name":"","type":"uint256","internalType":"uint256"}],"outputs":[],"stateMutability":"nonpayable"},{"type":"function","name":"controller","inputs":[],"outputs":[{"name":"","type":"address","internalType":"address"}],"stateMutability":"view"},{"type":"function","name":"donate","inputs":[{"name":"","type":"tuple","internalType":"struct PoolKey","components":[{"name":"currency0","type":"address","internalType":"Currency"},{"name":"currency1","type":"address","internalType":"Currency"},{"name":"fee","type":"uint24","internalType":"uint24"},{"name":"tickSpacing","type":"int24","internalType":"int24"},{"name":"hooks","type":"address","internalType":"contract IHooks"}]},{"name":"","type":"uint256","internalType":"uint256"},{"name":"","type":"uint256","internalType":"uint256"},{"name":"","type":"bytes","internalType":"bytes"}],"outputs":[{"name":"","type":"int256","internalType":"BalanceDelta"}],"stateMutability":"nonpayable"},{"type":"function","name":"extsload","inputs":[{"name":"","type":"bytes32","internalType":"bytes32"}],"outputs":[{"name":"","type":"bytes32","internalType":"bytes32"}],"stateMutability":"view"},{"type":"function","name":"extsload","inputs":[{"name":"","type":"bytes32[]","internalType":"bytes32[]"}],"outputs":[{"name":"","type":"bytes32[]","internalType":"bytes32[]"}],"stateMutability":"view"},{"type":"function","name":"exttload","inputs":[{"name":"","type":"bytes32[]","internalType":"bytes32[]"}],"outputs":[{"name":"","type":"bytes32[]","internalType":"bytes32[]"}],"stateMutability":"view"},{"type":"function","name":"initialize","inputs":[{"name":"","type":"tuple","internalType":"struct PoolKey","components":[{"name":"currency0","type":"address","internalType":"Currency"},{"name":"currency1","type":"address","internalType":"Currency"},{"name":"fee","type":"uint24","internalType":"uint24"},{"name":"tickSpacing","type":"int24","internalType":"int24"},{"name":"hooks","type":"address","internalType":"contract IHooks"}]},{"name":"","type":"uint160","internalType":"uint160"}],"outputs":[{"name":"","type":"int24","internalType":"int24"}],"stateMutability":"nonpayable"},{"type":"function","name":"mint","inputs":[{"name":"","type":"address","internalType":"address"},{"name":"","type":"uint256","internalType":"uint256"},{"name":"","type":"uint256","internalType":"uint256"}],"outputs":[],"stateMutability":"nonpayable"},{"type":"function","name":"modifyLiquidity","inputs":[{"name":"","type":"tuple","internalType":"struct PoolKey","components":[{"name":"currency0","type":"address","internalType":"Currency"},{"name":"currency1","type":"address","internalType":"Currency"},{"name":"fee","type":"uint24","internalType":"uint24"},{"name":"tickSpacing","type":"int24","internalType":"int24"},{"name":"hooks","type":"address","internalType":"contract IHooks"}]},{"name":"","type":"tuple","internalType":"struct ModifyLiquidityParams","components":[{"name":"tickLower","type":"int24","internalType":"int24"},{"name":"tickUpper","type":"int24","internalType":"int24"},{"name":"liquidityDelta","type":"int256","internalType":"int256"},{"name":"salt","type":"bytes32","internalType":"bytes32"}]},{"name":"","type":"bytes","internalType":"bytes"}],"outputs":[{"name":"","type":"int256","internalType":"BalanceDelta"},{"name":"","type":"int256","internalType":"BalanceDelta"}],"stateMutability":"nonpayable"},{"type":"function","name":"protocolFeeController","inputs":[],"outputs":[{"name":"","type":"address","internalType":"address"}],"stateMutability":"view"},{"type":"function","name":"settle","inputs":[],"outputs":[{"name":"","type":"uint256","internalType":"uint256"}],"stateMutability":"payable"},{"type":"function","name":"settleFor","inputs":[{"name":"","type":"address","internalType":"address"}],"outputs":[{"name":"","type":"uint256","internalType":"uint256"}],"stateMutability":"payable"},{"type":"function","name":"swap","inputs":[{"name":"","type":"tuple","internalType":"struct PoolKey","components":[{"name":"currency0","type":"address","internalType":"Currency"},{"name":"currency1","type":"address","internalType":"Currency"},{"name":"fee","type":"uint24","internalType":"uint24"},{"name":"tickSpacing","type":"int24","internalType":"int24"},{"name":"hooks","type":"address","internalType":"contract IHooks"}]},{"name":"params","type":"tuple","internalType":"struct SwapParams","components":[{"name":"zeroForOne","type":"bool","internalType":"bool"},{"name":"amountSpecified","type":"int256","internalType":"int256"},{"name":"sqrtPriceLimitX96","type":"uint160","internalType":"uint160"}]},{"name":"","type":"bytes","internalType":"bytes"}],"outputs":[{"name":"","type":"int256","internalType":"BalanceDelta"}],"stateMutability":"nonpayable"},{"type":"function","name":"take","inputs":[{"name":"","type":"address","internalType":"Currency"},{"name":"","type":"address","internalType":"address"},{"name":"","type":"uint256","internalType":"uint256"}],"outputs":[],"stateMutability":"nonpayable"},{"type":"function","name":"unlock","inputs":[{"name":"data","type":"bytes","internalType":"bytes"}],"outputs":[{"name":"","type":"bytes","internalType":"bytes"}],"stateMutability":"nonpayable"},{"type":"function","name":"updateDynamicLPFee","inputs":[{"name":"","type":"tuple","internalType":"struct PoolKey","components":[{"name":"currency0","type":"address","internalType":"Currency"},{"name":"currency1","type":"address","internalType":"Currency"},{"name":"fee","type":"uint24","internalType":"uint24"},{"name":"tickSpacing","type":"int24","internalType":"int24"},{"name":"hooks","type":"address","internalType":"contract IHooks"}]},{"name":"","type":"uint24","internalType":"uint24"}],"outputs":[],"stateMutability":"nonpayable"}],"bytecode":{"object":"0x60a034606557601f6107f838819003918201601f19168301916001600160401b03831184841017606957808492602094604052833981010312606557516001600160a01b038116810360655760805260405161077a908161007e82396080518160e10152f35b5f80fd5b634e487b7160e01b5f52604160045260245ffdfe6080806040526004361015610012575f80fd5b5f3560e01c9081630b0d9c09146104d057816311da60b4146104bd57508063156e29f6146101145780631e2eaeaf146104a2578063234266d71461045b5780633dd45adb1461044757806348c89491146102ee57806352759651146102c95780635a6bcfda146102215780636276cbbe146101f35780639bf6645f146101ee578063dbd035ff146101ee578063f02de3b2146101d4578063f3cd914c14610119578063f5298aca146101145763f77c4791146100cc575f80fd5b34610110575f366003190112610110576040517f00000000000000000000000000000000000000000000000000000000000000006001600160a01b03168152602090f35b5f80fd5b61051e565b34610110576101203660031901126101105761013436610579565b5060603660a319011261011057604051606081016001600160401b038111828210176101c05760405260a435801515810361011057815260c435602082015260e4356001600160a01b0381168103610110576040820152610104356001600160401b038111610110576020916101b16101b8923690600401610610565b5050610727565b604051908152f35b634e487b7160e01b5f52604160045260245ffd5b34610110575f3660031901126101105760206040515f8152f35b610653565b346101105760c03660031901126101105761020d36610579565b5061021661063d565b5060206040515f8152f35b34610110576101403660031901126101105761023c36610579565b5060803660a319011261011057604051608081016001600160401b038111828210176101c05760405260a4358060020b810361011057815260c4358060020b810361011057602082015260e435604082015261010435606090910152610124356001600160401b038111610110576102b8903690600401610610565b5050604080515f81525f6020820152f35b346101105760c0366003190112610110576102e336610579565b506102ec610567565b005b34610110576020366003190112610110576004356001600160401b038111610110575f6103216044923690600401610610565b82546001600160a01b031916331783556040516348eeb9a360e11b81526020600482015260248101829052938492909183918190838501378181018301859052601f01601f1916810103018183335af190811561043c575f916103b0575b6020604083815192839181835280519182918282860152018484015e5f828201840152601f01601f19168101030190f35b90503d805f833e6103c18183610544565b810190602081830312610110578051906001600160401b038211610110570181601f82011215610110578051916001600160401b0383116101c05760405190610414601f8501601f191660200183610544565b83825260208484010111610110575f602084819582604096018386015e83010152915061037f565b6040513d5f823e3d90fd5b6020366003190112610110576102166104f2565b34610110576101003660031901126101105761047636610579565b5060e4356001600160401b03811161011057610496903690600401610610565b505060206040515f8152f35b346101105760203660031901126101105760206040515f8152f35b5f36600319011261011057805f60209252f35b34610110576060366003190112610110576104e96104f2565b506102ec610508565b600435906001600160a01b038216820361011057565b602435906001600160a01b038216820361011057565b34610110576060366003190112610110576004356001600160a01b038116810361011057005b601f909101601f19168101906001600160401b038211908210176101c057604052565b60a4359062ffffff8216820361011057565b60a0906003190112610110576040519060a082016001600160401b038111838210176101c057604052816004356001600160a01b03811681036101105781526024356001600160a01b038116810361011057602082015260443562ffffff811681036101105760408201526064358060020b8103610110576060820152608435906001600160a01b03821682036101105760800152565b9181601f84011215610110578235916001600160401b038311610110576020838186019501011161011057565b60a435906001600160a01b038216820361011057565b34610110576020366003190112610110576004356001600160401b0381116101105736602382011215610110576004810135906001600160401b038211610110573660248360051b8301011161011057505060405160206106b48183610544565b5f82525f368137604051918291808301818452825180915281604085019301915f5b8281106106e557505050500390f35b8351855286955093810193928101926001016106d6565b600f0b60016001607f1b03198114610713575f0390565b634e487b7160e01b5f52601160045260245ffd5b602081015190511561074f57600f0b61073f816106fc565b600180607f1b03169060801b1790565b600f0b61075b816106fc565b60801b60016001607f1b03909116179056fea164736f6c634300081b000a","linkReferences":{}},"methodIdentifiers":{"burn(address,uint256,uint256)":"f5298aca","controller()":"f77c4791","donate((address,address,uint24,int24,address),uint256,uint256,bytes)":"234266d7","extsload(bytes32)":"1e2eaeaf","extsload(bytes32[])":"dbd035ff","exttload(bytes32[])":"9bf6645f","initialize((address,address,uint24,int24,address),uint160)":"6276cbbe","mint(address,uint256,uint256)":"156e29f6","modifyLiquidity((address,address,uint24,int24,address),(int24,int24,int256,bytes32),bytes)":"5a6bcfda","protocolFeeController()":"f02de3b2","settle()":"11da60b4","settleFor(address)":"3dd45adb","swap((address,address,uint24,int24,address),(bool,int256,uint160),bytes)":"f3cd914c","take(address,address,uint256)":"0b0d9c09","unlock(bytes)":"48c89491","updateDynamicLPFee((address,address,uint24,int24,address),uint24)":"52759651"},"id":11}