{"abi":[{"type":"function","name":"computeAddress","inputs":[{"name":"bytecode","type":"bytes","internalType":"bytes"},{"name":"_salt","type":"uint256","internalType":"uint256"}],"outputs":[{"name":"","type":"address","internalType":"address"}],"stateMutability":"view"},{"type":"function","name":"deploy","inputs":[{"name":"bytecode","type":"bytes","internalType":"bytes"},{"name":"_salt","type":"uint256","internalType":"uint256"}],"outputs":[{"name":"","type":"address","internalType":"address"}],"stateMutability":"payable"},{"type":"event","name":"Deploy","inputs":[{"name":"addr","type":"address","indexed":false,"internalType":"address"}],"anonymous":false}],"bytecode":{"object":"0x608080604052346015576101d2908161001a8239f35b5f80fdfe60806040526004361015610011575f80fd5b5f3560e01c806381176c201461003457639c4ae2d01461002f575f80fd5b61016b565b346100b1576100ad610093610048366100f1565b90602081519101209060405191602083019160ff60f81b83523060601b602185015260358401526055830152605582526100836075836100c9565b905190206001600160a01b031690565b6040516001600160a01b0390911681529081906020820190565b0390f35b5f80fd5b634e487b7160e01b5f52604160045260245ffd5b601f909101601f19168101906001600160401b038211908210176100ec57604052565b6100b5565b60406003198201126100b1576004356001600160401b0381116100b157816023820112156100b1576004810135906001600160401b0382116100ec5760405192610145601f8401601f1916602001856100c9565b828452602483830101116100b157815f9260246020930183860137830101529060243590565b610174366100f1565b9060208151910134f5803b156100b1576040516001600160a01b039091168082526020917f55ea6c6b31543d8e2ec6a72f71a79c0f4b72ed0d4757172b043d8f4f4cd84848908390a1604051908152f3fea164736f6c634300081b000a","linkReferences":{}},"methodIdentifiers":{"computeAddress(bytes,uint256)":"81176c20","deploy(bytes,uint256)":"9c4ae2d0"},"id":12}