{"abi":[{"type":"constructor","inputs":[{"name":"_poolManager","type":"address","internalType":"contract IPoolManager"},{"name":"_relayer","type":"address","internalType":"address"},{"name":"_pyth","type":"address","internalType":"address"}],"stateMutability":"nonpayable"},{"type":"receive","stateMutability":"payable"},{"type":"function","name":"ETH_USD_PRICE_FEED","inputs":[],"outputs":[{"name":"","type":"bytes32","internalType":"bytes32"}],"stateMutability":"view"},{"type":"function","name":"acceptOwnership","inputs":[],"outputs":[],"stateMutability":"nonpayable"},{"type":"function","name":"afterAddLiquidity","inputs":[{"name":"sender","type":"address","internalType":"address"},{"name":"key","type":"tuple","internalType":"struct PoolKey","components":[{"name":"currency0","type":"address","internalType":"Currency"},{"name":"currency1","type":"address","internalType":"Currency"},{"name":"fee","type":"uint24","internalType":"uint24"},{"name":"tickSpacing","type":"int24","internalType":"int24"},{"name":"hooks","type":"address","internalType":"contract IHooks"}]},{"name":"params","type":"tuple","internalType":"struct ModifyLiquidityParams","components":[{"name":"tickLower","type":"int24","internalType":"int24"},{"name":"tickUpper","type":"int24","internalType":"int24"},{"name":"liquidityDelta","type":"int256","internalType":"int256"},{"name":"salt","type":"bytes32","internalType":"bytes32"}]},{"name":"delta","type":"int256","internalType":"BalanceDelta"},{"name":"feesAccrued","type":"int256","internalType":"BalanceDelta"},{"name":"hookData","type":"bytes","internalType":"bytes"}],"outputs":[{"name":"","type":"bytes4","internalType":"bytes4"},{"name":"","type":"int256","internalType":"BalanceDelta"}],"stateMutability":"nonpayable"},{"type":"function","name":"afterDonate","inputs":[{"name":"sender","type":"address","internalType":"address"},{"name":"key","type":"tuple","internalType":"struct PoolKey","components":[{"name":"currency0","type":"address","internalType":"Currency"},{"name":"currency1","type":"address","internalType":"Currency"},{"name":"fee","type":"uint24","internalType":"uint24"},{"name":"tickSpacing","type":"int24","internalType":"int24"},{"name":"hooks","type":"address","internalType":"contract IHooks"}]},{"name":"amount0","type":"uint256","internalType":"uint256"},{"name":"amount1","type":"uint256","internalType":"uint256"},{"name":"hookData","type":"bytes","internalType":"bytes"}],"outputs":[{"name":"","type":"bytes4","internalType":"bytes4"}],"stateMutability":"nonpayable"},{"type":"function","name":"afterInitialize","inputs":[{"name":"sender","type":"address","internalType":"address"},{"name":"key","type":"tuple","internalType":"struct PoolKey","components":[{"name":"currency0","type":"address","internalType":"Currency"},{"name":"currency1","type":"address","internalType":"Currency"},{"name":"fee","type":"uint24","internalType":"uint24"},{"name":"tickSpacing","type":"int24","internalType":"int24"},{"name":"hooks","type":"address","internalType":"contract IHooks"}]},{"name":"sqrtPriceX96","type":"uint160","internalType":"uint160"},{"name":"tick","type":"int24","internalType":"int24"}],"outputs":[{"name":"","type":"bytes4","internalType":"bytes4"}],"stateMutability":"nonpayable"},{"type":"function","name":"afterRemoveLiquidity","inputs":[{"name":"sender","type":"address","internalType":"address"},{"name":"key","type":"tuple","internalType":"struct PoolKey","components":[{"name":"currency0","type":"address","internalType":"Currency"},{"name":"currency1","type":"address","internalType":"Currency"},{"name":"fee","type":"uint24","internalType":"uint24"},{"name":"tickSpacing","type":"int24","internalType":"int24"},{"name":"hooks","type":"address","internalType":"contract IHooks"}]},{"name":"params","type":"tuple","internalType":"struct ModifyLiquidityParams","components":[{"name":"tickLower","type":"int24","internalType":"int24"},{"name":"tickUpper","type":"int24","internalType":"int24"},{"name":"liquidityDelta","type":"int256","internalType":"int256"},{"name":"salt","type":"bytes32","internalType":"bytes32"}]},{"name":"delta","type":"int256","internalType":"BalanceDelta"},{"name":"feesAccrued","type":"int256","internalType":"BalanceDelta"},{"name":"hookData","type":"bytes","internalType":"bytes"}],"outputs":[{"name":"","type":"bytes4","internalType":"bytes4"},{"name":"","type":"int256","internalType":"BalanceDelta"}],"stateMutability":"nonpayable"},{"type":"function","name":"afterSwap","inputs":[{"name":"sender","type":"address","internalType":"address"},{"name":"key","type":"tuple","internalType":"struct PoolKey","components":[{"name":"currency0","type":"address","internalType":"Currency"},{"name":"currency1","type":"address","internalType":"Currency"},{"name":"fee","type":"uint24","internalType":"uint24"},{"name":"tickSpacing","type":"int24","internalType":"int24"},{"name":"hooks","type":"address","internalType":"contract IHooks"}]},{"name":"params","type":"tuple","internalType":"struct SwapParams","components":[{"name":"zeroForOne","type":"bool","internalType":"bool"},{"name":"amountSpecified","type":"int256","internalType":"int256"},{"name":"sqrtPriceLimitX96","type":"uint160","internalType":"uint160"}]},{"name":"delta","type":"int256","internalType":"BalanceDelta"},{"name":"hookData","type":"bytes","internalType":"bytes"}],"outputs":[{"name":"","type":"bytes4","internalType":"bytes4"},{"name":"","type":"int128","internalType":"int128"}],"stateMutability":"nonpayable"},{"type":"function","name":"batchCounter","inputs":[{"name":"","type":"bytes32","internalType":"PoolId"}],"outputs":[{"name":"","type":"uint64","internalType":"uint64"}],"stateMutability":"view"},{"type":"function","name":"batches","inputs":[{"name":"","type":"bytes32","internalType":"bytes32"}],"outputs":[{"name":"poolId","type":"bytes32","internalType":"bytes32"},{"name":"finalized","type":"bool","internalType":"bool"},{"name":"settled","type":"bool","internalType":"bool"},{"name":"counter","type":"uint64","internalType":"uint64"},{"name":"totalIntents","type":"uint256","internalType":"uint256"},{"name":"finalizedTimestamp","type":"uint256","internalType":"uint256"}],"stateMutability":"view"},{"type":"function","name":"beforeAddLiquidity","inputs":[{"name":"sender","type":"address","internalType":"address"},{"name":"key","type":"tuple","internalType":"struct PoolKey","components":[{"name":"currency0","type":"address","internalType":"Currency"},{"name":"currency1","type":"address","internalType":"Currency"},{"name":"fee","type":"uint24","internalType":"uint24"},{"name":"tickSpacing","type":"int24","internalType":"int24"},{"name":"hooks","type":"address","internalType":"contract IHooks"}]},{"name":"params","type":"tuple","internalType":"struct ModifyLiquidityParams","components":[{"name":"tickLower","type":"int24","internalType":"int24"},{"name":"tickUpper","type":"int24","internalType":"int24"},{"name":"liquidityDelta","type":"int256","internalType":"int256"},{"name":"salt","type":"bytes32","internalType":"bytes32"}]},{"name":"hookData","type":"bytes","internalType":"bytes"}],"outputs":[{"name":"","type":"bytes4","internalType":"bytes4"}],"stateMutability":"nonpayable"},{"type":"function","name":"beforeDonate","inputs":[{"name":"sender","type":"address","internalType":"address"},{"name":"key","type":"tuple","internalType":"struct PoolKey","components":[{"name":"currency0","type":"address","internalType":"Currency"},{"name":"currency1","type":"address","internalType":"Currency"},{"name":"fee","type":"uint24","internalType":"uint24"},{"name":"tickSpacing","type":"int24","internalType":"int24"},{"name":"hooks","type":"address","internalType":"contract IHooks"}]},{"name":"amount0","type":"uint256","internalType":"uint256"},{"name":"amount1","type":"uint256","internalType":"uint256"},{"name":"hookData","type":"bytes","internalType":"bytes"}],"outputs":[{"name":"","type":"bytes4","internalType":"bytes4"}],"stateMutability":"nonpayable"},{"type":"function","name":"beforeInitialize","inputs":[{"name":"sender","type":"address","internalType":"address"},{"name":"key","type":"tuple","internalType":"struct PoolKey","components":[{"name":"currency0","type":"address","internalType":"Currency"},{"name":"currency1","type":"address","internalType":"Currency"},{"name":"fee","type":"uint24","internalType":"uint24"},{"name":"tickSpacing","type":"int24","internalType":"int24"},{"name":"hooks","type":"address","internalType":"contract IHooks"}]},{"name":"sqrtPriceX96","type":"uint160","internalType":"uint160"}],"outputs":[{"name":"","type":"bytes4","internalType":"bytes4"}],"stateMutability":"nonpayable"},{"type":"function","name":"beforeRemoveLiquidity","inputs":[{"name":"sender","type":"address","internalType":"address"},{"name":"key","type":"tuple","internalType":"struct PoolKey","components":[{"name":"currency0","type":"address","internalType":"Currency"},{"name":"currency1","type":"address","internalType":"Currency"},{"name":"fee","type":"uint24","internalType":"uint24"},{"name":"tickSpacing","type":"int24","internalType":"int24"},{"name":"hooks","type":"address","internalType":"contract IHooks"}]},{"name":"params","type":"tuple","internalType":"struct ModifyLiquidityParams","components":[{"name":"tickLower","type":"int24","internalType":"int24"},{"name":"tickUpper","type":"int24","internalType":"int24"},{"name":"liquidityDelta","type":"int256","internalType":"int256"},{"name":"salt","type":"bytes32","internalType":"bytes32"}]},{"name":"hookData","type":"bytes","internalType":"bytes"}],"outputs":[{"name":"","type":"bytes4","internalType":"bytes4"}],"stateMutability":"nonpayable"},{"type":"function","name":"beforeSwap","inputs":[{"name":"sender","type":"address","internalType":"address"},{"name":"key","type":"tuple","internalType":"struct PoolKey","components":[{"name":"currency0","type":"address","internalType":"Currency"},{"name":"currency1","type":"address","internalType":"Currency"},{"name":"fee","type":"uint24","internalType":"uint24"},{"name":"tickSpacing","type":"int24","internalType":"int24"},{"name":"hooks","type":"address","internalType":"contract IHooks"}]},{"name":"params","type":"tuple","internalType":"struct SwapParams","components":[{"name":"zeroForOne","type":"bool","internalType":"bool"},{"name":"amountSpecified","type":"int256","internalType":"int256"},{"name":"sqrtPriceLimitX96","type":"uint160","internalType":"uint160"}]},{"name":"hookData","type":"bytes","internalType":"bytes"}],"outputs":[{"name":"","type":"bytes4","internalType":"bytes4"},{"name":"","type":"int256","internalType":"BeforeSwapDelta"},{"name":"","type":"uint24","internalType":"uint24"}],"stateMutability":"nonpayable"},{"type":"function","name":"confidentialProtocolId","inputs":[],"outputs":[{"name":"","type":"uint256","internalType":"uint256"}],"stateMutability":"view"},{"type":"function","name":"currentBatchId","inputs":[{"name":"","type":"bytes32","internalType":"PoolId"}],"outputs":[{"name":"","type":"bytes32","internalType":"bytes32"}],"stateMutability":"view"},{"type":"function","name":"deltaZeroStrategy","inputs":[],"outputs":[{"name":"","type":"address","internalType":"contract IDeltaZeroStrategy"}],"stateMutability":"view"},{"type":"function","name":"deposit","inputs":[{"name":"key","type":"tuple","internalType":"struct PoolKey","components":[{"name":"currency0","type":"address","internalType":"Currency"},{"name":"currency1","type":"address","internalType":"Currency"},{"name":"fee","type":"uint24","internalType":"uint24"},{"name":"tickSpacing","type":"int24","internalType":"int24"},{"name":"hooks","type":"address","internalType":"contract IHooks"}]},{"name":"currency","type":"address","internalType":"Currency"},{"name":"amount","type":"uint256","internalType":"uint256"}],"outputs":[],"stateMutability":"nonpayable"},{"type":"function","name":"finalizeBatch","inputs":[{"name":"poolId","type":"bytes32","internalType":"PoolId"}],"outputs":[],"stateMutability":"nonpayable"},{"type":"function","name":"getHookPermissions","inputs":[],"outputs":[{"name":"","type":"tuple","internalType":"struct Hooks.Permissions","components":[{"name":"beforeInitialize","type":"bool","internalType":"bool"},{"name":"afterInitialize","type":"bool","internalType":"bool"},{"name":"beforeAddLiquidity","type":"bool","internalType":"bool"},{"name":"afterAddLiquidity","type":"bool","internalType":"bool"},{"name":"beforeRemoveLiquidity","type":"bool","internalType":"bool"},{"name":"afterRemoveLiquidity","type":"bool","internalType":"bool"},{"name":"beforeSwap","type":"bool","internalType":"bool"},{"name":"afterSwap","type":"bool","internalType":"bool"},{"name":"beforeDonate","type":"bool","internalType":"bool"},{"name":"afterDonate","type":"bool","internalType":"bool"},{"name":"beforeSwapReturnDelta","type":"bool","internalType":"bool"},{"name":"afterSwapReturnDelta","type":"bool","internalType":"bool"},{"name":"afterAddLiquidityReturnDelta","type":"bool","internalType":"bool"},{"name":"afterRemoveLiquidityReturnDelta","type":"bool","internalType":"bool"}]}],"stateMutability":"pure"},{"type":"function","name":"intents","inputs":[{"name":"","type":"bytes32","internalType":"bytes32"}],"outputs":[{"name":"encryptedAmount","type":"bytes32","internalType":"euint64"},{"name":"encryptedAction","type":"bytes32","internalType":"euint8"},{"name":"owner","type":"address","internalType":"address"},{"name":"deadline","type":"uint64","internalType":"uint64"},{"name":"processed","type":"bool","internalType":"bool"},{"name":"poolKey","type":"tuple","internalType":"struct PoolKey","components":[{"name":"currency0","type":"address","internalType":"Currency"},{"name":"currency1","type":"address","internalType":"Currency"},{"name":"fee","type":"uint24","internalType":"uint24"},{"name":"tickSpacing","type":"int24","internalType":"int24"},{"name":"hooks","type":"address","internalType":"contract IHooks"}]},{"name":"batchId","type":"bytes32","internalType":"bytes32"},{"name":"submitTimestamp","type":"uint256","internalType":"uint256"}],"stateMutability":"view"},{"type":"function","name":"maxSwapAmount","inputs":[{"name":"","type":"address","internalType":"Currency"}],"outputs":[{"name":"","type":"uint256","internalType":"uint256"}],"stateMutability":"view"},{"type":"function","name":"owner","inputs":[],"outputs":[{"name":"","type":"address","internalType":"address"}],"stateMutability":"view"},{"type":"function","name":"pendingOwner","inputs":[],"outputs":[{"name":"","type":"address","internalType":"address"}],"stateMutability":"view"},{"type":"function","name":"poolEncryptedTokens","inputs":[{"name":"","type":"bytes32","internalType":"PoolId"},{"name":"","type":"address","internalType":"Currency"}],"outputs":[{"name":"","type":"address","internalType":"contract PoolEncryptedToken"}],"stateMutability":"view"},{"type":"function","name":"poolManager","inputs":[],"outputs":[{"name":"","type":"address","internalType":"contract IPoolManager"}],"stateMutability":"view"},{"type":"function","name":"poolReserves","inputs":[{"name":"","type":"bytes32","internalType":"PoolId"}],"outputs":[{"name":"currency0Reserve","type":"uint256","internalType":"uint256"},{"name":"currency1Reserve","type":"uint256","internalType":"uint256"},{"name":"totalDeposits","type":"uint256","internalType":"uint256"},{"name":"totalWithdrawals","type":"uint256","internalType":"uint256"}],"stateMutability":"view"},{"type":"function","name":"pyth","inputs":[],"outputs":[{"name":"","type":"address","internalType":"contract IPyth"}],"stateMutability":"view"},{"type":"function","name":"relayer","inputs":[],"outputs":[{"name":"","type":"address","internalType":"address"}],"stateMutability":"view"},{"type":"function","name":"renounceOwnership","inputs":[],"outputs":[],"stateMutability":"nonpayable"},{"type":"function","name":"setDeltaZeroStrategy","inputs":[{"name":"strategy","type":"address","internalType":"address"}],"outputs":[],"stateMutability":"nonpayable"},{"type":"function","name":"setMaxSwapAmount","inputs":[{"name":"token","type":"address","internalType":"Currency"},{"name":"maxAmount","type":"uint256","internalType":"uint256"}],"outputs":[],"stateMutability":"nonpayable"},{"type":"function","name":"setSimpleLending","inputs":[{"name":"lending","type":"address","internalType":"address"}],"outputs":[],"stateMutability":"nonpayable"},{"type":"function","name":"settleBatch","inputs":[{"name":"batchId","type":"bytes32","internalType":"bytes32"},{"name":"internalTransfers","type":"tuple[]","internalType":"struct IntentTypes.InternalTransfer[]","components":[{"name":"from","type":"address","internalType":"address"},{"name":"to","type":"address","internalType":"address"},{"name":"encryptedToken","type":"address","internalType":"address"},{"name":"encryptedAmount","type":"bytes32","internalType":"euint64"}]},{"name":"netAmountIn","type":"uint128","internalType":"uint128"},{"name":"tokenIn","type":"address","internalType":"Currency"},{"name":"tokenOut","type":"address","internalType":"Currency"},{"name":"outputToken","type":"address","internalType":"address"},{"name":"userShares","type":"tuple[]","internalType":"struct IntentTypes.UserShare[]","components":[{"name":"user","type":"address","internalType":"address"},{"name":"shareNumerator","type":"uint128","internalType":"uint128"},{"name":"shareDenominator","type":"uint128","internalType":"uint128"}]},{"name":"pythPriceUpdate","type":"bytes","internalType":"bytes"}],"outputs":[],"stateMutability":"payable"},{"type":"function","name":"simpleLending","inputs":[],"outputs":[{"name":"","type":"address","internalType":"contract ISimpleLending"}],"stateMutability":"view"},{"type":"function","name":"submitIntent","inputs":[{"name":"key","type":"tuple","internalType":"struct PoolKey","components":[{"name":"currency0","type":"address","internalType":"Currency"},{"name":"currency1","type":"address","internalType":"Currency"},{"name":"fee","type":"uint24","internalType":"uint24"},{"name":"tickSpacing","type":"int24","internalType":"int24"},{"name":"hooks","type":"address","internalType":"contract IHooks"}]},{"name":"inputCurrency","type":"address","internalType":"Currency"},{"name":"encAmount","type":"bytes32","internalType":"externalEuint64"},{"name":"amountProof","type":"bytes","internalType":"bytes"},{"name":"encAction","type":"bytes32","internalType":"externalEuint8"},{"name":"actionProof","type":"bytes","internalType":"bytes"},{"name":"deadline","type":"uint64","internalType":"uint64"}],"outputs":[{"name":"intentId","type":"bytes32","internalType":"bytes32"}],"stateMutability":"nonpayable"},{"type":"function","name":"testAfterSwap","inputs":[{"name":"sender","type":"address","internalType":"address"},{"name":"key","type":"tuple","internalType":"struct PoolKey","components":[{"name":"currency0","type":"address","internalType":"Currency"},{"name":"currency1","type":"address","internalType":"Currency"},{"name":"fee","type":"uint24","internalType":"uint24"},{"name":"tickSpacing","type":"int24","internalType":"int24"},{"name":"hooks","type":"address","internalType":"contract IHooks"}]},{"name":"params","type":"tuple","internalType":"struct SwapParams","components":[{"name":"zeroForOne","type":"bool","internalType":"bool"},{"name":"amountSpecified","type":"int256","internalType":"int256"},{"name":"sqrtPriceLimitX96","type":"uint160","internalType":"uint160"}]},{"name":"delta","type":"int256","internalType":"BalanceDelta"},{"name":"hookData","type":"bytes","internalType":"bytes"}],"outputs":[{"name":"","type":"bytes4","internalType":"bytes4"},{"name":"","type":"int128","internalType":"int128"}],"stateMutability":"nonpayable"},{"type":"function","name":"testBeforeSwap","inputs":[{"name":"sender","type":"address","internalType":"address"},{"name":"key","type":"tuple","internalType":"struct PoolKey","components":[{"name":"currency0","type":"address","internalType":"Currency"},{"name":"currency1","type":"address","internalType":"Currency"},{"name":"fee","type":"uint24","internalType":"uint24"},{"name":"tickSpacing","type":"int24","internalType":"int24"},{"name":"hooks","type":"address","internalType":"contract IHooks"}]},{"name":"params","type":"tuple","internalType":"struct SwapParams","components":[{"name":"zeroForOne","type":"bool","internalType":"bool"},{"name":"amountSpecified","type":"int256","internalType":"int256"},{"name":"sqrtPriceLimitX96","type":"uint160","internalType":"uint160"}]},{"name":"hookData","type":"bytes","internalType":"bytes"}],"outputs":[{"name":"","type":"bytes4","internalType":"bytes4"},{"name":"","type":"int256","internalType":"BeforeSwapDelta"},{"name":"","type":"uint24","internalType":"uint24"}],"stateMutability":"nonpayable"},{"type":"function","name":"transferOwnership","inputs":[{"name":"newOwner","type":"address","internalType":"address"}],"outputs":[],"stateMutability":"nonpayable"},{"type":"function","name":"unlockCallback","inputs":[{"name":"data","type":"bytes","internalType":"bytes"}],"outputs":[{"name":"","type":"bytes","internalType":"bytes"}],"stateMutability":"nonpayable"},{"type":"function","name":"updateRelayer","inputs":[{"name":"newRelayer","type":"address","internalType":"address"}],"outputs":[],"stateMutability":"nonpayable"},{"type":"function","name":"withdraw","inputs":[{"name":"key","type":"tuple","internalType":"struct PoolKey","components":[{"name":"currency0","type":"address","internalType":"Currency"},{"name":"currency1","type":"address","internalType":"Currency"},{"name":"fee","type":"uint24","internalType":"uint24"},{"name":"tickSpacing","type":"int24","internalType":"int24"},{"name":"hooks","type":"address","internalType":"contract IHooks"}]},{"name":"currency","type":"address","internalType":"Currency"},{"name":"amount","type":"uint256","internalType":"uint256"},{"name":"recipient","type":"address","internalType":"address"}],"outputs":[],"stateMutability":"nonpayable"},{"type":"event","name":"BatchSettled","inputs":[{"name":"batchId","type":"bytes32","indexed":true,"internalType":"bytes32"},{"name":"internalTransfers","type":"uint256","indexed":false,"internalType":"uint256"},{"name":"netAmountIn","type":"uint128","indexed":false,"internalType":"uint128"},{"name":"amountOut","type":"uint128","indexed":false,"internalType":"uint128"}],"anonymous":false},{"type":"event","name":"OwnershipTransferStarted","inputs":[{"name":"previousOwner","type":"address","indexed":true,"internalType":"address"},{"name":"newOwner","type":"address","indexed":true,"internalType":"address"}],"anonymous":false},{"type":"event","name":"OwnershipTransferred","inputs":[{"name":"previousOwner","type":"address","indexed":true,"internalType":"address"},{"name":"newOwner","type":"address","indexed":true,"internalType":"address"}],"anonymous":false},{"type":"event","name":"PythPriceConsumed","inputs":[{"name":"ethPriceUsd","type":"int64","indexed":false,"internalType":"int64"},{"name":"timestamp","type":"uint256","indexed":false,"internalType":"uint256"}],"anonymous":false},{"type":"error","name":"ERR","inputs":[{"name":"code","type":"uint8","internalType":"uint8"}]},{"type":"error","name":"HookNotImplemented","inputs":[]},{"type":"error","name":"NotPoolManager","inputs":[]},{"type":"error","name":"OwnableInvalidOwner","inputs":[{"name":"owner","type":"address","internalType":"address"}]},{"type":"error","name":"OwnableUnauthorizedAccount","inputs":[{"name":"account","type":"address","internalType":"address"}]},{"type":"error","name":"ReentrancyGuardReentrantCall","inputs":[]},{"type":"error","name":"SafeERC20FailedOperation","inputs":[{"name":"token","type":"address","internalType":"address"}]},{"type":"error","name":"ZamaProtocolUnsupported","inputs":[]}],"bytecode":{"object":"0x60c06040523461036957604051601f61616138819003918201601f19168301916001600160401b0383118484101761036d578084926060946040528339810103126103695780516001600160a01b03811681036103695761006e6040610067602085016103a0565b93016103a0565b9060805261007a6103b4565b50466001036102855761008b6103b4565b50610094610381565b5f81525f60208201525f60408201525b80517f9e7b61f58c47dc699ac88507c4f5bb9f121c03808c5676a8078fe583e464970080546001600160a01b03199081166001600160a01b039384161790915560208301517f9e7b61f58c47dc699ac88507c4f5bb9f121c03808c5676a8078fe583e4649701805483169184169190911790556040909201517f9e7b61f58c47dc699ac88507c4f5bb9f121c03808c5676a8078fe583e464970280549093169116179055331561027257600180546001600160a01b03199081169091555f805433928116831782556040519492916001600160a01b03909116907f8be0079c531659141344cd1fd0a4f28419497f9722a3daafe3b4186f6b6457e09080a36001600160a01b031690811561025e576001600160a01b031690811561024b57600880546001600160a01b03191691909117905560a052615d9290816103cf82396080518181816108c301528181610fa30152818161102d01528181611085015281816113d9015281816114b101528181611e190152818161233c015281816123a601528181612426015281816124e90152612c81015260a05181818161044301526131cf0152f35b632fbfa18760e11b5f526004805260245ffd5b632fbfa18760e11b5f52600b60045260245ffd5b631e4fbdf760e01b5f525f60045260245ffd5b4662aa36a7036102f0576102976103b4565b506102a0610381565b73f0ffdc93b7e186bc2f8cb3daa75d86d1930a433d81527392c920834ec8941d2c77d188936e1f7a6f49c127602082015273be0e383937d564d7ff0bc3b46c51f0bf8d5c311a60408201526100a4565b46617a690361035a576103016103b4565b5061030a610381565b7350157cffd6bbfa2dece204a89ec419c23ef5755d815273e3a9105a3a932253a70f126eb1e3b589c643dd24602082015273901f8942346f7ab3a01f6d7613119bca447bb03060408201526100a4565b6373cac13b60e01b5f5260045ffd5b5f80fd5b634e487b7160e01b5f52604160045260245ffd5b60405190606082016001600160401b0381118382101761036d57604052565b51906001600160a01b038216820361036957565b6103bc610381565b905f82525f60208301525f604083015256fe60e080604052600436101561001c575b50361561001a575f80fd5b005b5f60c0525f3560e01c90816317c75380146125d1575080631bcfaaa91461252a57806321d0ee70146124d6578063259982e5146124d657806334356362146124a4578063554f436614612461578063575e24b4146124115780636b3bf9cf146123e95780636c2bbe7e146123935780636fac2187146123795780636fe7e6eb14612301578063715018a6146122b1578063739919ed1461221357806379ba5097146121a15780638219b930146121775780638406c0791461214f5780638927b0301461212d5780638da5cb5b146121065780638f83ab13146120ac5780639021578a1461201257806391dd734614611de75780639c1f42c4146114f85780639f063efc1461149e578063a589d3191461145a578063b0f0abe914611431578063b47b2fb1146113c3578063b6a8b0fa14610f90578063c4e833ce14611224578063c81e25ab146111ad578063c8dc556814611160578063da4bde0f14611110578063db442256146110b4578063dc4c90d31461106e578063dc98354e14610ffc578063e1b4af6914610f90578063e30c397814610f66578063e788101114610f2a578063e8d535e214610b90578063ed97b51d146104e8578063f2fde38b14610472578063f98d06f01461042c5763fb643fde146101fa575f61000f565b3461042657366003190161010081126104265760a0136104265761021c61260a565b60e4359060c435906001600160a01b0383168084036104265761023d613047565b821561040e57156103f75760a0610253366129a8565b20928360c051526002602052604060c0512060018060a01b0383165f5260205260405f2060018060a01b0390541680156103df576102d1906020906102a06001600160401b03871661307c565b906102ab30836134df565b6102b581836134df565b604051808095819463588f0b0160e01b83523360048401612b1a565b039160c051905af180156103d25761039a575b506103679061036c9460c0515260036020526003604060c051209360018060a01b03169360018060a01b03610317612a4a565b16850361038457610329868254612b56565b81555b01610338858254612b35565b905561035960405194859263a9059cbb60e01b602085015260248401612b1a565b03601f198101845283612860565b6135e5565b60c0515f516020615d665f395f51905f525d60c05180f35b60018101610393878254612b56565b905561032c565b906020823d6020116103ca575b816103b460209383612860565b810103126103c65790506103676102e4565b5f80fd5b3d91506103a7565b6040513d60c051823e3d90fd5b632fbfa18760e11b60c051526003600452602460c051fd5b632fbfa18760e11b60c0515260048052602460c051fd5b632fbfa18760e11b60c051526005600452602460c051fd5b60c05180fd5b346104265760c051366003190112610426576040517f00000000000000000000000000000000000000000000000000000000000000006001600160a01b03168152602090f35b346104265760203660031901126104265761048b6125f4565b610493612b63565b600180546001600160a01b0319166001600160a01b0392831690811790915560c0518054919291909116907f38d16b8cac22d99fc7c124b9cd0de2d3fa1faef420bfe791d8c362d765e227009080a360c05180f35b610100366003190112610426576001600160401b036024351161042657366023602435011215610426576001600160401b0360046024350135116104265736602480356004013560071b8135010111610426576044356001600160801b0381168103610426576064356001600160a01b038116810361042657608435906001600160a01b03821682036104265761057d61260a565b926001600160401b0360c435116104265736602360c435011215610426576001600160401b03600460c43501351161042657366024606060c435600401350260c4350101116104265760e4356001600160401b038111610426576105e5903690600401612634565b9390926105f0613047565b6008546001600160a01b03163303610b785760043560c051526007602052604060c0512095600287015460ff811615610b605760081c60ff16610b4857865415610b30578660c05152602060c0512060c051505460c05160031b1c60c0515260046020526106656003604060c0512001612883565b9160a083209360c0515b60243560040135811015610733576106e7906020602435600783901b016001600160a01b036106a060648301612a76565b166084820135916106b182846134df565b6106c960446106c260248401612a76565b9201612a76565b60405163a64c9d4360e01b8152968794859384939060048501612acf565b039160c051905af19182156103d257600192610705575b500161066f565b6107259060203d811161072c575b61071d8183612860565b810190612ac0565b508b6106fe565b503d610713565b5060c051899890976001600160801b038816610813575b5050505060028601805461ff001916610100179055505060c05190505b83548110156107ac578061077d60019286612af1565b90549060031b1c60c0515260046020526002604060c05120018260e01b60ff60e01b1982541617905501610767565b5060408051600460243581013582526001600160801b039384166020830152929093169083015235907f617482a4024b829ecc867b4b6a3a5109b687e17413196639c7447c0fd8979ed990606090a260c0515f516020615d665f395f51905f525d60c05180f35b61082292939495969850613172565b60070b80610afa575b50600980546001600160801b03191690556040519161084d60208401866128d6565b60c083018790526001600160801b03861660e08401526001600160a01b039081166101008401521661012080830191909152815261088d61014082612860565b604051906348c8949160e01b82526020600483015281806108b560c051936024830190612919565b038160c05160018060a01b037f0000000000000000000000000000000000000000000000000000000000000000165af180156103d257610aab575b506009546001600160801b0316918215610a9357600a54929485936001600160a01b03169081610a22575b50505073__$a76186c3d7dc11dbe749538117a3847be8$__90813b15610426576040519263aea3cc8160e01b8452606484019160018060a01b0316600485015260248401526060604484015260c435600401359052816084810191602460c4350160c0515b60c4356004013581106109c8575050818060c0519403915af480156103d2576109af575b80808080808061074a565b60c0516109bb91612860565b60c05161042657836109a4565b91925092606080600192838060a01b036109e188612620565b168152838060801b036109f660208901612994565b166020820152838060801b03610a0e60408901612994565b166040820152019401910190849291610980565b813b156104265760405163563a04eb60e01b815292610a459060048501906128d6565b60a48301526001600160801b03851660c483015260c05190829060e490829084905af180156103d257610a7a575b808061091b565b60c051610a8691612860565b60c0516104265785610a73565b632fbfa18760e11b60c051526013600452602460c051fd5b3d8060c051833e610abc8183612860565b810190602081830312610426578051906001600160401b03821161042657019080601f83011215610426578151610af5926020016133d1565b6108f0565b60407f26e39ff43bf8044ba96924e7ff18700096d5c48af13900b1cf0e1e0024b4d3c5918151908152426020820152a18761082b565b634e487b7160e01b60c051526032600452602460c051fd5b632fbfa18760e11b60c051526008600452602460c051fd5b632fbfa18760e11b60c051526007600452602460c051fd5b632fbfa18760e11b60c05152600a600452602460c051fd5b3461042657366003190160e081126104265760a01361042657610bb161260a565b60c43590610bbd613047565b811561040e5760a0610bce366129a8565b20906084356001600160a01b03811690819003610426573003610f12576001600160a01b038181169190610c00612a4a565b1682141580610ef8575b610ee0578260c051526002602052604060c05120825f5260205260405f2060018060a01b03905416908115610d80575b506020610cc691610c7a6040516323b872dd60e01b8482015233602482015230604482015287606482015260648152610c74608482612860565b856135e5565b610c8c6001600160401b03871661307c565b90610c9730836134df565b6001600160a01b0316610caa81836134df565b6040518080958194632cfd300560e01b83523360048401612b1a565b039160c051905af180156103d257610d4d575b50600290610d1d9260c051526003602052604060c051209060018060a01b03610d00612a4a565b1603610d3757610d11848254612b35565b81555b01918254612b35565b905560c0515f516020615d665f395f51905f525d60c05180f35b60018101610d46858254612b35565b9055610d14565b906020823d602011610d78575b81610d6760209383612860565b810103126103c65790506002610cd9565b3d9150610d5a565b610d8a915061353d565b6040519069022b731b93cb83a32b2160b51b6020830152610e016021825192610dd2602a86602084019680888484015e810160c051838201520301601f198101875286612860565b604051938491606560f81b60208401525180918484015e810160c051838201520301601f198101835282612860565b604051610e0f602082612860565b60c0518152604051926126a891828501916001600160401b03831186841017610ec8578594610e64610e7292610e809661363e89398986528a602087015230604087015260c0606087015260c0860190612919565b908482036080860152612919565b9160a0818403910152612919565b039060c051f080156103d25760c080518490526002602090815290516040908190205f8581529083522080546001600160a01b0319166001600160a01b038416179055610c3a565b634e487b7160e01b60c051526041600452602460c051fd5b632fbfa18760e11b60c051526001600452602460c051fd5b506001600160a01b03610f09612a60565b16821415610c0a565b632fbfa18760e11b60c051526006600452602460c051fd5b34610426576020366003190112610426576001600160a01b03610f4b6125f4565b1660c05152600c6020526020604060c0512054604051908152f35b346104265760c051366003190112610426576001546040516001600160a01b039091168152602090f35b3461042657610f9e3661293d565b5050507f00000000000000000000000000000000000000000000000000000000000000006001600160a01b031633039250610fe991505057630a85dc2960e01b60c05152600460c051fd5b63570c108560e11b60c05152600460c051fd5b346104265760e0366003190112610426576110156125f4565b5060a03660231901126104265761102a6127ef565b507f00000000000000000000000000000000000000000000000000000000000000006001600160a01b03163303610fe957630a85dc2960e01b60c05152600460c051fd5b346104265760c051366003190112610426576040517f00000000000000000000000000000000000000000000000000000000000000006001600160a01b03168152602090f35b34610426576040366003190112610426576024356001600160a01b03811681036104265760043560c051526002602052604060c051209060018060a01b03165f52602052602060405f2060018060a01b03905416604051908152f35b346104265760203660031901126104265760043560c0515260036020526080604060c051208054906001810154906003600282015491015491604051938452602084015260408301526060820152f35b34610426576111a961117c611174366126c4565b505091612b83565b604080516001600160e01b03199094168452602084019290925262ffffff16908201529081906060820190565b0390f35b346104265760203660031901126104265760043560c05152600760205260c06040815120600181015490600281015490600460038201549101549160405193845260ff81161515602085015260ff8160081c161515604085015260018060401b039060101c166060840152608083015260a0820152f35b346104265760c0513660031901126104265760405161124281612815565b60c051815260c051602082015260c051604082015260c051606082015260c051608082015260c05160a082015260c05160c082015260c05160e082015260c05161010082015260c05161012082015260c05161014082015260c05161016082015260c0516101808201526101a060c0519101526101c060206040516112c681612815565b60c05181528181019060c05182526040810160c05181526060820160c05181526080830160c051815260a0840160c051815260c085016001815260e08601906001825261010087019260c051845261012088019460c051865261014089019660c05188526101608a019860c0518a526101a06101808c019b60c0518d52019b60c0518d526040519d8e9160c051835251151591015251151560408d015251151560608c015251151560808b015251151560a08a015251151560c089015251151560e08801525115156101008701525115156101208601525115156101408501525115156101608401525115156101808301525115156101a0820152f35b34610426576113d13661278c565b5091929150507f00000000000000000000000000000000000000000000000000000000000000006001600160a01b03163303610fe95761141092612d86565b604080516001600160e01b0319939093168352600f9190910b602083015290f35b346104265760c0513660031901126104265760206040515f516020615ce65f395f51905f528152f35b34610426576040366003190112610426576114736125f4565b61147b612b63565b60018060a01b031660c05152600c602052602435604060c051205560c05160c051f35b34610426576114ac36612723565b5050507f00000000000000000000000000000000000000000000000000000000000000006001600160a01b031633039350610fe99250505057630a85dc2960e01b60c05152600460c051fd5b346103c657366003190161016081126103c65760a0136103c65761151a61260a565b60e4356001600160401b0381116103c657611539903690600401612634565b9190610124356001600160401b0381116103c65761155b903690600401612634565b6101443560a0819052919490916001600160401b03811690036103c657611580613047565b60a061158b366129a8565b20936001600160a01b0390811693906115a2612a4a565b1684141580611dcd575b611db9576115bb913691612a8a565b5f516020615d065f395f51905f525460405163045fc19560e11b815260c43560048201523360248201526080604482015295916001600160a01b0390911690611608906084880190612919565b602091875f8180946005606483015203925af1948515611d7a575f95611d85575b505f516020615d465f395f51905f52546001600160a01b031691823b156103c6575f6040518094630f8e573b60e21b825281838161166b338d600484016134c6565b03925af1928315611d7a5761168793611d66575b503691612a8a565b5f516020615d065f395f51905f525460405163045fc19560e11b815261010435600482015233602482015260806044820152916001600160a01b03909116906116d4906084840190612919565b6020918380809360026064830152039160c051905af180156103d25760c051608052611d33575b505f516020615d465f395f51905f52546001600160a01b0316803b156104265760405190630f8e573b60e21b82528160c05191818061174033608051600484016134c6565b039160c051905af180156103d257611d1a575b5061175e30846134df565b61176a306080516134df565b8160c051526002602052604060c05120905f5260205260405f2060018060a01b0390541680156103df5761179e81846134df565b803b1561042657604051636a7f5dcb60e11b815230600482015265ffffffffffff602482015260c0518160448183865af180156103d257611d01575b506020604051809263eb3155b560e01b825281806117fd88303360048501612acf565b039160c051905af180156103d257611cd2575b5060c0805182905260056020525160409020549081158015611cb5575b611abe575b604051602081019133835242604083015260608201528360808201526080815261185d60a082612860565b51902060405190919061010081016001600160401b03811182821017610ec857604052838152600760208201608051815260408301338152606084019060018060401b0360a051168252608085019060c05182526118ba366129a8565b9160a0870192835260c087019388855260e08801954287528a60c051526004602052604060c0512098518955516001890155600288019260018060a01b039060018060a01b039051161660018060a01b031984541617835551825490600160a01b600160e01b039060a01b1690600160a01b600160e01b03191617825551151581549060ff60e01b9060e01b169060ff60e01b19161790555160018060a01b03815116600386019060018060a01b031660018060a01b03198254161790556004850160018060a01b0360018060a01b036020840151161660018060a01b031982541617815560408201518154606084015160b81b62ffffff60b81b169162ffffff60a01b9060a01b169065ffffffffffff60a01b191617179055608060018060a01b0391015116600585019060018060a01b031660018060a01b03198254161790555160068401555191015560c051526007602052604060c05120805490600160401b821015610ec857611a3682600160039401835582612af1565b815490841b9085821b915f19901b191617905501918254905f198214611aa6576020936001611a739301905560018060a01b0360085416906134df565b600854608051611a8c916001600160a01b0316906134df565b60c0515f516020615d665f395f51905f525d604051908152f35b634e487b7160e01b60c051526011600452602460c051fd5b60c0805182905260066020525160409020546001600160401b0390811660010192508211611aa6578060c051526006602052604060c051209160018060401b0316918260018060401b0319825416179055604051602081019082825283604082015260408152611b2f606082612860565b51902060c08051839052600560209081529051604090819020839055519193909190611b5b8383612860565b60c05182525f3681376040519160e083016001600160401b03811184821017610ec857604052825282820190848252604083019060c05182526060840160c05181526080850191825260a085019360c051855260c05160c08701528860c0515260078752604060c051209686519081519160018060401b038311610ec857600160401b8311610ec85781908a54848c55808510611c86575b5001908960c051528060c051209060c0515b848110611c74575050925160018a0155505092516002870180549251935162010000600160501b0360109190911b1661ff0094151560081b9490941691151560ff166001600160501b031990931692909217179190911790555051600383015560c00151600490910155611832565b83518382015592810192600101611c05565b8b60c051528260c05120908582015b8183018110611ca5575050611bf3565b60c0518155859450600101611c95565b508160c05152600760205260ff6002604060c0512001541661182d565b6020813d602011611cf9575b81611ceb60209383612860565b810103126103c65751611810565b3d9150611cde565b60c051611d0d91612860565b60c05161042657836117da565b60c051611d2691612860565b60c0516104265783611753565b6020813d602011611d5e575b81611d4c60209383612860565b810103126103c65751608052836116fb565b3d9150611d3f565b5f611d7091612860565b5f60c0528661167f565b6040513d5f823e3d90fd5b9094506020813d602011611db1575b81611da160209383612860565b810103126103c657519385611629565b3d9150611d94565b632fbfa18760e11b5f52600160045260245ffd5b506001600160a01b03611dde612a60565b168414156115ac565b346103c65760203660031901126103c6576004356001600160401b0381116103c657611e17903690600401612634565b7f00000000000000000000000000000000000000000000000000000000000000006001600160a01b031691903383900361200357819081010361012081126103c65760a0136103c65760405190611e6d82612845565b611e7681612620565b8252611e8460208201612620565b6020830152604081013562ffffff811681036103c657604083015260608101358060020b81036103c657606083015260808101356001600160a01b03811681036103c6576080830152611ed960c08201612994565b60a0611ee760e08401612620565b92611f16611ef86101008301612620565b95604051976317bd4c1d60e01b8952600489015260248801906128d6565b013560c48501526001600160801b031660e48401526001600160a01b039081166101048401521661012482015260036101448201526020816101648173__$a76186c3d7dc11dbe749538117a3847be8$__5af4908115611d7a575f91611fc1575b50600980546001600160801b0319166001600160801b03929092169190911790556040516111a990611faa602082612860565b5f8152604051918291602083526020830190612919565b90506020813d602011611ffb575b81611fdc60209383612860565b810103126103c657516001600160801b03811681036103c65781611f77565b3d9150611fcf565b63570c108560e11b5f5260045ffd5b346103c65760203660031901126103c6576004355f52600460205261018060405f2080549060018101549061209e600282015460ff61205360038501612883565b916007600686015495015495604051978852602088015260018060a01b038116604088015260018060401b038160a01c16606088015260e01c161515608086015260a08501906128d6565b610140830152610160820152f35b346103c65760203660031901126103c6576120c56125f4565b6120cd612b63565b6001600160a01b031680156120f257600880546001600160a01b031916919091179055005b632fbfa18760e11b5f52600b60045260245ffd5b346103c6575f3660031901126103c6575f546040516001600160a01b039091168152602090f35b346103c6575f3660031901126103c6576020612147613018565b604051908152f35b346103c6575f3660031901126103c6576008546040516001600160a01b039091168152602090f35b346103c65760203660031901126103c6576004355f526005602052602060405f2054604051908152f35b346103c6575f3660031901126103c657600154336001600160a01b039091160361220057600180546001600160a01b03199081169091555f805433928116831782556001600160a01b0316905f516020615d265f395f51905f529080a3005b63118cdaa760e01b5f523360045260245ffd5b346103c65760203660031901126103c65761222c6125f4565b5f546001600160a01b03163314801561229d575b1561226757600b80546001600160a01b0319166001600160a01b0392909216919091179055005b60405162461bcd60e51b815260206004820152600e60248201526d139bdd08185d5d1a1bdc9a5e995960921b6044820152606490fd5b506008546001600160a01b03163314612240565b346103c6575f3660031901126103c6576122c9612b63565b600180546001600160a01b03199081169091555f80549182168155906001600160a01b03165f516020615d265f395f51905f528280a3005b346103c6576101003660031901126103c65761231b6125f4565b5060a03660231901126103c6576123306127ef565b50612339612805565b507f00000000000000000000000000000000000000000000000000000000000000006001600160a01b0316330361200357630a85dc2960e01b5f5260045ffd5b346103c65761141061238a3661278c565b50505091612d86565b346103c6576123a136612723565b5050507f00000000000000000000000000000000000000000000000000000000000000006001600160a01b0316330393506120039250505057630a85dc2960e01b5f5260045ffd5b346103c6575f3660031901126103c657600b546040516001600160a01b039091168152602090f35b346103c65761241f366126c4565b50919291507f00000000000000000000000000000000000000000000000000000000000000006001600160a01b03163303612003576111a99261117c92612b83565b346103c65760203660031901126103c65761247a6125f4565b612482612b63565b600a80546001600160a01b0319166001600160a01b0392909216919091179055005b346103c65760203660031901126103c6576004355f526006602052602060018060401b0360405f205416604051908152f35b346103c6576124e436612661565b5050507f00000000000000000000000000000000000000000000000000000000000000006001600160a01b031633039150612003905057630a85dc2960e01b5f5260045ffd5b346103c65760203660031901126103c657600435805f52600560205260405f205480156125bd575f52600760205260405f2060028101805460ff81166125a9576003830154156125955760ff1916600117905542600491909101555f90815260056020526040812055005b632fbfa18760e11b5f52601260045260245ffd5b632fbfa18760e11b5f52601160045260245ffd5b632fbfa18760e11b5f52600960045260245ffd5b346103c6575f3660031901126103c657600a546001600160a01b03168152602090f35b600435906001600160a01b03821682036103c657565b60a435906001600160a01b03821682036103c657565b35906001600160a01b03821682036103c657565b9181601f840112156103c6578235916001600160401b0383116103c657602083818601950101116103c657565b906101606003198301126103c6576004356001600160a01b03811681036103c6579160a06023198201126103c657602491608060c3198301126103c65760c49161014435906001600160401b0382116103c6576126c091600401612634565b9091565b906101406003198301126103c6576004356001600160a01b03811681036103c6579160a06023198201126103c657602491606060c3198301126103c65760c49161012435906001600160401b0382116103c6576126c091600401612634565b906101a06003198301126103c6576004356001600160a01b03811681036103c6579160a06023198201126103c657602491608060c3198301126103c65760c4916101443591610164359161018435906001600160401b0382116103c6576126c091600401612634565b6101606003198201126103c6576004356001600160a01b03811681036103c6579160a06023198301126103c657602491606060c3198201126103c65760c491610124359161014435906001600160401b0382116103c6576126c091600401612634565b60c435906001600160a01b03821682036103c657565b60e435908160020b82036103c657565b6101c081019081106001600160401b0382111761283157604052565b634e487b7160e01b5f52604160045260245ffd5b60a081019081106001600160401b0382111761283157604052565b601f909101601f19168101906001600160401b0382119082101761283157604052565b9060405161289081612845565b82546001600160a01b0390811682526001840154808216602084015260a081901c62ffffff16604084015260b81c600290810b6060840152909301549092166080830152565b80516001600160a01b03908116835260208083015182169084015260408083015162ffffff169084015260608083015160020b9084015260809182015116910152565b805180835260209291819084018484015e5f828201840152601f01601f1916010190565b6101206003198201126103c6576004356001600160a01b03811681036103c6579160a06023198301126103c65760249160c4359160e4359161010435906001600160401b0382116103c6576126c091600401612634565b35906001600160801b03821682036103c657565b60a09060031901126103c657604051906129c182612845565b816004356001600160a01b03811681036103c65781526024356001600160a01b03811681036103c657602082015260443562ffffff811681036103c65760408201526064358060020b81036103c6576060820152608435906001600160a01b03821682036103c65760800152565b6001600160401b03811161283157601f01601f191660200190565b6004356001600160a01b03811681036103c65790565b6024356001600160a01b03811681036103c65790565b356001600160a01b03811681036103c65790565b929192612a9682612a2f565b91612aa46040519384612860565b8294818452818301116103c6578281602093845f960137010152565b908160209103126103c6575190565b6001600160a01b03918216815291166020820152604081019190915260600190565b8054821015612b06575f5260205f2001905f90565b634e487b7160e01b5f52603260045260245ffd5b6001600160a01b039091168152602081019190915260400190565b91908201809211612b4257565b634e487b7160e01b5f52601160045260245ffd5b91908203918211612b4257565b5f546001600160a01b0316330361220057565b3580151581036103c65790565b919290916001600160a01b03163014612d7557600b545f926001600160a01b03909116908115612d6157602090612bb986612b76565b15612d5057612bc790612a76565b945b01355f811215612d4a57600160ff1b8114612b42575f03935b6001600160a01b03165f818152600c60205260409020548015159081612d40575b50612d2c57604051636c24a76f60e01b815260048101829052602081602481865afa8015611d7a5786915f91612cf7575b5010612ce357813b156103c6575f8092606460405180958193631a4ca37b60e21b83528660048401528a60248401523060448401525af1918215611d7a578592612cc9575b50612caf91907f00000000000000000000000000000000000000000000000000000000000000006001600160a01b031690613407565b6315d7892d60e21b9260801b6001600160801b0319169190565b5f919450612cd79250612860565b5f918390612caf612c79565b632fbfa18760e11b5f52600f60045260245ffd5b9150506020813d602011612d24575b81612d1360209383612860565b810103126103c6578590515f612c34565b3d9150612d06565b632fbfa18760e11b5f52600e60045260245ffd5b905085115f612c03565b93612be2565b81612d5b9101612a76565b94612bc9565b506315d7892d60e21b93505f925082919050565b6315d7892d60e21b92505f91508190565b909291906001600160a01b0316301461300957600b545f936001600160a01b03909116908115612ff757612db983612b76565b15612fe857612dd0612dca82612a76565b93612b76565b15612fd9576020612de19101612a76565b915b6040516370a0823160e01b81523060048201526001600160a01b039182169390911690602081602481875afa908115611d7a575f91612fa7575b506040516370a0823160e01b815230600482015293602085602481865afa938415611d7a5787955f95612f70575b5082612ef7575b50505081612e6b575b5063b47b2fb160e01b9392915050565b600b54612e839083906001600160a01b031683613407565b600b546001600160a01b031691823b15612ef357612eba92849283604051809681958294631e573fb760e31b845260048401612b1a565b03925af18015612ee857612ecf575b80612e5b565b81612ed991612860565b612ee457815f612ec9565b5080fd5b6040513d84823e3d90fd5b8380fd5b8293949550918192612f0892613407565b600b546001600160a01b031691823b156103c657612f3f925f9283604051809681958294631e573fb760e31b845260048401612b1a565b03925af18015611d7a57612f59575b908180869493612e52565b612f67919294505f90612860565b5f92905f612f4e565b955093506020853d602011612f9f575b81612f8d60209383612860565b810103126103c657869451935f612e4b565b3d9150612f80565b90506020813d602011612fd1575b81612fc260209383612860565b810103126103c657515f612e1d565b3d9150612fb5565b612fe290612a76565b91612de3565b612dd0612dca60208301612a76565b5063b47b2fb160e01b93505f92915050565b5063b47b2fb160e01b91505f90565b4660010361302557600190565b4662aa36a7036130355761271190565b617a694614613042575f90565b5f1990565b5f516020615d665f395f51905f525c61306d5760015f516020615d665f395f51905f525d565b633ee5aeb560e01b5f5260045ffd5b5f516020615d065f395f51905f5254604051639cd07acb60e01b81526001600160401b03909216600483015260056024830152602090829060449082905f906001600160a01b03165af1908115611d7a575f916130d7575090565b90506020813d6020116130fe575b816130f260209383612860565b810103126103c6575190565b3d91506130e5565b805115612b065760200190565b602081016020825282518091526040820191602060408360051b8301019401925f915b83831061314557505050505090565b9091929394602080613163600193603f198682030187528951612919565b97019301930191939290613136565b9190915f9083156133ca5760409081519461318d8387612860565b60018652601f1983015f5b8181106133b9575050906131ad913691612a8a565b6131b685613106565b526131c084613106565b50805163d47eed4560e01b81527f00000000000000000000000000000000000000000000000000000000000000006001600160a01b031690602081806132098960048301613113565b0381855afa9081156133af575f9161337d575b50813b156103c657613244955f9184518080998194631df3cbc560e31b835260048301613113565b0391855af1948515613373576044949561335d575b5060809082519485809263052571af60e51b82525f516020615ce65f395f51905f52600483015261025860248301525afa9283156133525782936132a2575b5050505160070b90565b90919392506080813d60801161334a575b816132c060809383612860565b81010312612ef357815191608083016001600160401b0381118482101761333657815281518060070b810361333257835260208201516001600160401b038116810361333257602084015280820151908160030b820361333257836060949596500152015160608201525f8080613298565b8580fd5b634e487b7160e01b86526041600452602486fd5b3d91506132b3565b5051903d90823e3d90fd5b61336a9193505f90612860565b5f916080613259565b82513d5f823e3d90fd5b90506020813d6020116133a7575b8161339860209383612860565b810103126103c657515f61321c565b3d915061338b565b83513d5f823e3d90fd5b806060602080938b01015201613198565b505f925050565b9291926133dd82612a2f565b916133eb6040519384612860565b8294818452818301116103c6578281602093845f96015e010152565b91909160205f6040519361343e856134308582019363095ea7b360e01b85528960248401612b1a565b03601f198101875286612860565b84519082855af15f513d826134a1575b50501561345a57505050565b60405163095ea7b360e01b60208201526001600160a01b0390931660248401525f604480850191909152835261349f9261036790613499606482612860565b826135e5565b565b9091506134be57506001600160a01b0381163b15155b5f8061344e565b6001146134b7565b9081526001600160a01b03909116602082015260400190565b5f516020615d465f395f51905f52546001600160a01b031691823b156103c657613522925f9283604051809681958294635ca4b5b160e11b8452600484016134c6565b03925af18015611d7a576135335750565b5f61349f91612860565b6040516395d89b4160e01b8152905f90829060049082906001600160a01b03165afa5f9181613593575b50613590575060405161357b604082612860565b60058152642a27a5a2a760d91b602082015290565b90565b9091503d805f833e6135a58183612860565b8101906020818303126103c6578051906001600160401b0382116103c657019080601f830112156103c65781516135de926020016133d1565b905f613567565b905f602091828151910182855af115611d7a575f513d61363457506001600160a01b0381163b155b6136145750565b635274afe760e01b5f9081526001600160a01b0391909116600452602490fd5b6001141561360d56fe60c060405234610730576126a88038038061001981610753565b928339810160c0828203126107305761003182610778565b602083015161004260408501610778565b60608501519093906001600160401b038111610730578161006491870161078c565b60808601519095906001600160401b038111610730578261008691830161078c565b60a08201519092906001600160401b038111610730576100a6920161078c565b946100af6107dd565b504660010361064c576100c06107dd565b506100c9610734565b5f81525f60208201525f60408201525b80517f9e7b61f58c47dc699ac88507c4f5bb9f121c03808c5676a8078fe583e464970080546001600160a01b03199081166001600160a01b039384161790915560208301517f9e7b61f58c47dc699ac88507c4f5bb9f121c03808c5676a8078fe583e4649701805483169184169190911790556040909201517f9e7b61f58c47dc699ac88507c4f5bb9f121c03808c5676a8078fe583e4649702805490931691161790558051906001600160401b0382116104665760035490600182811c92168015610642575b60208310146104485781601f8493116105d4575b50602090601f831160011461056e575f92610563575b50508160011b915f199060031b1c1916176003555b8051906001600160401b0382116104665760045490600182811c92168015610559575b60208310146104485781601f8493116104eb575b50602090601f8311600114610485575f9261047a575b50508160011b915f199060031b1c1916176004555b83516001600160401b03811161046657600554600181811c9116801561045c575b602082101461044857601f8111610402575b50602094601f821160011461039f579481929394955f92610394575b50508160011b915f199060031b1c1916176005555b331561038157600780546001600160a01b0319908116909155600680549182163390811790915560405194916001600160a01b03167f8be0079c531659141344cd1fd0a4f28419497f9722a3daafe3b4186f6b6457e05f80a36001600160a01b03831615610372576001600160a01b03169182156103635760805260a052600880546001600160a01b031916919091179055611eb090816107f882396080518181816109f40152611181015260a051818181610a190152610e970152f35b639c9d882360e01b5f5260045ffd5b63d92e233d60e01b5f5260045ffd5b631e4fbdf760e01b5f525f60045260245ffd5b015190505f80610290565b601f1982169560055f52805f20915f5b8881106103ea575083600195969798106103d2575b505050811b016005556102a5565b01515f1960f88460031b161c191690555f80806103c4565b919260206001819286850151815501940192016103af565b60055f5260205f20601f830160051c8101916020841061043e575b601f0160051c01905b8181106104335750610274565b5f8155600101610426565b909150819061041d565b634e487b7160e01b5f52602260045260245ffd5b90607f1690610262565b634e487b7160e01b5f52604160045260245ffd5b015190505f8061022c565b60045f9081528281209350601f198516905b8181106104d357509084600195949392106104bb575b505050811b01600455610241565b01515f1960f88460031b161c191690555f80806104ad565b92936020600181928786015181550195019301610497565b60045f529091507f8a35acfbc15ff81a39ae7d344fd709f28e8600b4aa8c65c6b64bfe7fe36bd19b601f840160051c8101916020851061054f575b90601f859493920160051c01905b8181106105415750610216565b5f8155849350600101610534565b9091508190610526565b91607f1691610202565b015190505f806101ca565b60035f9081528281209350601f198516905b8181106105bc57509084600195949392106105a4575b505050811b016003556101df565b01515f1960f88460031b161c191690555f8080610596565b92936020600181928786015181550195019301610580565b60035f529091507fc2575a0e9e593c00f959f8c92f12db2869c3395a3b0502d05e2516446f71f85b601f840160051c81019160208510610638575b90601f859493920160051c01905b81811061062a57506101b4565b5f815584935060010161061d565b909150819061060f565b91607f16916101a0565b4662aa36a7036106b75761065e6107dd565b50610667610734565b73f0ffdc93b7e186bc2f8cb3daa75d86d1930a433d81527392c920834ec8941d2c77d188936e1f7a6f49c127602082015273be0e383937d564d7ff0bc3b46c51f0bf8d5c311a60408201526100d9565b46617a6903610721576106c86107dd565b506106d1610734565b7350157cffd6bbfa2dece204a89ec419c23ef5755d815273e3a9105a3a932253a70f126eb1e3b589c643dd24602082015273901f8942346f7ab3a01f6d7613119bca447bb03060408201526100d9565b6373cac13b60e01b5f5260045ffd5b5f80fd5b60405190606082016001600160401b0381118382101761046657604052565b6040519190601f01601f191682016001600160401b0381118382101761046657604052565b51906001600160a01b038216820361073057565b81601f82011215610730578051906001600160401b038211610466576107bb601f8301601f1916602001610753565b928284526020838301011161073057815f9260208093018386015e8301015290565b6107e5610734565b905f82525f60208301525f604083015256fe6080806040526004361015610012575f80fd5b5f905f3560e01c90816301ffc9a7146112a45750806306fdde03146111b05780632495a5991461116c5780632cfd30051461105f5780632fb74e6214611014578063313ce56714610ff9578063344ff10114610fc257806334c4574314610eba5780633e0dc34e14610e7f578063537d3c5014610e205780635409522714610e02578063588f0b0114610cbf5780635bebed7e14610c87578063715018a614610c3357806379ba509714610bbe5780637f5a7c7b14610b955780638927b03014610b7a5780638da5cb5b14610b5157806395d89b4114610a94578063a64c9d4314610a49578063abb1dc44146109d2578063b1af281e146107ee578063b6363cf2146107b7578063b8e263c214610733578063c7b8a75e146106a2578063d4febb9614610610578063d80618061461051d578063de64211914610469578063e064b9bb146103f5578063e30c3978146103cc578063e8a3d485146102bb578063eb3155b5146101f95763f2fde38b14610189575f80fd5b346101f65760203660031901126101f6576101a261131b565b6101aa611657565b600780546001600160a01b0319166001600160a01b039283169081179091556006549091167f38d16b8cac22d99fc7c124b9cd0de2d3fa1faef420bfe791d8c362d765e227008380a380f35b80fd5b50346101f65761023961020b36611374565b91610220338461021b3382611ab8565b611463565b610234338261022f33826114aa565b611436565b611624565b5f516020611e845f395f51905f52546001600160a01b0316803b156102b757826040518092630f8e573b60e21b8252818381610279338960048401611818565b03925af180156102ac57610293575b602082604051908152f35b61029e8380926113ae565b6102a85781610288565b5080fd5b6040513d85823e3d90fd5b8280fd5b50346101f657806003193601126101f6576040519080600554908160011c916001811680156103c2575b6020841081146103ae57838652908115610387575060011461032a575b61032684610312818603826113ae565b6040519182916020835260208301906112f7565b0390f35b600581527f036b6384b5eca791c62761152d0c79bb0604c104a5fb6f4eb0703f3154bb3db0939250905b80821061036d5750909150810160200161031282610302565b919260018160209254838588010152019101909291610354565b60ff191660208087019190915292151560051b850190920192506103129150839050610302565b634e487b7160e01b83526022600452602483fd5b92607f16926102e5565b50346101f657806003193601126101f6576007546040516001600160a01b039091168152602090f35b50346101f65760803660031901126101f65761040f61131b565b610417611331565b60643591906001600160401b0383116104655761045f610457610441610239953690600401611347565b610450338761022f33826114aa565b3691611400565b604435611510565b91611624565b8380fd5b50346101f65760803660031901126101f65761048361131b565b6044356001600160401b0381116102b7576104a2903690600401611347565b606435926001600160401b0384116105195761050b610513926104fd6104f16104ea6104e26104d86102399a3690600401611347565b9990953691611400565b602435611510565b8533611624565b95869283863333611831565b610505611ca3565b9061194f565b9033906116e0565b90611a1c565b8480fd5b50346101f65760203660031901126101f657600435610541338261021b3382611ab8565b81604080519061055181836113ae565b60018252601f1981013660208401378361056a83611489565b525f516020611e845f395f51905f52546001600160a01b0316803b15610465578151637d6e912360e11b81526020600482015292849184918290849082906105b69060248301906116ad565b03925af190811561060757506105f2575b505033907f189c3bfae2e5ce7726b29d57bb6ed0f1a7ebcd153a863ff5ecb6cd998064c98c8380a380f35b816105fc916113ae565b6102a857815f6105c7565b513d84823e3d90fd5b50346101f65760403660031901126101f65761062a61131b565b6024359065ffffffffffff82168092036102b757338084526001602090815260408086206001600160a01b03949094165f81815294835293819020805465ffffffffffff19168617905551938452919290917f921a218a75d18e8ec5704851e6b234a85725b21a2521ce889622c35dedc1fa1291a380f35b50346101f65760803660031901126101f6576106bc61131b565b6106c4611331565b60643590604435906001600160401b038311610519576102399361072d610513936104fd6106f9610721973690600401611347565b97909261070b338261021b3382611ab8565b61071a338761022f33826114aa565b8686611624565b96879283878733611831565b916116e0565b50346101f65760203660031901126101f65761074d61131b565b610755611657565b6001600160a01b031680156107a857600880546001600160a01b0319811683179091556001600160a01b03167f28f7fb7e7a8b1239a2210fff0089ce39da0362e2dd2eecaa013a8996a37a22798380a380f35b639c9d882360e01b8252600482fd5b50346101f65760403660031901126101f65760206107e46107d661131b565b6107de611331565b906114aa565b6040519015158152f35b50346101f65760603660031901126101f6576004356024356001600160401b038116908190036102b7576044356001600160401b03811161046557610837903690600401611347565b906040918560206108fb61087f86519561085188886113ae565b60018752601f19880136858901378961086988611489565b52875195898588015284875261045089886113ae565b7f9e7b61f58c47dc699ac88507c4f5bb9f121c03808c5676a8078fe583e46497025487516378542ead60e01b8152606060048201529485936001600160a01b0390921692849283916108e96108d7606485018d6116ad565b8481036003190160248601528b6112f7565b838103600319016044850152906112f7565b03925af19081156109c8578791610999575b501561098a57917fc6366bab028b8d033cb362cfd1f2f3457ef4e92fc738b6788b90d5a7846367a06109727f83bbbc07896439e5d950a6cead04cbc676180af7a61cecf43f5296475057f571959361097f6020968551938493878552878501906116ad565b90838203898501526112f7565b0390a151908152a280f35b63cf6c44e960e01b8652600486fd5b6109bb915060203d6020116109c1575b6109b381836113ae565b810190611aa0565b5f61090d565b503d6109a9565b84513d89823e3d90fd5b50346101f657806003193601126101f657600854604080516001600160a01b037f0000000000000000000000000000000000000000000000000000000000000000811682527f0000000000000000000000000000000000000000000000000000000000000000602083015290921690820152606090f35b50346101f657610a5836611374565b6008549093919291906001600160a01b03163303610a85576020610a7d858585611624565b604051908152f35b635a91834f60e01b8152600490fd5b50346101f657806003193601126101f6576040519080600454908160011c91600181168015610b47575b6020841081146103ae578386529081156103875750600114610aea5761032684610312818603826113ae565b600481527f8a35acfbc15ff81a39ae7d344fd709f28e8600b4aa8c65c6b64bfe7fe36bd19b939250905b808210610b2d5750909150810160200161031282610302565b919260018160209254838588010152019101909291610b14565b92607f1692610abe565b50346101f657806003193601126101f6576006546040516001600160a01b039091168152602090f35b50346101f657806003193601126101f6576020610a7d61167e565b50346101f657806003193601126101f6576008546040516001600160a01b039091168152602090f35b50346101f657806003193601126101f657600754336001600160a01b0390911603610c2057600780546001600160a01b0319908116909155600680543392811683179091556001600160a01b03165f516020611e645f395f51905f528380a380f35b63118cdaa760e01b815233600452602490fd5b50346101f657806003193601126101f657610c4c611657565b600780546001600160a01b031990811690915560068054918216905581906001600160a01b03165f516020611e645f395f51905f528280a380f35b50346101f65760403660031901126101f6576020610a7d610ca661131b565b60243590610cb9338361021b3382611ab8565b33611624565b50346101f65760403660031901126101f657610cd961131b565b600854602435906001600160a01b03163303610df3576001600160a01b03821692831580159290610d098461160a565b15610d955793610d4085610d21602097600254611bf8565b919091610d2e3082611dc3565b6002555b610d3a611ca3565b9161194f565b938493610d4f85600254611a1c565b610d593082611dc3565b600255610d85575b50610d6c3084611dc3565b5f516020611e445f395f51905f528280a4604051908152f35b610d8f9084611dc3565b5f610d61565b8482528160205260408220548015610ddf5781610db860209793610d4093611b23565b919091610dc53082611dc3565b610dcf8882611dc3565b8486528589526040862055610d32565b6317fe473760e21b83526004869052602483fd5b635a91834f60e01b8352600483fd5b50346101f657806003193601126101f6576020600254604051908152f35b50346101f65760603660031901126101f657610e3a61131b565b6044356024356001600160401b038211610465576102399261050b610513926104fd610e6d6104f1963690600401611347565b9690926104ea338261021b3382611ab8565b50346101f657806003193601126101f65760206040517f00000000000000000000000000000000000000000000000000000000000000008152f35b34610fbe5760a0366003190112610fbe57610ed361131b565b610edb611331565b6064356001600160401b038111610fbe57610efa903690600401611347565b60843593919290916001600160401b038511610fbe5761072d610513936104fd61072161071a610457610f34610f469b3690600401611347565b9a9095610450338a61022f33826114aa565b5f516020611e845f395f51905f52546001600160a01b031690813b15610fbe575f6040518093630f8e573b60e21b8252818381610f87338860048401611818565b03925af1918215610fb357602092610fa3575b50604051908152f35b5f610fad916113ae565b5f610f9a565b6040513d5f823e3d90fd5b5f80fd5b34610fbe576020366003190112610fbe576001600160a01b03610fe361131b565b165f525f602052602060405f2054604051908152f35b34610fbe575f366003190112610fbe57602060405160068152f35b34610fbe576060366003190112610fbe5761102d61131b565b6044356001600160401b038111610fbe576020916110586104e2610450610a7d943690600401611347565b9033611624565b34610fbe576040366003190112610fbe5761107861131b565b600854602435906001600160a01b0316330361115d576020916001600160a01b03811680158015939092906110c9906110b0866114f6565b6110bc81600254611bf8565b909190610d2e3082611dc3565b93849315611125576110dd84600254611a1c565b6110e73082611dc3565b6002555b611115575b506110fb3083611dc3565b5f5f516020611e445f395f51905f528180a4604051908152f35b61111f9083611dc3565b846110f0565b825f525f86526111398460405f2054611c1f565b6111433082611dc3565b61114d8382611dc3565b835f525f875260405f20556110eb565b635a91834f60e01b5f5260045ffd5b34610fbe575f366003190112610fbe576040517f00000000000000000000000000000000000000000000000000000000000000006001600160a01b03168152602090f35b34610fbe575f366003190112610fbe576040515f6003548060011c9060018116801561129a575b602083108114611286578285529081156112625750600114611204575b61032683610312818503826113ae565b60035f9081527fc2575a0e9e593c00f959f8c92f12db2869c3395a3b0502d05e2516446f71f85b939250905b808210611248575090915081016020016103126111f4565b919260018160209254838588010152019101909291611230565b60ff191660208086019190915291151560051b8401909101915061031290506111f4565b634e487b7160e01b5f52602260045260245ffd5b91607f16916111d7565b34610fbe576020366003190112610fbe576004359063ffffffff60e01b8216809203610fbe576020916312563ca960e21b81149081156112e6575b5015158152f35b6301ffc9a760e01b149050836112df565b805180835260209291819084018484015e5f828201840152601f01601f1916010190565b600435906001600160a01b0382168203610fbe57565b602435906001600160a01b0382168203610fbe57565b9181601f84011215610fbe578235916001600160401b038311610fbe5760208381860195010111610fbe57565b6060906003190112610fbe576004356001600160a01b0381168103610fbe57906024356001600160a01b0381168103610fbe579060443590565b601f909101601f19168101906001600160401b038211908210176113d157604052565b634e487b7160e01b5f52604160045260245ffd5b6001600160401b0381116113d157601f01601f191660200190565b92919261140c826113e5565b9161141a60405193846113ae565b829481845281830111610fbe578281602093845f960137010152565b1561143f575050565b630f3e596760e31b5f9081526001600160a01b039182166004529116602452604490fd5b1561146c575050565b6367cfe80560e01b5f5260045260018060a01b031660245260445ffd5b8051156114965760200190565b634e487b7160e01b5f52603260045260245ffd5b6001600160a01b038281169116908114919082156114c757505090565b9091505f52600160205260405f209060018060a01b03165f5260205265ffffffffffff60405f20541642111590565b156114fd57565b638d51880160e01b5f525f60045260245ffd5b61155f9160209160018060a01b035f516020611e245f395f51905f525416905f60405180968195829463045fc19560e11b845260048401523360248401526080604484015260848301906112f7565b6005606483015203925af1908115610fb3575f916115d8575b505f516020611e845f395f51905f52546001600160a01b0316803b15610fbe575f6040518092630f8e573b60e21b82528183816115b9338960048401611818565b03925af18015610fb3576115cb575090565b5f6115d5916113ae565b90565b90506020813d602011611602575b816115f3602093836113ae565b81010312610fbe57515f611578565b3d91506115e6565b1561161157565b63ee457ebf60e01b5f525f60045260245ffd5b6115d592919061163e6001600160a01b038216151561160a565b6116526001600160a01b03831615156114f6565b6116e0565b6006546001600160a01b0316330361166b57565b63118cdaa760e01b5f523360045260245ffd5b4660010361168b57600190565b4662aa36a70361169b5761271190565b617a6946146116a8575f90565b5f1990565b90602080835192838152019201905f5b8181106116ca5750505090565b82518452602093840193909201916001016116bd565b9092916001600160a01b0382168015929183156117bd5780610d2161170792600254611bf8565b9485936001600160a01b0382169384159182156117835761172a87600254611a1c565b6117343082611dc3565b6002555b15611773575b5015611763575b506117503084611dc3565b5f516020611e445f395f51905f525f80a4565b61176d9084611dc3565b5f611745565b61177d9086611dc3565b5f61173e565b855f525f6020526117988760405f2054611c1f565b6117a23082611dc3565b6117ac8582611dc3565b865f525f60205260405f2055611738565b815f525f60205260405f2054801561180557906117dd8161170793611b23565b9190916117ea3082611dc3565b6117f48682611dc3565b845f525f60205260405f2055610d32565b826317fe473760e21b5f5260045260245ffd5b9081526001600160a01b03909116602082015260400190565b939594929390929091803b1561193e576040516346083bfd60e01b81526001600160a01b0393841660048201529383166024850152604484019490945260806064840152608483018190529216939091602091839160a4918391908190838501375f838284010152601f801991011681010301815f875af15f918161190a575b5061190657823d156118ff573d6118c7816113e5565b906118d560405192836113ae565b81523d5f602083013e5b805190816118fa5782638d51880160e01b5f5260045260245ffd5b602001fd5b60606118df565b9150565b9091506020813d602011611936575b81611926602093836113ae565b81010312610fbe5751905f6118b1565b3d9150611919565b505050505090506115d56001611cf1565b91908215611a0b575b80156119fd575b81156119e7575b6064602092935f60018060a01b035f516020611e245f395f51905f5254166040519687958694637702dcff60e01b86526004860152602485015260448401525af1908115610fb3575f916119b8575090565b90506020813d6020116119df575b816119d3602093836113ae565b81010312610fbe575190565b3d91506119c6565b6020915060646119f5611ca3565b925050611966565b50611a06611ca3565b61195f565b9150611a165f611cf1565b91611958565b908115611a90575b8015611a7e575b602090606460018060a01b035f516020611e245f395f51905f525416935f60405195869485936303056db360e31b8552600485015260248401528160448401525af1908115610fb3575f916119b8575090565b506020611a89611ca3565b9050611a2b565b9050611a9a611ca3565b90611a24565b90816020910312610fbe57518015158103610fbe5790565b5f516020611e845f395f51905f52546040516382027b6d60e01b81529260209284926001600160a01b03169183918291611af59160048401611818565b03915afa908115610fb3575f91611b0a575090565b6115d5915060203d6020116109c1576109b381836113ae565b9190918015611b4a5780611b44611b3d856115d594611d3f565b9482611a1c565b8461194f565b8215611be857505f516020611e245f395f51905f525460405163f77f3f1d60e01b815260048101939093525f60248401819052600160f81b604485015260209184916064918391906001600160a01b03165af1918215610fb3575f92611bb4575b506115d5611ca3565b9091506020813d602011611be0575b81611bd0602093836113ae565b81010312610fbe5751905f611bab565b3d9150611bc3565b9150611bf46001611cf1565b9190565b91908215611be857611c0d6115d59184611c1f565b92611c188185611d3f565b938461194f565b908115611c93575b8015611c81575b602090606460018060a01b035f516020611e245f395f51905f525416935f604051958694859363022f65e760e31b8552600485015260248401528160448401525af1908115610fb3575f916119b8575090565b506020611c8c611ca3565b9050611c2e565b9050611c9d611ca3565b90611c27565b5f516020611e245f395f51905f5254604051639cd07acb60e01b81525f6004820152906001600160a01b0316816044815f602094600560248401525af1908115610fb3575f916119b8575090565b5f516020611e245f395f51905f5254604051639cd07acb60e01b815260048101929092526001600160a01b0316816044815f6020948160248401525af1908115610fb3575f916119b8575090565b908115611db3575b8015611da1575b602090606460018060a01b035f516020611e245f395f51905f525416935f6040519586948593631391547f60e01b8552600485015260248401528160448401525af1908115610fb3575f916119b8575090565b506020611dac611ca3565b9050611d4e565b9050611dbd611ca3565b90611d47565b5f516020611e845f395f51905f52546001600160a01b031691823b15610fbe57611e06925f9283604051809681958294635ca4b5b160e11b845260048401611818565b03925af18015610fb357611e175750565b5f611e21916113ae565b56fe9e7b61f58c47dc699ac88507c4f5bb9f121c03808c5676a8078fe583e464970167500e8d0ed826d2194f514dd0d8124f35648ab6e3fb5e6ed867134cffe661e98be0079c531659141344cd1fd0a4f28419497f9722a3daafe3b4186f6b6457e09e7b61f58c47dc699ac88507c4f5bb9f121c03808c5676a8078fe583e4649700a164736f6c634300081b000aff61491a931112ddf1bd8147cd1b641375f79f5825126d665480874634fd0ace9e7b61f58c47dc699ac88507c4f5bb9f121c03808c5676a8078fe583e46497018be0079c531659141344cd1fd0a4f28419497f9722a3daafe3b4186f6b6457e09e7b61f58c47dc699ac88507c4f5bb9f121c03808c5676a8078fe583e46497009b779b17422d0df92223018b32b4d1fa46e071723d6817e2486d003becc55f00a164736f6c634300081b000a","linkReferences":{"contracts/libraries/SettlementLib.sol":{"SettlementLib":[{"start":3311,"length":20},{"start":8995,"length":20}]}}},"methodIdentifiers":{"ETH_USD_PRICE_FEED()":"b0f0abe9","acceptOwnership()":"79ba5097","afterAddLiquidity(address,(address,address,uint24,int24,address),(int24,int24,int256,bytes32),int256,int256,bytes)":"9f063efc","afterDonate(address,(address,address,uint24,int24,address),uint256,uint256,bytes)":"e1b4af69","afterInitialize(address,(address,address,uint24,int24,address),uint160,int24)":"6fe7e6eb","afterRemoveLiquidity(address,(address,address,uint24,int24,address),(int24,int24,int256,bytes32),int256,int256,bytes)":"6c2bbe7e","afterSwap(address,(address,address,uint24,int24,address),(bool,int256,uint160),int256,bytes)":"b47b2fb1","batchCounter(bytes32)":"34356362","batches(bytes32)":"c81e25ab","beforeAddLiquidity(address,(address,address,uint24,int24,address),(int24,int24,int256,bytes32),bytes)":"259982e5","beforeDonate(address,(address,address,uint24,int24,address),uint256,uint256,bytes)":"b6a8b0fa","beforeInitialize(address,(address,address,uint24,int24,address),uint160)":"dc98354e","beforeRemoveLiquidity(address,(address,address,uint24,int24,address),(int24,int24,int256,bytes32),bytes)":"21d0ee70","beforeSwap(address,(address,address,uint24,int24,address),(bool,int256,uint160),bytes)":"575e24b4","confidentialProtocolId()":"8927b030","currentBatchId(bytes32)":"8219b930","deltaZeroStrategy()":"17c75380","deposit((address,address,uint24,int24,address),address,uint256)":"e8d535e2","finalizeBatch(bytes32)":"1bcfaaa9","getHookPermissions()":"c4e833ce","intents(bytes32)":"9021578a","maxSwapAmount(address)":"e7881011","owner()":"8da5cb5b","pendingOwner()":"e30c3978","poolEncryptedTokens(bytes32,address)":"db442256","poolManager()":"dc4c90d3","poolReserves(bytes32)":"da4bde0f","pyth()":"f98d06f0","relayer()":"8406c079","renounceOwnership()":"715018a6","setDeltaZeroStrategy(address)":"554f4366","setMaxSwapAmount(address,uint256)":"a589d319","setSimpleLending(address)":"739919ed","settleBatch(bytes32,(address,address,address,bytes32)[],uint128,address,address,address,(address,uint128,uint128)[],bytes)":"ed97b51d","simpleLending()":"6b3bf9cf","submitIntent((address,address,uint24,int24,address),address,bytes32,bytes,bytes32,bytes,uint64)":"9c1f42c4","testAfterSwap(address,(address,address,uint24,int24,address),(bool,int256,uint160),int256,bytes)":"6fac2187","testBeforeSwap(address,(address,address,uint24,int24,address),(bool,int256,uint160),bytes)":"c8dc5568","transferOwnership(address)":"f2fde38b","unlockCallback(bytes)":"91dd7346","updateRelayer(address)":"8f83ab13","withdraw((address,address,uint24,int24,address),address,uint256,address)":"fb643fde"},"id":14}